{
  "transactions": [
    {
      "hash": "0x90ef14575310ac7ab6a7720ca8c423f8b69afcdeba102a86f3661265d4c4ff9e",
      "transactionType": "CALL",
      "contractName": null,
      "contractAddress": "0x313adf3fa3479f6bf5aedbc7949ee5e1213f20b7",
      "function": "approve(address,uint256)",
      "arguments": [
        "0x2298870DB1Fa24F3F6cc1fa0B2760AB7c1803bC1",
        "115792089237316195423570985008687907853269984665640564039457584007913129639935"
      ],
      "transaction": {
        "from": "0x000ef5f21dc574226a06c76aae7060642a30eb74",
        "to": "0x313adf3fa3479f6bf5aedbc7949ee5e1213f20b7",
        "gas": "0x9615",
        "value": "0x0",
        "input": "0x095ea7b30000000000000000000000002298870db1fa24f3f6cc1fa0b2760ab7c1803bc1ffffffffffffffffffffffffffffffffffffffffffffffffffffffffffffffff",
        "nonce": "0x137",
        "chainId": "0x66eee"
      },
      "additionalContracts": [],
      "isFixedGasLimit": false
    },
    {
      "hash": "0xd89f9b142c86de2395d9d4fc7987251fd9b33edd9fbb1bec9b507067fc4a4b56",
      "transactionType": "CALL",
      "contractName": null,
      "contractAddress": "0xf21b5d9574d84ef4c253132691d76f62fee4daab",
      "function": "approve(address,uint256)",
      "arguments": [
        "0x2298870DB1Fa24F3F6cc1fa0B2760AB7c1803bC1",
        "115792089237316195423570985008687907853269984665640564039457584007913129639935"
      ],
      "transaction": {
        "from": "0x000ef5f21dc574226a06c76aae7060642a30eb74",
        "to": "0xf21b5d9574d84ef4c253132691d76f62fee4daab",
        "gas": "0x9615",
        "value": "0x0",
        "input": "0x095ea7b30000000000000000000000002298870db1fa24f3f6cc1fa0b2760ab7c1803bc1ffffffffffffffffffffffffffffffffffffffffffffffffffffffffffffffff",
        "nonce": "0x138",
        "chainId": "0x66eee"
      },
      "additionalContracts": [],
      "isFixedGasLimit": false
    },
    {
      "hash": "0x6f91c6eb0a9a1c47c432b18a0460e79aa6d518e7ca8d9d96585062e3512dd993",
      "transactionType": "CALL",
      "contractName": null,
      "contractAddress": "0x313adf3fa3479f6bf5aedbc7949ee5e1213f20b7",
      "function": "approve(address,uint256)",
      "arguments": [
        "0x1649883be9b0d4D83092CDB430c42E6d5C1B7cAB",
        "115792089237316195423570985008687907853269984665640564039457584007913129639935"
      ],
      "transaction": {
        "from": "0x000ef5f21dc574226a06c76aae7060642a30eb74",
        "to": "0x313adf3fa3479f6bf5aedbc7949ee5e1213f20b7",
        "gas": "0x9615",
        "value": "0x0",
        "input": "0x095ea7b30000000000000000000000001649883be9b0d4d83092cdb430c42e6d5c1b7cabffffffffffffffffffffffffffffffffffffffffffffffffffffffffffffffff",
        "nonce": "0x139",
        "chainId": "0x66eee"
      },
      "additionalContracts": [],
      "isFixedGasLimit": false
    },
    {
      "hash": "0x1dc66afcd05046ea1b4b5988e2a4c57890ba0115e2b940791f7d0184e9fff47d",
      "transactionType": "CALL",
      "contractName": null,
      "contractAddress": "0xf21b5d9574d84ef4c253132691d76f62fee4daab",
      "function": "approve(address,uint256)",
      "arguments": [
        "0x1649883be9b0d4D83092CDB430c42E6d5C1B7cAB",
        "115792089237316195423570985008687907853269984665640564039457584007913129639935"
      ],
      "transaction": {
        "from": "0x000ef5f21dc574226a06c76aae7060642a30eb74",
        "to": "0xf21b5d9574d84ef4c253132691d76f62fee4daab",
        "gas": "0x9615",
        "value": "0x0",
        "input": "0x095ea7b30000000000000000000000001649883be9b0d4d83092cdb430c42e6d5c1b7cabffffffffffffffffffffffffffffffffffffffffffffffffffffffffffffffff",
        "nonce": "0x13a",
        "chainId": "0x66eee"
      },
      "additionalContracts": [],
      "isFixedGasLimit": false
    },
    {
      "hash": "0x911e16fc75554ca99b3114fb751a1ba76cf22c8efe7191b4265af14d53778553",
      "transactionType": "CALL",
      "contractName": null,
      "contractAddress": "0x313adf3fa3479f6bf5aedbc7949ee5e1213f20b7",
      "function": "mint(address,uint256)",
      "arguments": [
        "0x000ef5F21dC574226A06C76AAE7060642A30eB74",
        "1000000000000000000000000000000000"
      ],
      "transaction": {
        "from": "0x000ef5f21dc574226a06c76aae7060642a30eb74",
        "to": "0x313adf3fa3479f6bf5aedbc7949ee5e1213f20b7",
        "gas": "0xbc1a",
        "value": "0x0",
        "input": "0x40c10f19000000000000000000000000000ef5f21dc574226a06c76aae7060642a30eb74000000000000000000000000000000000000314dc6448d9338c15b0a00000000",
        "nonce": "0x13b",
        "chainId": "0x66eee"
      },
      "additionalContracts": [],
      "isFixedGasLimit": false
    },
    {
      "hash": "0x13897274726454b8debbe2ddf391b0b56989dfc4132d723c6c0cbbea36372fc5",
      "transactionType": "CALL",
      "contractName": null,
      "contractAddress": "0xf21b5d9574d84ef4c253132691d76f62fee4daab",
      "function": "mint(address,uint256)",
      "arguments": [
        "0x000ef5F21dC574226A06C76AAE7060642A30eB74",
        "1000000000000000000000000000000000"
      ],
      "transaction": {
        "from": "0x000ef5f21dc574226a06c76aae7060642a30eb74",
        "to": "0xf21b5d9574d84ef4c253132691d76f62fee4daab",
        "gas": "0xc3ce",
        "value": "0x0",
        "input": "0x40c10f19000000000000000000000000000ef5f21dc574226a06c76aae7060642a30eb74000000000000000000000000000000000000314dc6448d9338c15b0a00000000",
        "nonce": "0x13c",
        "chainId": "0x66eee"
      },
      "additionalContracts": [],
      "isFixedGasLimit": false
    },
    {
      "hash": "0xef75bdd1f2e11a2f65dd3a8d1f5852647cea5286eeb47e387f7eef1773f538e4",
      "transactionType": "CREATE2",
      "contractName": "RiskManagerHook",
      "contractAddress": "0x8133de27b31fbf57c0de8f4d5a083b62c8d08040",
      "function": null,
      "arguments": [
        "0xc420C3A3F81f2A059fF56D45c0A82D1F9aF38dCc",
        "0x7f6359E8EE0E8eAe486908C1c9B839E0c141444a"
      ],
      "transaction": {
        "from": "0x000ef5f21dc574226a06c76aae7060642a30eb74",
        "to": "0x4e59b44847b379578588920ca78fbf26c0b4956c",
        "gas": "0x10f252",
        "value": "0x0",
        "input": "0x0000000000000000000000000000000000000000000000000000000000001b3360a060405234801561000f575f80fd5b5060405161102c38038061102c83398101604081905261002e916102d7565b6001600160a01b038216608052816100453061006b565b505f80546001600160a01b0319166001600160a01b03929092169190911790555061030f565b61015b81610156604080516101c0810182525f80825260208201819052918101829052606081018290526080810182905260a0810182905260c0810182905260e08101829052610100810182905261012081018290526101408101829052610160810182905261018081018290526101a081019190915250604080516101c0810182525f80825260208201819052918101829052606081018290526080810182905260a0810182905260c08101829052600160e0820152610100810182905261012081018290526101408101829052610160810182905261018081018290526101a081019190915290565b61015e565b50565b80511515612000831615151415806101825750602081015115156110008316151514155b806101995750604081015115156108008316151514155b806101b05750606081015115156104008316151514155b806101c75750608081015115156102008316151514155b806101de575060a081015115156101008316151514155b806101f4575060c0810151151560808316151514155b8061020a575060e0810151151560408316151514155b806102215750610100810151151560208316151514155b806102385750610120810151151560108316151514155b8061024f5750610140810151151560088316151514155b806102665750610160810151151560048316151514155b8061027d5750610180810151151560028316151514155b8061029457506101a0810151151560018316151514155b156102aa576102aa630732d7b560e51b836102ae565b5050565b815f526001600160a01b03811660045260245ffd5b6001600160a01b038116811461015b575f80fd5b5f80604083850312156102e8575f80fd5b82516102f3816102c3565b6020840151909250610304816102c3565b809150509250929050565b608051610cfe61032e5f395f818161032001526103ae0152610cfe5ff3fe608060405234801561000f575f80fd5b50600436106100e5575f3560e01c80639f063efc11610088578063c4e833ce11610063578063c4e833ce14610227578063dc4c90d31461031b578063dc98354e14610342578063e1b4af6914610219575f80fd5b80639f063efc14610182578063b47b2fb1146101e3578063b6a8b0fa14610219575f80fd5b8063575e24b4116100c3578063575e24b4146101445780636c2bbe7e146101825780636fe7e6eb146101b557806391dd7346146101c3575f80fd5b806321d0ee70146100e9578063259982e5146100e9578063478426631461011a575b5f80fd5b6100fc6100f7366004610782565b610350565b6040516001600160e01b031990911681526020015b60405180910390f35b5f5461012c906001600160a01b031681565b6040516001600160a01b039091168152602001610111565b610157610152366004610809565b61036a565b604080516001600160e01b03199094168452602084019290925262ffffff1690820152606001610111565b610195610190366004610863565b610386565b604080516001600160e01b03199093168352602083019190915201610111565b6100fc6100f73660046108ee565b6101d66101d136600461094d565b6103a1565b604051610111919061098c565b6101f66101f13660046109c1565b6103ff565b604080516001600160e01b03199093168352600f9190910b602083015201610111565b6100fc6100f7366004610a42565b61030e604080516101c0810182525f80825260208201819052918101829052606081018290526080810182905260a0810182905260c0810182905260e08101829052610100810182905261012081018290526101408101829052610160810182905261018081018290526101a081019190915250604080516101c0810182525f80825260208201819052918101829052606081018290526080810182905260a0810182905260c08101829052600160e0820152610100810182905261012081018290526101408101829052610160810182905261018081018290526101a081019190915290565b6040516101119190610a9c565b61012c7f000000000000000000000000000000000000000000000000000000000000000081565b6100fc6100f7366004610bbd565b5f604051630a85dc2960e01b815260040160405180910390fd5b5f805f604051630a85dc2960e01b815260040160405180910390fd5b5f80604051630a85dc2960e01b815260040160405180910390fd5b6060336001600160a01b037f000000000000000000000000000000000000000000000000000000000000000016146103ec5760405163570c108560e11b815260040160405180910390fd5b6103f68383610667565b90505b92915050565b5f808061040f6020880188610c11565b610428576104236040890160208a01610c33565b610435565b6104356020890189610c33565b90505f6104456020890189610c11565b61045b5761045660208a018a610c33565b61046b565b61046b60408a0160208b01610c33565b90505f61047b60208a018a610c11565b6104915761048988600f0b90565b600f0b610497565b88602001355b90505f6104a760208b018b610c11565b6104b55789602001356104c3565b6104bf8960801d90565b600f0b5b90505f82126104d257816104db565b6104db82610c4e565b91505f81126104ea57806104f3565b6104f381610c4e565b90505f80610503898b018b610c74565b5f54604051635ddb109d60e11b81526001600160a01b038085166004830152602482018490528a8116604483015260648201899052898116608483015260a48201889052939550919350919091169063bbb6213a9060c401602060405180830381865afa158015610576573d5f803e3d5ffd5b505050506040513d601f19601f8201168201806040525081019061059a9190610c9e565b6105eb576040516305012d8d60e41b81526001600160a01b038084166004830152602482018390528088166044830152606482018690528616608482015260a4810184905260c40160405180910390fd5b604080516001600160a01b0384811682526020820184905288811682840152606082018790528716608082015260a0810185905290517fa21fea225ee7397ac225656944309b78664c4c3366c017790db86b2cd398f9e49181900360c00190a15063b47b2fb160e01b9d5f9d509b505050505050505050505050565b60605f80306001600160a01b03168585604051610685929190610cb9565b5f604051808303815f865af19150503d805f81146106be576040519150601f19603f3d011682016040523d82523d5f602084013e6106c3565b606091505b509150915081156106d75791506103f99050565b80515f036106f8576040516314815f4760e31b815260040160405180910390fd5b805160208201fd5b6001600160a01b0381168114610714575f80fd5b50565b5f60a08284031215610727575f80fd5b50919050565b5f60808284031215610727575f80fd5b5f8083601f84011261074d575f80fd5b50813567ffffffffffffffff811115610764575f80fd5b60208301915083602082850101111561077b575f80fd5b9250929050565b5f805f805f6101608688031215610797575f80fd5b85356107a281610700565b94506107b18760208801610717565b93506107c08760c0880161072d565b925061014086013567ffffffffffffffff8111156107dc575f80fd5b6107e88882890161073d565b969995985093965092949392505050565b5f60608284031215610727575f80fd5b5f805f805f610140868803121561081e575f80fd5b853561082981610700565b94506108388760208801610717565b93506108478760c088016107f9565b925061012086013567ffffffffffffffff8111156107dc575f80fd5b5f805f805f805f6101a0888a03121561087a575f80fd5b873561088581610700565b96506108948960208a01610717565b95506108a38960c08a0161072d565b94506101408801359350610160880135925061018088013567ffffffffffffffff8111156108cf575f80fd5b6108db8a828b0161073d565b989b979a50959850939692959293505050565b5f805f806101008587031215610902575f80fd5b843561090d81610700565b935061091c8660208701610717565b925060c085013561092c81610700565b915060e0850135600281900b8114610942575f80fd5b939692955090935050565b5f806020838503121561095e575f80fd5b823567ffffffffffffffff811115610974575f80fd5b6109808582860161073d565b90969095509350505050565b602081525f82518060208401528060208501604085015e5f604082850101526040601f19601f83011684010191505092915050565b5f805f805f8061016087890312156109d7575f80fd5b86356109e281610700565b95506109f18860208901610717565b9450610a008860c089016107f9565b9350610120870135925061014087013567ffffffffffffffff811115610a24575f80fd5b610a3089828a0161073d565b979a9699509497509295939492505050565b5f805f805f806101208789031215610a58575f80fd5b8635610a6381610700565b9550610a728860208901610717565b945060c0870135935060e0870135925061010087013567ffffffffffffffff811115610a24575f80fd5b8151151581526101c081016020830151610aba602084018215159052565b506040830151610ace604084018215159052565b506060830151610ae2606084018215159052565b506080830151610af6608084018215159052565b5060a0830151610b0a60a084018215159052565b5060c0830151610b1e60c084018215159052565b5060e0830151610b3260e084018215159052565b50610100830151610b4861010084018215159052565b50610120830151610b5e61012084018215159052565b50610140830151610b7461014084018215159052565b50610160830151610b8a61016084018215159052565b50610180830151610ba061018084018215159052565b506101a0830151610bb66101a084018215159052565b5092915050565b5f805f60e08486031215610bcf575f80fd5b8335610bda81610700565b9250610be98560208601610717565b915060c0840135610bf981610700565b809150509250925092565b8015158114610714575f80fd5b5f60208284031215610c21575f80fd5b8135610c2c81610c04565b9392505050565b5f60208284031215610c43575f80fd5b8135610c2c81610700565b5f600160ff1b8201610c6e57634e487b7160e01b5f52601160045260245ffd5b505f0390565b5f8060408385031215610c85575f80fd5b8235610c9081610700565b946020939093013593505050565b5f60208284031215610cae575f80fd5b8151610c2c81610c04565b818382375f910190815291905056fea2646970667358221220d7d47c3cccb492bf0ab6afd0beea11cc53a1d16c176e3565aa975c8665b893f164736f6c634300081a0033000000000000000000000000c420c3a3f81f2a059ff56d45c0a82d1f9af38dcc0000000000000000000000007f6359e8ee0e8eae486908c1c9b839e0c141444a",
        "nonce": "0x13d",
        "chainId": "0x66eee"
      },
      "additionalContracts": [],
      "isFixedGasLimit": false
    },
    {
      "hash": "0xed795325757613bb9fc5ebb200699e91906001565f47764c5cfd8bbc40267b9b",
      "transactionType": "CALL",
      "contractName": null,
      "contractAddress": "0xc420c3a3f81f2a059ff56d45c0a82d1f9af38dcc",
      "function": "initialize((address,address,uint24,int24,address),uint160)",
      "arguments": [
        "(0x313Adf3Fa3479F6Bf5aedBc7949EE5e1213F20B7, 0xf21B5d9574d84eF4c253132691D76F62FEE4Daab, 3000, 120, 0x8133De27B31fbf57C0de8F4d5A083B62c8d08040)",
        "79228162514264337593543950336"
      ],
      "transaction": {
        "from": "0x000ef5f21dc574226a06c76aae7060642a30eb74",
        "to": "0xc420c3a3f81f2a059ff56d45c0a82d1f9af38dcc",
        "gas": "0x12372",
        "value": "0x0",
        "input": "0x6276cbbe000000000000000000000000313adf3fa3479f6bf5aedbc7949ee5e1213f20b7000000000000000000000000f21b5d9574d84ef4c253132691d76f62fee4daab0000000000000000000000000000000000000000000000000000000000000bb800000000000000000000000000000000000000000000000000000000000000780000000000000000000000008133de27b31fbf57c0de8f4d5a083b62c8d080400000000000000000000000000000000000000001000000000000000000000000",
        "nonce": "0x13e",
        "chainId": "0x66eee"
      },
      "additionalContracts": [],
      "isFixedGasLimit": false
    },
    {
      "hash": "0x29377c3cf952097afc5c38c36196cc7a74c9c7b1b23337d46c1f48a058712eaa",
      "transactionType": "CALL",
      "contractName": null,
      "contractAddress": "0x2298870db1fa24f3f6cc1fa0b2760ab7c1803bc1",
      "function": "modifyLiquidity((address,address,uint24,int24,address),(int24,int24,int256,bytes32),bytes)",
      "arguments": [
        "(0x313Adf3Fa3479F6Bf5aedBc7949EE5e1213F20B7, 0xf21B5d9574d84eF4c253132691D76F62FEE4Daab, 3000, 120, 0x8133De27B31fbf57C0de8F4d5A083B62c8d08040)",
        "(-120, 120, 10000000000000000000000, 0x0000000000000000000000000000000000000000000000000000000000000000)",
        "0x"
      ],
      "transaction": {
        "from": "0x000ef5f21dc574226a06c76aae7060642a30eb74",
        "to": "0x2298870db1fa24f3f6cc1fa0b2760ab7c1803bc1",
        "gas": "0x595e2",
        "value": "0x0",
        "input": "0x5a6bcfda000000000000000000000000313adf3fa3479f6bf5aedbc7949ee5e1213f20b7000000000000000000000000f21b5d9574d84ef4c253132691d76f62fee4daab0000000000000000000000000000000000000000000000000000000000000bb800000000000000000000000000000000000000000000000000000000000000780000000000000000000000008133de27b31fbf57c0de8f4d5a083b62c8d08040ffffffffffffffffffffffffffffffffffffffffffffffffffffffffffffff88000000000000000000000000000000000000000000000000000000000000007800000000000000000000000000000000000000000000021e19e0c9bab2400000000000000000000000000000000000000000000000000000000000000000000000000000000000000000000000000000000000000000000000000000000001400000000000000000000000000000000000000000000000000000000000000000",
        "nonce": "0x13f",
        "chainId": "0x66eee"
      },
      "additionalContracts": [],
      "isFixedGasLimit": false
    }
  ],
  "receipts": [
    {
      "status": "0x1",
      "cumulativeGasUsed": "0x56251",
      "logs": [
        {
          "address": "0x313adf3fa3479f6bf5aedbc7949ee5e1213f20b7",
          "topics": [
            "0x8c5be1e5ebec7d5bd14f71427d1e84f3dd0314c0f7b2291e5b200ac8c7c3b925",
            "0x000000000000000000000000000ef5f21dc574226a06c76aae7060642a30eb74",
            "0x0000000000000000000000002298870db1fa24f3f6cc1fa0b2760ab7c1803bc1"
          ],
          "data": "0xffffffffffffffffffffffffffffffffffffffffffffffffffffffffffffffff",
          "blockHash": "0x0c4593c30d2629e39ec3c6e29b7c6eace10462a0cbece94f4a3e507e9b8581c4",
          "blockNumber": "0x63fc5e5",
          "transactionHash": "0x90ef14575310ac7ab6a7720ca8c423f8b69afcdeba102a86f3661265d4c4ff9e",
          "transactionIndex": "0x2",
          "logIndex": "0x4",
          "removed": false
        }
      ],
      "logsBloom": "0x00000000000000000000000000000000000000000000000000000000000000000000000000020000000000000000000000000000000000000000000000200000000000000000000000000000000000000000000000000000000000000000000000000000000000000000000400000000100000000000000000000002000000000000000000000000000000000000000000000000000000000000000000004000020000000800000000000000000000000000000000000000000000000000000000000000000000000000000000000000000000000000000000000000040000000010000000000000000000000000000000000000000100000000000000080000",
      "type": "0x2",
      "transactionHash": "0x90ef14575310ac7ab6a7720ca8c423f8b69afcdeba102a86f3661265d4c4ff9e",
      "transactionIndex": "0x2",
      "blockHash": "0x0c4593c30d2629e39ec3c6e29b7c6eace10462a0cbece94f4a3e507e9b8581c4",
      "blockNumber": "0x63fc5e5",
      "gasUsed": "0x7007",
      "effectiveGasPrice": "0x5f5e100",
      "from": "0x000ef5f21dc574226a06c76aae7060642a30eb74",
      "to": "0x313adf3fa3479f6bf5aedbc7949ee5e1213f20b7",
      "contractAddress": null,
      "gasUsedForL1": "0x755",
      "l1BlockNumber": "0x6e7207"
    },
    {
      "status": "0x1",
      "cumulativeGasUsed": "0x1d39c",
      "logs": [
        {
          "address": "0xf21b5d9574d84ef4c253132691d76f62fee4daab",
          "topics": [
            "0x8c5be1e5ebec7d5bd14f71427d1e84f3dd0314c0f7b2291e5b200ac8c7c3b925",
            "0x000000000000000000000000000ef5f21dc574226a06c76aae7060642a30eb74",
            "0x0000000000000000000000002298870db1fa24f3f6cc1fa0b2760ab7c1803bc1"
          ],
          "data": "0xffffffffffffffffffffffffffffffffffffffffffffffffffffffffffffffff",
          "blockHash": "0xb62bb6f144c81920c4dd95a98b0ccca16b3fc111b479c8e2545f5fd6421fbcb4",
          "blockNumber": "0x63fc616",
          "transactionHash": "0xd89f9b142c86de2395d9d4fc7987251fd9b33edd9fbb1bec9b507067fc4a4b56",
          "transactionIndex": "0x2",
          "logIndex": "0x2",
          "removed": false
        }
      ],
      "logsBloom": "0x00000000000000000000000000000000000000000000000000000000000000000000000000020000000000000000000000000000000000000000000000200000000000000000000000000000000000000000000000000040000000000000000000000000000000000000000400000000100000000000000000000000000000000000000000000000000000040000000000000000000000000000000000000000020000000800000000000000000000000000000008000000000000000000000000000000000000000000000000000000000000000000000000000000040000000010000000000000000000000000000000000000000100000000000000000000",
      "type": "0x2",
      "transactionHash": "0xd89f9b142c86de2395d9d4fc7987251fd9b33edd9fbb1bec9b507067fc4a4b56",
      "transactionIndex": "0x2",
      "blockHash": "0xb62bb6f144c81920c4dd95a98b0ccca16b3fc111b479c8e2545f5fd6421fbcb4",
      "blockNumber": "0x63fc616",
      "gasUsed": "0x7007",
      "effectiveGasPrice": "0x5f5e100",
      "from": "0x000ef5f21dc574226a06c76aae7060642a30eb74",
      "to": "0xf21b5d9574d84ef4c253132691d76f62fee4daab",
      "contractAddress": null,
      "gasUsedForL1": "0x755",
      "l1BlockNumber": "0x6e7207"
    },
    {
      "status": "0x1",
      "cumulativeGasUsed": "0x2c0c5",
      "logs": [
        {
          "address": "0x313adf3fa3479f6bf5aedbc7949ee5e1213f20b7",
          "topics": [
            "0x8c5be1e5ebec7d5bd14f71427d1e84f3dd0314c0f7b2291e5b200ac8c7c3b925",
            "0x000000000000000000000000000ef5f21dc574226a06c76aae7060642a30eb74",
            "0x0000000000000000000000001649883be9b0d4d83092cdb430c42e6d5c1b7cab"
          ],
          "data": "0xffffffffffffffffffffffffffffffffffffffffffffffffffffffffffffffff",
          "blockHash": "0x9b16a1bd49e853194f658a6e9a4e935e835f864fd1e433db5602f0d3921f52a0",
          "blockNumber": "0x63fc643",
          "transactionHash": "0x6f91c6eb0a9a1c47c432b18a0460e79aa6d518e7ca8d9d96585062e3512dd993",
          "transactionIndex": "0x2",
          "logIndex": "0x2",
          "removed": false
        }
      ],
      "logsBloom": "0x00000000000000000000000000000000000000000000000000000000000000000000000000020000000000000000000000000000000000000000000000200000000000000000000000000000000000000000000000000000000000000000000000000000000000000000000400000000000000000000000000000002000000000000000000000000000000000000000000000000000000000008000000004000020000000000000000000000000000000000000000000400000000000000000000000000000800000000000000000000000000000000000000000000040000000010000000000000000000000000000000000000000000000000000000080000",
      "type": "0x2",
      "transactionHash": "0x6f91c6eb0a9a1c47c432b18a0460e79aa6d518e7ca8d9d96585062e3512dd993",
      "transactionIndex": "0x2",
      "blockHash": "0x9b16a1bd49e853194f658a6e9a4e935e835f864fd1e433db5602f0d3921f52a0",
      "blockNumber": "0x63fc643",
      "gasUsed": "0x7007",
      "effectiveGasPrice": "0x5f5e100",
      "from": "0x000ef5f21dc574226a06c76aae7060642a30eb74",
      "to": "0x313adf3fa3479f6bf5aedbc7949ee5e1213f20b7",
      "contractAddress": null,
      "gasUsedForL1": "0x755",
      "l1BlockNumber": "0x6e7208"
    },
    {
      "status": "0x1",
      "cumulativeGasUsed": "0xe74bd",
      "logs": [
        {
          "address": "0xf21b5d9574d84ef4c253132691d76f62fee4daab",
          "topics": [
            "0x8c5be1e5ebec7d5bd14f71427d1e84f3dd0314c0f7b2291e5b200ac8c7c3b925",
            "0x000000000000000000000000000ef5f21dc574226a06c76aae7060642a30eb74",
            "0x0000000000000000000000001649883be9b0d4d83092cdb430c42e6d5c1b7cab"
          ],
          "data": "0xffffffffffffffffffffffffffffffffffffffffffffffffffffffffffffffff",
          "blockHash": "0xe3a2b23638686df4dc9ce12716367f3f0a30a617cf99144733ad86dbdd1fdd2a",
          "blockNumber": "0x63fc659",
          "transactionHash": "0x1dc66afcd05046ea1b4b5988e2a4c57890ba0115e2b940791f7d0184e9fff47d",
          "transactionIndex": "0x4",
          "logIndex": "0x3",
          "removed": false
        }
      ],
      "logsBloom": "0x00000000000000000000000000000000000000000000000000000000000000000000000000020000000000000000000000000000000000000000000000200000000000000000000000000000000000000000000000000040000000000000000000000000000000000000000400000000000000000000000000000000000000000000000000000000000000040000000000000000000000000008000000000000020000000000000000000000000000000000000008000400000000000000000000000000000800000000000000000000000000000000000000000000040000000010000000000000000000000000000000000000000000000000000000000000",
      "type": "0x2",
      "transactionHash": "0x1dc66afcd05046ea1b4b5988e2a4c57890ba0115e2b940791f7d0184e9fff47d",
      "transactionIndex": "0x4",
      "blockHash": "0xe3a2b23638686df4dc9ce12716367f3f0a30a617cf99144733ad86dbdd1fdd2a",
      "blockNumber": "0x63fc659",
      "gasUsed": "0x7007",
      "effectiveGasPrice": "0x5f5e100",
      "from": "0x000ef5f21dc574226a06c76aae7060642a30eb74",
      "to": "0xf21b5d9574d84ef4c253132691d76f62fee4daab",
      "contractAddress": null,
      "gasUsedForL1": "0x755",
      "l1BlockNumber": "0x6e7209"
    },
    {
      "status": "0x1",
      "cumulativeGasUsed": "0x40a52",
      "logs": [
        {
          "address": "0x313adf3fa3479f6bf5aedbc7949ee5e1213f20b7",
          "topics": [
            "0xddf252ad1be2c89b69c2b068fc378daa952ba7f163c4a11628f55a4df523b3ef",
            "0x0000000000000000000000000000000000000000000000000000000000000000",
            "0x000000000000000000000000000ef5f21dc574226a06c76aae7060642a30eb74"
          ],
          "data": "0x000000000000000000000000000000000000314dc6448d9338c15b0a00000000",
          "blockHash": "0xef187f118f68f099c197b402c3d7b3335f4681933ee004d6f5d1a151ae383d24",
          "blockNumber": "0x63fc65c",
          "transactionHash": "0x911e16fc75554ca99b3114fb751a1ba76cf22c8efe7191b4265af14d53778553",
          "transactionIndex": "0x3",
          "logIndex": "0x6",
          "removed": false
        }
      ],
      "logsBloom": "0x00000000000000000000000000000000000000000000000000000000000000000000000000020000000000000000000000000000000000000000000000000000000000000000000000000008000000000000000000000000000000000000000000000000020000000000000400000800000000000000000000000012000000000000000000000000000000000000000000000000000000000000000000004000000000000000000000000000000000000000000000000000000000000000000000000002000000000000000000000000000000000000000000000000040020000000000000000000000000000000000000000000000000000000000000080000",
      "type": "0x2",
      "transactionHash": "0x911e16fc75554ca99b3114fb751a1ba76cf22c8efe7191b4265af14d53778553",
      "transactionIndex": "0x3",
      "blockHash": "0xef187f118f68f099c197b402c3d7b3335f4681933ee004d6f5d1a151ae383d24",
      "blockNumber": "0x63fc65c",
      "gasUsed": "0x8d38",
      "effectiveGasPrice": "0x5f5e100",
      "from": "0x000ef5f21dc574226a06c76aae7060642a30eb74",
      "to": "0x313adf3fa3479f6bf5aedbc7949ee5e1213f20b7",
      "contractAddress": null,
      "gasUsedForL1": "0x755",
      "l1BlockNumber": "0x6e7209"
    },
    {
      "status": "0x1",
      "cumulativeGasUsed": "0x8d38",
      "logs": [
        {
          "address": "0xf21b5d9574d84ef4c253132691d76f62fee4daab",
          "topics": [
            "0xddf252ad1be2c89b69c2b068fc378daa952ba7f163c4a11628f55a4df523b3ef",
            "0x0000000000000000000000000000000000000000000000000000000000000000",
            "0x000000000000000000000000000ef5f21dc574226a06c76aae7060642a30eb74"
          ],
          "data": "0x000000000000000000000000000000000000314dc6448d9338c15b0a00000000",
          "blockHash": "0xe20b46e4e2a50d25d14182d81e29ef5ec7a54b2db60593e3b1da36654f903c21",
          "blockNumber": "0x63fc664",
          "transactionHash": "0x13897274726454b8debbe2ddf391b0b56989dfc4132d723c6c0cbbea36372fc5",
          "transactionIndex": "0x1",
          "logIndex": "0x0",
          "removed": false
        }
      ],
      "logsBloom": "0x00000000000000000000000000000000000000000000000000000000000000000000000000020000000000000000000000000000000000000000000000000000000000000000000000000008000000000000000000000040000000000000000000000000020000000000000400000800000000000000000000000010000000000000000000000000000000040000000000000000000000000000000000000000000000000000000000000000000000000000000008000000000000000000000000000002000000000000000000000000000000000000000000000000040020000000000000000000000000000000000000000000000000000000000000000000",
      "type": "0x2",
      "transactionHash": "0x13897274726454b8debbe2ddf391b0b56989dfc4132d723c6c0cbbea36372fc5",
      "transactionIndex": "0x1",
      "blockHash": "0xe20b46e4e2a50d25d14182d81e29ef5ec7a54b2db60593e3b1da36654f903c21",
      "blockNumber": "0x63fc664",
      "gasUsed": "0x8d38",
      "effectiveGasPrice": "0x5f5e100",
      "from": "0x000ef5f21dc574226a06c76aae7060642a30eb74",
      "to": "0xf21b5d9574d84ef4c253132691d76f62fee4daab",
      "contractAddress": null,
      "gasUsedForL1": "0x755",
      "l1BlockNumber": "0x6e7209"
    },
    {
      "status": "0x1",
      "cumulativeGasUsed": "0x20d57b",
      "logs": [],
      "logsBloom": "0x00000000000000000000000000000000000000000000000000000000000000000000000000000000000000000000000000000000000000000000000000000000000000000000000000000000000000000000000000000000000000000000000000000000000000000000000000000000000000000000000000000000000000000000000000000000000000000000000000000000000000000000000000000000000000000000000000000000000000000000000000000000000000000000000000000000000000000000000000000000000000000000000000000000000000000000000000000000000000000000000000000000000000000000000000000000",
      "type": "0x2",
      "transactionHash": "0xef75bdd1f2e11a2f65dd3a8d1f5852647cea5286eeb47e387f7eef1773f538e4",
      "transactionIndex": "0x9",
      "blockHash": "0xd98d5fa170bf84013a1bbbec14615cdf8779a719d59f3f9babfd5040a037303d",
      "blockNumber": "0x63fc667",
      "gasUsed": "0xcbffa",
      "effectiveGasPrice": "0x5f5e100",
      "from": "0x000ef5f21dc574226a06c76aae7060642a30eb74",
      "to": "0x4e59b44847b379578588920ca78fbf26c0b4956c",
      "contractAddress": null,
      "gasUsedForL1": "0x6187",
      "l1BlockNumber": "0x6e7209"
    },
    {
      "status": "0x1",
      "cumulativeGasUsed": "0xda23",
      "logs": [
        {
          "address": "0xc420c3a3f81f2a059ff56d45c0a82d1f9af38dcc",
          "topics": [
            "0xdd466e674ea557f56295e2d0218a125ea4b4f0f6f3307b95f85e6110838d6438",
            "0x92c60c05ed294a4acaa42cb231ba09b06e71b39bbb03e24689d939974962185b",
            "0x000000000000000000000000313adf3fa3479f6bf5aedbc7949ee5e1213f20b7",
            "0x000000000000000000000000f21b5d9574d84ef4c253132691d76f62fee4daab"
          ],
          "data": "0x0000000000000000000000000000000000000000000000000000000000000bb800000000000000000000000000000000000000000000000000000000000000780000000000000000000000008133de27b31fbf57c0de8f4d5a083b62c8d0804000000000000000000000000000000000000000010000000000000000000000000000000000000000000000000000000000000000000000000000000000000000",
          "blockHash": "0x834afb2ec3edff60322a150d944e259ae662f3a0f411a68951166df41b35e8f2",
          "blockNumber": "0x63fc66f",
          "transactionHash": "0xed795325757613bb9fc5ebb200699e91906001565f47764c5cfd8bbc40267b9b",
          "transactionIndex": "0x1",
          "logIndex": "0x0",
          "removed": false
        }
      ],
      "logsBloom": "0x00000000000000000000000000000000000000000000000001000000000000000000000000000000000000000000000000000000000000000000000000000800400000000000000000000000000000000000000000000000000000000000000000000000000000000000000001000000000000000000000000000000000000000000000000000008000000000000000000000001001000000000000000200000000000000000000020000040000000000000000000000000000000000000000000000000000000000000000000004000000000000000000010000000000000000000000000000000000000000000000000010000000000000001000002000000",
      "type": "0x2",
      "transactionHash": "0xed795325757613bb9fc5ebb200699e91906001565f47764c5cfd8bbc40267b9b",
      "transactionIndex": "0x1",
      "blockHash": "0x834afb2ec3edff60322a150d944e259ae662f3a0f411a68951166df41b35e8f2",
      "blockNumber": "0x63fc66f",
      "gasUsed": "0xda23",
      "effectiveGasPrice": "0x5f5e100",
      "from": "0x000ef5f21dc574226a06c76aae7060642a30eb74",
      "to": "0xc420c3a3f81f2a059ff56d45c0a82d1f9af38dcc",
      "contractAddress": null,
      "gasUsedForL1": "0xc24",
      "l1BlockNumber": "0x6e7209"
    },
    {
      "status": "0x1",
      "cumulativeGasUsed": "0x4188d",
      "logs": [
        {
          "address": "0xc420c3a3f81f2a059ff56d45c0a82d1f9af38dcc",
          "topics": [
            "0xf208f4912782fd25c7f114ca3723a2d5dd6f3bcc3ac8db5af63baa85f711d5ec",
            "0x92c60c05ed294a4acaa42cb231ba09b06e71b39bbb03e24689d939974962185b",
            "0x0000000000000000000000002298870db1fa24f3f6cc1fa0b2760ab7c1803bc1"
          ],
          "data": "0xffffffffffffffffffffffffffffffffffffffffffffffffffffffffffffff88000000000000000000000000000000000000000000000000000000000000007800000000000000000000000000000000000000000000021e19e0c9bab24000000000000000000000000000000000000000000000000000000000000000000000",
          "blockHash": "0xeb02ae51516795f11ffaebad1ee126ee0397f21e394f3ac9c62a1c6fa346dd47",
          "blockNumber": "0x63fc671",
          "transactionHash": "0x29377c3cf952097afc5c38c36196cc7a74c9c7b1b23337d46c1f48a058712eaa",
          "transactionIndex": "0x1",
          "logIndex": "0x0",
          "removed": false
        },
        {
          "address": "0x313adf3fa3479f6bf5aedbc7949ee5e1213f20b7",
          "topics": [
            "0xddf252ad1be2c89b69c2b068fc378daa952ba7f163c4a11628f55a4df523b3ef",
            "0x000000000000000000000000000ef5f21dc574226a06c76aae7060642a30eb74",
            "0x000000000000000000000000c420c3a3f81f2a059ff56d45c0a82d1f9af38dcc"
          ],
          "data": "0x0000000000000000000000000000000000000000000000033e2204017b30d746",
          "blockHash": "0xeb02ae51516795f11ffaebad1ee126ee0397f21e394f3ac9c62a1c6fa346dd47",
          "blockNumber": "0x63fc671",
          "transactionHash": "0x29377c3cf952097afc5c38c36196cc7a74c9c7b1b23337d46c1f48a058712eaa",
          "transactionIndex": "0x1",
          "logIndex": "0x1",
          "removed": false
        },
        {
          "address": "0xf21b5d9574d84ef4c253132691d76f62fee4daab",
          "topics": [
            "0xddf252ad1be2c89b69c2b068fc378daa952ba7f163c4a11628f55a4df523b3ef",
            "0x000000000000000000000000000ef5f21dc574226a06c76aae7060642a30eb74",
            "0x000000000000000000000000c420c3a3f81f2a059ff56d45c0a82d1f9af38dcc"
          ],
          "data": "0x0000000000000000000000000000000000000000000000033e2204017b30d746",
          "blockHash": "0xeb02ae51516795f11ffaebad1ee126ee0397f21e394f3ac9c62a1c6fa346dd47",
          "blockNumber": "0x63fc671",
          "transactionHash": "0x29377c3cf952097afc5c38c36196cc7a74c9c7b1b23337d46c1f48a058712eaa",
          "transactionIndex": "0x1",
          "logIndex": "0x2",
          "removed": false
        }
      ],
      "logsBloom": "0x00000000000000000000000000000000000000000000000001000000000000000000000000020000000000000000000000000000000000000000000000000000000000000000000000000008000000000000000000000040000000000000000000000000000000000000000401000000100000000000000000000012000000000000000801000000000000040000000000000000000000000000040000004000000004000800000000000040000000000000000008000000000000000000000000000002000000000000000000000000000000000000000000000000040000000000000000000000000000000000000004010000000100000001004002080000",
      "type": "0x2",
      "transactionHash": "0x29377c3cf952097afc5c38c36196cc7a74c9c7b1b23337d46c1f48a058712eaa",
      "transactionIndex": "0x1",
      "blockHash": "0xeb02ae51516795f11ffaebad1ee126ee0397f21e394f3ac9c62a1c6fa346dd47",
      "blockNumber": "0x63fc671",
      "gasUsed": "0x4188d",
      "effectiveGasPrice": "0x5f5e100",
      "from": "0x000ef5f21dc574226a06c76aae7060642a30eb74",
      "to": "0x2298870db1fa24f3f6cc1fa0b2760ab7c1803bc1",
      "contractAddress": null,
      "gasUsedForL1": "0xd57",
      "l1BlockNumber": "0x6e7209"
    }
  ],
  "libraries": [],
  "pending": [],
  "returns": {},
  "timestamp": 1733679345,
  "chain": 421614,
  "commit": "8476dd6"
}