{
  "transactions": [
    {
      "hash": "0xbee8811a51342fc8f6fa07e2e563846a5d8f23a9ebc6887a926174eeca72072d",
      "transactionType": "CALL",
      "contractName": null,
      "contractAddress": "0x313adf3fa3479f6bf5aedbc7949ee5e1213f20b7",
      "function": "approve(address,uint256)",
      "arguments": [
        "0x2298870DB1Fa24F3F6cc1fa0B2760AB7c1803bC1",
        "115792089237316195423570985008687907853269984665640564039457584007913129639935"
      ],
      "transaction": {
        "from": "0x000ef5f21dc574226a06c76aae7060642a30eb74",
        "to": "0x313adf3fa3479f6bf5aedbc7949ee5e1213f20b7",
        "gas": "0x8d47",
        "value": "0x0",
        "input": "0x095ea7b30000000000000000000000002298870db1fa24f3f6cc1fa0b2760ab7c1803bc1ffffffffffffffffffffffffffffffffffffffffffffffffffffffffffffffff",
        "nonce": "0x199",
        "chainId": "0x66eee"
      },
      "additionalContracts": [],
      "isFixedGasLimit": false
    },
    {
      "hash": "0xd58e40d387734f7ac36f459dda086a6e2b1ce71fc9888f25c1cae525b9535020",
      "transactionType": "CALL",
      "contractName": null,
      "contractAddress": "0xf21b5d9574d84ef4c253132691d76f62fee4daab",
      "function": "approve(address,uint256)",
      "arguments": [
        "0x2298870DB1Fa24F3F6cc1fa0B2760AB7c1803bC1",
        "115792089237316195423570985008687907853269984665640564039457584007913129639935"
      ],
      "transaction": {
        "from": "0x000ef5f21dc574226a06c76aae7060642a30eb74",
        "to": "0xf21b5d9574d84ef4c253132691d76f62fee4daab",
        "gas": "0x8d47",
        "value": "0x0",
        "input": "0x095ea7b30000000000000000000000002298870db1fa24f3f6cc1fa0b2760ab7c1803bc1ffffffffffffffffffffffffffffffffffffffffffffffffffffffffffffffff",
        "nonce": "0x19a",
        "chainId": "0x66eee"
      },
      "additionalContracts": [],
      "isFixedGasLimit": false
    },
    {
      "hash": "0x78e2d4b9818d9d2c0401a987608e43a5f06a50f62c84d95201bdda7ff332def0",
      "transactionType": "CALL",
      "contractName": null,
      "contractAddress": "0x313adf3fa3479f6bf5aedbc7949ee5e1213f20b7",
      "function": "approve(address,uint256)",
      "arguments": [
        "0x1649883be9b0d4D83092CDB430c42E6d5C1B7cAB",
        "115792089237316195423570985008687907853269984665640564039457584007913129639935"
      ],
      "transaction": {
        "from": "0x000ef5f21dc574226a06c76aae7060642a30eb74",
        "to": "0x313adf3fa3479f6bf5aedbc7949ee5e1213f20b7",
        "gas": "0x8d47",
        "value": "0x0",
        "input": "0x095ea7b30000000000000000000000001649883be9b0d4d83092cdb430c42e6d5c1b7cabffffffffffffffffffffffffffffffffffffffffffffffffffffffffffffffff",
        "nonce": "0x19b",
        "chainId": "0x66eee"
      },
      "additionalContracts": [],
      "isFixedGasLimit": false
    },
    {
      "hash": "0xb7c3af4be52ed39c3f8ad0a904c89bea64e1f09af6aa531efd0c57f43d2da4e0",
      "transactionType": "CALL",
      "contractName": null,
      "contractAddress": "0xf21b5d9574d84ef4c253132691d76f62fee4daab",
      "function": "approve(address,uint256)",
      "arguments": [
        "0x1649883be9b0d4D83092CDB430c42E6d5C1B7cAB",
        "115792089237316195423570985008687907853269984665640564039457584007913129639935"
      ],
      "transaction": {
        "from": "0x000ef5f21dc574226a06c76aae7060642a30eb74",
        "to": "0xf21b5d9574d84ef4c253132691d76f62fee4daab",
        "gas": "0x8d47",
        "value": "0x0",
        "input": "0x095ea7b30000000000000000000000001649883be9b0d4d83092cdb430c42e6d5c1b7cabffffffffffffffffffffffffffffffffffffffffffffffffffffffffffffffff",
        "nonce": "0x19c",
        "chainId": "0x66eee"
      },
      "additionalContracts": [],
      "isFixedGasLimit": false
    },
    {
      "hash": "0x389864cf6ab169729fca8658a4651afd2f69a640414ce6cb80956ec9f4513a53",
      "transactionType": "CALL",
      "contractName": null,
      "contractAddress": "0x313adf3fa3479f6bf5aedbc7949ee5e1213f20b7",
      "function": "mint(address,uint256)",
      "arguments": [
        "0x000ef5F21dC574226A06C76AAE7060642A30eB74",
        "1000000000000000000000000000000000"
      ],
      "transaction": {
        "from": "0x000ef5f21dc574226a06c76aae7060642a30eb74",
        "to": "0x313adf3fa3479f6bf5aedbc7949ee5e1213f20b7",
        "gas": "0xb34d",
        "value": "0x0",
        "input": "0x40c10f19000000000000000000000000000ef5f21dc574226a06c76aae7060642a30eb74000000000000000000000000000000000000314dc6448d9338c15b0a00000000",
        "nonce": "0x19d",
        "chainId": "0x66eee"
      },
      "additionalContracts": [],
      "isFixedGasLimit": false
    },
    {
      "hash": "0x310090a423342a21d44c61ade65f6a01b44ddc3a2cda16b2d5c8d0d69f26d432",
      "transactionType": "CALL",
      "contractName": null,
      "contractAddress": "0xf21b5d9574d84ef4c253132691d76f62fee4daab",
      "function": "mint(address,uint256)",
      "arguments": [
        "0x000ef5F21dC574226A06C76AAE7060642A30eB74",
        "1000000000000000000000000000000000"
      ],
      "transaction": {
        "from": "0x000ef5f21dc574226a06c76aae7060642a30eb74",
        "to": "0xf21b5d9574d84ef4c253132691d76f62fee4daab",
        "gas": "0xb34d",
        "value": "0x0",
        "input": "0x40c10f19000000000000000000000000000ef5f21dc574226a06c76aae7060642a30eb74000000000000000000000000000000000000314dc6448d9338c15b0a00000000",
        "nonce": "0x19e",
        "chainId": "0x66eee"
      },
      "additionalContracts": [],
      "isFixedGasLimit": false
    },
    {
      "hash": "0xde2ab45ba569626735594c9d424034f3dca112e77bfc23fc376f1f4a30633e9e",
      "transactionType": "CREATE2",
      "contractName": "RiskManagerHook",
      "contractAddress": "0xa461b2227971866c6d35386bff974903d247c088",
      "function": null,
      "arguments": [
        "0xc420C3A3F81f2A059fF56D45c0A82D1F9aF38dCc",
        "0x086CcAf62d35E15300f8719c950A90269F9d72C6"
      ],
      "transaction": {
        "from": "0x000ef5f21dc574226a06c76aae7060642a30eb74",
        "to": "0x4e59b44847b379578588920ca78fbf26c0b4956c",
        "gas": "0x114cee",
        "value": "0x0",
        "input": "0x00000000000000000000000000000000000000000000000000000000000040a960a060405234801561000f575f80fd5b506040516110e03803806110e083398101604081905261002e916102d7565b6001600160a01b038216608052816100453061006b565b505f80546001600160a01b0319166001600160a01b03929092169190911790555061030f565b61015b81610156604080516101c0810182525f80825260208201819052918101829052606081018290526080810182905260a0810182905260c0810182905260e08101829052610100810182905261012081018290526101408101829052610160810182905261018081018290526101a081019190915250604080516101c0810182525f80825260208201819052918101829052606081018290526080810182905260a08101829052600160c0820181905260e0820183905261010082018390526101208201839052610140820152610160810182905261018081018290526101a081019190915290565b61015e565b50565b80511515612000831615151415806101825750602081015115156110008316151514155b806101995750604081015115156108008316151514155b806101b05750606081015115156104008316151514155b806101c75750608081015115156102008316151514155b806101de575060a081015115156101008316151514155b806101f4575060c0810151151560808316151514155b8061020a575060e0810151151560408316151514155b806102215750610100810151151560208316151514155b806102385750610120810151151560108316151514155b8061024f5750610140810151151560088316151514155b806102665750610160810151151560048316151514155b8061027d5750610180810151151560028316151514155b8061029457506101a0810151151560018316151514155b156102aa576102aa630732d7b560e51b836102ae565b5050565b815f526001600160a01b03811660045260245ffd5b6001600160a01b038116811461015b575f80fd5b5f80604083850312156102e8575f80fd5b82516102f3816102c3565b6020840151909250610304816102c3565b809150509250929050565b608051610dab6103355f395f818161031b0152818161050a015261068e0152610dab5ff3fe608060405234801561000f575f80fd5b50600436106100e5575f3560e01c80639f063efc11610088578063c4e833ce11610063578063c4e833ce14610222578063dc4c90d314610316578063dc98354e1461033d578063e1b4af6914610214575f80fd5b80639f063efc14610182578063b47b2fb1146101e3578063b6a8b0fa14610214575f80fd5b8063575e24b4116100c3578063575e24b4146101445780636c2bbe7e146101825780636fe7e6eb146101b557806391dd7346146101c3575f80fd5b806321d0ee70146100e9578063259982e5146100e9578063478426631461011a575b5f80fd5b6100fc6100f73660046107fa565b61034b565b6040516001600160e01b031990911681526020015b60405180910390f35b5f5461012c906001600160a01b031681565b6040516001600160a01b039091168152602001610111565b610157610152366004610881565b610365565b604080516001600160e01b03199094168452602084019290925262ffffff1690820152606001610111565b6101956101903660046108db565b610666565b604080516001600160e01b03199093168352602083019190915201610111565b6100fc6100f7366004610966565b6101d66101d13660046109c5565b610681565b6040516101119190610a04565b6101f1610190366004610a39565b604080516001600160e01b03199093168352600f9190910b602083015201610111565b6100fc6100f7366004610aba565b610309604080516101c0810182525f80825260208201819052918101829052606081018290526080810182905260a0810182905260c0810182905260e08101829052610100810182905261012081018290526101408101829052610160810182905261018081018290526101a081019190915250604080516101c0810182525f80825260208201819052918101829052606081018290526080810182905260a08101829052600160c0820181905260e0820183905261010082018390526101208201839052610140820152610160810182905261018081018290526101a081019190915290565b6040516101119190610b14565b61012c7f000000000000000000000000000000000000000000000000000000000000000081565b6100fc6100f7366004610c35565b5f604051630a85dc2960e01b815260040160405180910390fd5b5f805f808660200135121561064b575f6103826020880188610c89565b61039b576103966040890160208a01610cab565b6103a8565b6103a86020890189610cab565b90505f6103b86020890189610c89565b6103ce576103c960208a018a610cab565b6103de565b6103de60408a0160208b01610cab565b90506020880135805f81126103f357816103fc565b6103fc82610cda565b91505f811261040b5780610414565b61041481610cda565b90505f806104248a8c018c610cf4565b5f54604051635ddb109d60e11b81526001600160a01b038085166004830152602482018490528a8116604483015260648201899052898116608483015260a48201889052939550919350919091169063bbb6213a9060c401602060405180830381865afa158015610497573d5f803e3d5ffd5b505050506040513d601f19601f820116820180604052508101906104bb9190610d1e565b6105e4575f6104cd60208e018e610c89565b6104e9578d60200160208101906104e49190610cab565b6104f6565b6104f660208f018f610cab565b90505f61050660208f0135610d39565b90507f00000000000000000000000000000000000000000000000000000000000000006001600160a01b031663156e29f630610551856001600160a01b03166001600160a01b031690565b6040516001600160e01b031960e085901b1681526001600160a01b03909216600483015260248201526fffffffffffffffffffffffffffffffff841660448201526064015f604051808303815f87803b1580156105ac575f80fd5b505af11580156105be573d5f803e3d5ffd5b506315d7892d60e21b92505050608082901b5f9a509a509a50505050505050505061065b565b604080516001600160a01b0384811682526020820184905288811682840152606082018790528716608082015260a0810185905290517fa21fea225ee7397ac225656944309b78664c4c3366c017790db86b2cd398f9e49181900360c00190a15050505050505b506315d7892d60e21b91505f9050805b955095509592505050565b5f80604051630a85dc2960e01b815260040160405180910390fd5b6060336001600160a01b037f000000000000000000000000000000000000000000000000000000000000000016146106cc5760405163570c108560e11b815260040160405180910390fd5b6106d683836106df565b90505b92915050565b60605f80306001600160a01b031685856040516106fd929190610d66565b5f604051808303815f865af19150503d805f8114610736576040519150601f19603f3d011682016040523d82523d5f602084013e61073b565b606091505b5091509150811561074f5791506106d99050565b80515f03610770576040516314815f4760e31b815260040160405180910390fd5b805160208201fd5b6001600160a01b038116811461078c575f80fd5b50565b5f60a0828403121561079f575f80fd5b50919050565b5f6080828403121561079f575f80fd5b5f8083601f8401126107c5575f80fd5b50813567ffffffffffffffff8111156107dc575f80fd5b6020830191508360208285010111156107f3575f80fd5b9250929050565b5f805f805f610160868803121561080f575f80fd5b853561081a81610778565b9450610829876020880161078f565b93506108388760c088016107a5565b925061014086013567ffffffffffffffff811115610854575f80fd5b610860888289016107b5565b969995985093965092949392505050565b5f6060828403121561079f575f80fd5b5f805f805f6101408688031215610896575f80fd5b85356108a181610778565b94506108b0876020880161078f565b93506108bf8760c08801610871565b925061012086013567ffffffffffffffff811115610854575f80fd5b5f805f805f805f6101a0888a0312156108f2575f80fd5b87356108fd81610778565b965061090c8960208a0161078f565b955061091b8960c08a016107a5565b94506101408801359350610160880135925061018088013567ffffffffffffffff811115610947575f80fd5b6109538a828b016107b5565b989b979a50959850939692959293505050565b5f805f80610100858703121561097a575f80fd5b843561098581610778565b9350610994866020870161078f565b925060c08501356109a481610778565b915060e0850135600281900b81146109ba575f80fd5b939692955090935050565b5f80602083850312156109d6575f80fd5b823567ffffffffffffffff8111156109ec575f80fd5b6109f8858286016107b5565b90969095509350505050565b602081525f82518060208401528060208501604085015e5f604082850101526040601f19601f83011684010191505092915050565b5f805f805f806101608789031215610a4f575f80fd5b8635610a5a81610778565b9550610a69886020890161078f565b9450610a788860c08901610871565b9350610120870135925061014087013567ffffffffffffffff811115610a9c575f80fd5b610aa889828a016107b5565b979a9699509497509295939492505050565b5f805f805f806101208789031215610ad0575f80fd5b8635610adb81610778565b9550610aea886020890161078f565b945060c0870135935060e0870135925061010087013567ffffffffffffffff811115610a9c575f80fd5b8151151581526101c081016020830151610b32602084018215159052565b506040830151610b46604084018215159052565b506060830151610b5a606084018215159052565b506080830151610b6e608084018215159052565b5060a0830151610b8260a084018215159052565b5060c0830151610b9660c084018215159052565b5060e0830151610baa60e084018215159052565b50610100830151610bc061010084018215159052565b50610120830151610bd661012084018215159052565b50610140830151610bec61014084018215159052565b50610160830151610c0261016084018215159052565b50610180830151610c1861018084018215159052565b506101a0830151610c2e6101a084018215159052565b5092915050565b5f805f60e08486031215610c47575f80fd5b8335610c5281610778565b9250610c61856020860161078f565b915060c0840135610c7181610778565b809150509250925092565b801515811461078c575f80fd5b5f60208284031215610c99575f80fd5b8135610ca481610c7c565b9392505050565b5f60208284031215610cbb575f80fd5b8135610ca481610778565b634e487b7160e01b5f52601160045260245ffd5b5f600160ff1b8201610cee57610cee610cc6565b505f0390565b5f8060408385031215610d05575f80fd5b8235610d1081610778565b946020939093013593505050565b5f60208284031215610d2e575f80fd5b8151610ca481610c7c565b5f81600f0b6f7fffffffffffffffffffffffffffffff198103610d5e57610d5e610cc6565b5f0392915050565b818382375f910190815291905056fea26469706673582212200c2f39385dd0001f79ab4d9ec37188a21e5d60f3a979fecfffa8f5e9f090471d64736f6c634300081a0033000000000000000000000000c420c3a3f81f2a059ff56d45c0a82d1f9af38dcc000000000000000000000000086ccaf62d35e15300f8719c950a90269f9d72c6",
        "nonce": "0x19f",
        "chainId": "0x66eee"
      },
      "additionalContracts": [],
      "isFixedGasLimit": false
    },
    {
      "hash": "0x4ed06f6f5334c2265055e43acee7eaa9ff5b14b487dc67c06749debfda944bf2",
      "transactionType": "CALL",
      "contractName": null,
      "contractAddress": "0xc420c3a3f81f2a059ff56d45c0a82d1f9af38dcc",
      "function": "initialize((address,address,uint24,int24,address),uint160)",
      "arguments": [
        "(0x313Adf3Fa3479F6Bf5aedBc7949EE5e1213F20B7, 0xf21B5d9574d84eF4c253132691D76F62FEE4Daab, 3000, 120, 0xA461b2227971866c6D35386bFf974903d247c088)",
        "79228162514264337593543950336"
      ],
      "transaction": {
        "from": "0x000ef5f21dc574226a06c76aae7060642a30eb74",
        "to": "0xc420c3a3f81f2a059ff56d45c0a82d1f9af38dcc",
        "gas": "0x11545",
        "value": "0x0",
        "input": "0x6276cbbe000000000000000000000000313adf3fa3479f6bf5aedbc7949ee5e1213f20b7000000000000000000000000f21b5d9574d84ef4c253132691d76f62fee4daab0000000000000000000000000000000000000000000000000000000000000bb80000000000000000000000000000000000000000000000000000000000000078000000000000000000000000a461b2227971866c6d35386bff974903d247c0880000000000000000000000000000000000000001000000000000000000000000",
        "nonce": "0x1a0",
        "chainId": "0x66eee"
      },
      "additionalContracts": [],
      "isFixedGasLimit": false
    },
    {
      "hash": "0xd8da6f1452951442491b9611a603b6f45b26ebe1d091aad7c33c5279bad2acc3",
      "transactionType": "CALL",
      "contractName": null,
      "contractAddress": "0x2298870db1fa24f3f6cc1fa0b2760ab7c1803bc1",
      "function": "modifyLiquidity((address,address,uint24,int24,address),(int24,int24,int256,bytes32),bytes)",
      "arguments": [
        "(0x313Adf3Fa3479F6Bf5aedBc7949EE5e1213F20B7, 0xf21B5d9574d84eF4c253132691D76F62FEE4Daab, 3000, 120, 0xA461b2227971866c6D35386bFf974903d247c088)",
        "(-120, 120, 10000000000000000000000, 0x0000000000000000000000000000000000000000000000000000000000000000)",
        "0x"
      ],
      "transaction": {
        "from": "0x000ef5f21dc574226a06c76aae7060642a30eb74",
        "to": "0x2298870db1fa24f3f6cc1fa0b2760ab7c1803bc1",
        "gas": "0x595e2",
        "value": "0x0",
        "input": "0x5a6bcfda000000000000000000000000313adf3fa3479f6bf5aedbc7949ee5e1213f20b7000000000000000000000000f21b5d9574d84ef4c253132691d76f62fee4daab0000000000000000000000000000000000000000000000000000000000000bb80000000000000000000000000000000000000000000000000000000000000078000000000000000000000000a461b2227971866c6d35386bff974903d247c088ffffffffffffffffffffffffffffffffffffffffffffffffffffffffffffff88000000000000000000000000000000000000000000000000000000000000007800000000000000000000000000000000000000000000021e19e0c9bab2400000000000000000000000000000000000000000000000000000000000000000000000000000000000000000000000000000000000000000000000000000000001400000000000000000000000000000000000000000000000000000000000000000",
        "nonce": "0x1a1",
        "chainId": "0x66eee"
      },
      "additionalContracts": [],
      "isFixedGasLimit": false
    }
  ],
  "receipts": [
    {
      "status": "0x1",
      "cumulativeGasUsed": "0x405ad",
      "logs": [
        {
          "address": "0x313adf3fa3479f6bf5aedbc7949ee5e1213f20b7",
          "topics": [
            "0x8c5be1e5ebec7d5bd14f71427d1e84f3dd0314c0f7b2291e5b200ac8c7c3b925",
            "0x000000000000000000000000000ef5f21dc574226a06c76aae7060642a30eb74",
            "0x0000000000000000000000002298870db1fa24f3f6cc1fa0b2760ab7c1803bc1"
          ],
          "data": "0xffffffffffffffffffffffffffffffffffffffffffffffffffffffffffffffff",
          "blockHash": "0x321cb35b8f144c200f16e22d96874039f66e8eec1c490cc08af98520f7bd9fbf",
          "blockNumber": "0x6406834",
          "transactionHash": "0xbee8811a51342fc8f6fa07e2e563846a5d8f23a9ebc6887a926174eeca72072d",
          "transactionIndex": "0x3",
          "logIndex": "0xd",
          "removed": false
        }
      ],
      "logsBloom": "0x00000000000000000000000000000000000000000000000000000000000000000000000000020000000000000000000000000000000000000000000000200000000000000000000000000000000000000000000000000000000000000000000000000000000000000000000400000000100000000000000000000002000000000000000000000000000000000000000000000000000000000000000000004000020000000800000000000000000000000000000000000000000000000000000000000000000000000000000000000000000000000000000000000000040000000010000000000000000000000000000000000000000100000000000000080000",
      "type": "0x2",
      "transactionHash": "0xbee8811a51342fc8f6fa07e2e563846a5d8f23a9ebc6887a926174eeca72072d",
      "transactionIndex": "0x3",
      "blockHash": "0x321cb35b8f144c200f16e22d96874039f66e8eec1c490cc08af98520f7bd9fbf",
      "blockNumber": "0x6406834",
      "gasUsed": "0x6ac0",
      "effectiveGasPrice": "0x5f5e100",
      "from": "0x000ef5f21dc574226a06c76aae7060642a30eb74",
      "to": "0x313adf3fa3479f6bf5aedbc7949ee5e1213f20b7",
      "contractAddress": null,
      "gasUsedForL1": "0x20e",
      "l1BlockNumber": "0x6e754d"
    },
    {
      "status": "0x1",
      "cumulativeGasUsed": "0x29b17",
      "logs": [
        {
          "address": "0xf21b5d9574d84ef4c253132691d76f62fee4daab",
          "topics": [
            "0x8c5be1e5ebec7d5bd14f71427d1e84f3dd0314c0f7b2291e5b200ac8c7c3b925",
            "0x000000000000000000000000000ef5f21dc574226a06c76aae7060642a30eb74",
            "0x0000000000000000000000002298870db1fa24f3f6cc1fa0b2760ab7c1803bc1"
          ],
          "data": "0xffffffffffffffffffffffffffffffffffffffffffffffffffffffffffffffff",
          "blockHash": "0x10d8c46e6964f79f7c305642391ccd053f154c66bbe9d98a572683e52cb0e7cb",
          "blockNumber": "0x6406838",
          "transactionHash": "0xd58e40d387734f7ac36f459dda086a6e2b1ce71fc9888f25c1cae525b9535020",
          "transactionIndex": "0x3",
          "logIndex": "0x3",
          "removed": false
        }
      ],
      "logsBloom": "0x00000000000000000000000000000000000000000000000000000000000000000000000000020000000000000000000000000000000000000000000000200000000000000000000000000000000000000000000000000040000000000000000000000000000000000000000400000000100000000000000000000000000000000000000000000000000000040000000000000000000000000000000000000000020000000800000000000000000000000000000008000000000000000000000000000000000000000000000000000000000000000000000000000000040000000010000000000000000000000000000000000000000100000000000000000000",
      "type": "0x2",
      "transactionHash": "0xd58e40d387734f7ac36f459dda086a6e2b1ce71fc9888f25c1cae525b9535020",
      "transactionIndex": "0x3",
      "blockHash": "0x10d8c46e6964f79f7c305642391ccd053f154c66bbe9d98a572683e52cb0e7cb",
      "blockNumber": "0x6406838",
      "gasUsed": "0x6ac0",
      "effectiveGasPrice": "0x5f5e100",
      "from": "0x000ef5f21dc574226a06c76aae7060642a30eb74",
      "to": "0xf21b5d9574d84ef4c253132691d76f62fee4daab",
      "contractAddress": null,
      "gasUsedForL1": "0x20e",
      "l1BlockNumber": "0x6e754d"
    },
    {
      "status": "0x1",
      "cumulativeGasUsed": "0x6ac0",
      "logs": [
        {
          "address": "0x313adf3fa3479f6bf5aedbc7949ee5e1213f20b7",
          "topics": [
            "0x8c5be1e5ebec7d5bd14f71427d1e84f3dd0314c0f7b2291e5b200ac8c7c3b925",
            "0x000000000000000000000000000ef5f21dc574226a06c76aae7060642a30eb74",
            "0x0000000000000000000000001649883be9b0d4d83092cdb430c42e6d5c1b7cab"
          ],
          "data": "0xffffffffffffffffffffffffffffffffffffffffffffffffffffffffffffffff",
          "blockHash": "0xf9ebc6dacc6f727fa5a863a30cd45255675ec45b1dd11ec4086768221a5cc59c",
          "blockNumber": "0x640683d",
          "transactionHash": "0x78e2d4b9818d9d2c0401a987608e43a5f06a50f62c84d95201bdda7ff332def0",
          "transactionIndex": "0x1",
          "logIndex": "0x0",
          "removed": false
        }
      ],
      "logsBloom": "0x00000000000000000000000000000000000000000000000000000000000000000000000000020000000000000000000000000000000000000000000000200000000000000000000000000000000000000000000000000000000000000000000000000000000000000000000400000000000000000000000000000002000000000000000000000000000000000000000000000000000000000008000000004000020000000000000000000000000000000000000000000400000000000000000000000000000800000000000000000000000000000000000000000000040000000010000000000000000000000000000000000000000000000000000000080000",
      "type": "0x2",
      "transactionHash": "0x78e2d4b9818d9d2c0401a987608e43a5f06a50f62c84d95201bdda7ff332def0",
      "transactionIndex": "0x1",
      "blockHash": "0xf9ebc6dacc6f727fa5a863a30cd45255675ec45b1dd11ec4086768221a5cc59c",
      "blockNumber": "0x640683d",
      "gasUsed": "0x6ac0",
      "effectiveGasPrice": "0x5f5e100",
      "from": "0x000ef5f21dc574226a06c76aae7060642a30eb74",
      "to": "0x313adf3fa3479f6bf5aedbc7949ee5e1213f20b7",
      "contractAddress": null,
      "gasUsedForL1": "0x20e",
      "l1BlockNumber": "0x6e754d"
    },
    {
      "status": "0x1",
      "cumulativeGasUsed": "0x13660",
      "logs": [
        {
          "address": "0xf21b5d9574d84ef4c253132691d76f62fee4daab",
          "topics": [
            "0x8c5be1e5ebec7d5bd14f71427d1e84f3dd0314c0f7b2291e5b200ac8c7c3b925",
            "0x000000000000000000000000000ef5f21dc574226a06c76aae7060642a30eb74",
            "0x0000000000000000000000001649883be9b0d4d83092cdb430c42e6d5c1b7cab"
          ],
          "data": "0xffffffffffffffffffffffffffffffffffffffffffffffffffffffffffffffff",
          "blockHash": "0xcd9cf55f25624c30ef846231db8d04a29f6424eaeaf4e551c3bb3adfaafcdf6b",
          "blockNumber": "0x640684d",
          "transactionHash": "0xb7c3af4be52ed39c3f8ad0a904c89bea64e1f09af6aa531efd0c57f43d2da4e0",
          "transactionIndex": "0x2",
          "logIndex": "0x1",
          "removed": false
        }
      ],
      "logsBloom": "0x00000000000000000000000000000000000000000000000000000000000000000000000000020000000000000000000000000000000000000000000000200000000000000000000000000000000000000000000000000040000000000000000000000000000000000000000400000000000000000000000000000000000000000000000000000000000000040000000000000000000000000008000000000000020000000000000000000000000000000000000008000400000000000000000000000000000800000000000000000000000000000000000000000000040000000010000000000000000000000000000000000000000000000000000000000000",
      "type": "0x2",
      "transactionHash": "0xb7c3af4be52ed39c3f8ad0a904c89bea64e1f09af6aa531efd0c57f43d2da4e0",
      "transactionIndex": "0x2",
      "blockHash": "0xcd9cf55f25624c30ef846231db8d04a29f6424eaeaf4e551c3bb3adfaafcdf6b",
      "blockNumber": "0x640684d",
      "gasUsed": "0x6ac0",
      "effectiveGasPrice": "0x5f5e100",
      "from": "0x000ef5f21dc574226a06c76aae7060642a30eb74",
      "to": "0xf21b5d9574d84ef4c253132691d76f62fee4daab",
      "contractAddress": null,
      "gasUsedForL1": "0x20e",
      "l1BlockNumber": "0x6e754d"
    },
    {
      "status": "0x1",
      "cumulativeGasUsed": "0x98992",
      "logs": [
        {
          "address": "0x313adf3fa3479f6bf5aedbc7949ee5e1213f20b7",
          "topics": [
            "0xddf252ad1be2c89b69c2b068fc378daa952ba7f163c4a11628f55a4df523b3ef",
            "0x0000000000000000000000000000000000000000000000000000000000000000",
            "0x000000000000000000000000000ef5f21dc574226a06c76aae7060642a30eb74"
          ],
          "data": "0x000000000000000000000000000000000000314dc6448d9338c15b0a00000000",
          "blockHash": "0x1612db7e5d412a3cbdedf7b7a0d86a0b0792c158b8bcf5f53e7c7388f9b73e63",
          "blockNumber": "0x640685b",
          "transactionHash": "0x389864cf6ab169729fca8658a4651afd2f69a640414ce6cb80956ec9f4513a53",
          "transactionIndex": "0x5",
          "logIndex": "0xb",
          "removed": false
        }
      ],
      "logsBloom": "0x00000000000000000000000000000000000000000000000000000000000000000000000000020000000000000000000000000000000000000000000000000000000000000000000000000008000000000000000000000000000000000000000000000000020000000000000400000800000000000000000000000012000000000000000000000000000000000000000000000000000000000000000000004000000000000000000000000000000000000000000000000000000000000000000000000002000000000000000000000000000000000000000000000000040020000000000000000000000000000000000000000000000000000000000000080000",
      "type": "0x2",
      "transactionHash": "0x389864cf6ab169729fca8658a4651afd2f69a640414ce6cb80956ec9f4513a53",
      "transactionIndex": "0x5",
      "blockHash": "0x1612db7e5d412a3cbdedf7b7a0d86a0b0792c158b8bcf5f53e7c7388f9b73e63",
      "blockNumber": "0x640685b",
      "gasUsed": "0x87f1",
      "effectiveGasPrice": "0x5f5e100",
      "from": "0x000ef5f21dc574226a06c76aae7060642a30eb74",
      "to": "0x313adf3fa3479f6bf5aedbc7949ee5e1213f20b7",
      "contractAddress": null,
      "gasUsedForL1": "0x20e",
      "l1BlockNumber": "0x6e754d"
    },
    {
      "status": "0x1",
      "cumulativeGasUsed": "0x87f1",
      "logs": [
        {
          "address": "0xf21b5d9574d84ef4c253132691d76f62fee4daab",
          "topics": [
            "0xddf252ad1be2c89b69c2b068fc378daa952ba7f163c4a11628f55a4df523b3ef",
            "0x0000000000000000000000000000000000000000000000000000000000000000",
            "0x000000000000000000000000000ef5f21dc574226a06c76aae7060642a30eb74"
          ],
          "data": "0x000000000000000000000000000000000000314dc6448d9338c15b0a00000000",
          "blockHash": "0x1a2c6dd1dc893db59186410a75c87e9081c27612a2108b08a0ead2e79efbed51",
          "blockNumber": "0x6406863",
          "transactionHash": "0x310090a423342a21d44c61ade65f6a01b44ddc3a2cda16b2d5c8d0d69f26d432",
          "transactionIndex": "0x1",
          "logIndex": "0x0",
          "removed": false
        }
      ],
      "logsBloom": "0x00000000000000000000000000000000000000000000000000000000000000000000000000020000000000000000000000000000000000000000000000000000000000000000000000000008000000000000000000000040000000000000000000000000020000000000000400000800000000000000000000000010000000000000000000000000000000040000000000000000000000000000000000000000000000000000000000000000000000000000000008000000000000000000000000000002000000000000000000000000000000000000000000000000040020000000000000000000000000000000000000000000000000000000000000000000",
      "type": "0x2",
      "transactionHash": "0x310090a423342a21d44c61ade65f6a01b44ddc3a2cda16b2d5c8d0d69f26d432",
      "transactionIndex": "0x1",
      "blockHash": "0x1a2c6dd1dc893db59186410a75c87e9081c27612a2108b08a0ead2e79efbed51",
      "blockNumber": "0x6406863",
      "gasUsed": "0x87f1",
      "effectiveGasPrice": "0x5f5e100",
      "from": "0x000ef5f21dc574226a06c76aae7060642a30eb74",
      "to": "0xf21b5d9574d84ef4c253132691d76f62fee4daab",
      "contractAddress": null,
      "gasUsedForL1": "0x20e",
      "l1BlockNumber": "0x6e754e"
    },
    {
      "status": "0x1",
      "cumulativeGasUsed": "0x115908",
      "logs": [],
      "logsBloom": "0x00000000000000000000000000000000000000000000000000000000000000000000000000000000000000000000000000000000000000000000000000000000000000000000000000000000000000000000000000000000000000000000000000000000000000000000000000000000000000000000000000000000000000000000000000000000000000000000000000000000000000000000000000000000000000000000000000000000000000000000000000000000000000000000000000000000000000000000000000000000000000000000000000000000000000000000000000000000000000000000000000000000000000000000000000000000",
      "type": "0x2",
      "transactionHash": "0xde2ab45ba569626735594c9d424034f3dca112e77bfc23fc376f1f4a30633e9e",
      "transactionIndex": "0x3",
      "blockHash": "0xe32d001e474056b44a796f7b489cf6edc9a9ae77f88c38e146ac577a8c3fa1c7",
      "blockNumber": "0x6406879",
      "gasUsed": "0xd0d14",
      "effectiveGasPrice": "0x5f5e100",
      "from": "0x000ef5f21dc574226a06c76aae7060642a30eb74",
      "to": "0x4e59b44847b379578588920ca78fbf26c0b4956c",
      "contractAddress": null,
      "gasUsedForL1": "0x1cc4",
      "l1BlockNumber": "0x6e754e"
    },
    {
      "status": "0x1",
      "cumulativeGasUsed": "0xd183",
      "logs": [
        {
          "address": "0xc420c3a3f81f2a059ff56d45c0a82d1f9af38dcc",
          "topics": [
            "0xdd466e674ea557f56295e2d0218a125ea4b4f0f6f3307b95f85e6110838d6438",
            "0x1067c50a6d773e2305bc057b1413e80403efce33028bdcc148e73c0e57974989",
            "0x000000000000000000000000313adf3fa3479f6bf5aedbc7949ee5e1213f20b7",
            "0x000000000000000000000000f21b5d9574d84ef4c253132691d76f62fee4daab"
          ],
          "data": "0x0000000000000000000000000000000000000000000000000000000000000bb80000000000000000000000000000000000000000000000000000000000000078000000000000000000000000a461b2227971866c6d35386bff974903d247c08800000000000000000000000000000000000000010000000000000000000000000000000000000000000000000000000000000000000000000000000000000000",
          "blockHash": "0xbb196f5bbe619dd3457374e9aebe5d9ffc0c1d7d850352add18b34f45f8af642",
          "blockNumber": "0x6406888",
          "transactionHash": "0x4ed06f6f5334c2265055e43acee7eaa9ff5b14b487dc67c06749debfda944bf2",
          "transactionIndex": "0x1",
          "logIndex": "0x0",
          "removed": false
        }
      ],
      "logsBloom": "0x00000000000000000000000000000000000000000000000001000000000000000000000000000000000000000000000000000000000000000000000000000800400000000000000000000000000000000000000000000000000000000000000000000000000000000000000001000000000000001000000000000000000000000000000000000008000000000000000000000001001000000000000000200000000000000000800020080040000000000000000000000000000000000000000000000000000000000000000000004000000000000000000010000000000000000000000000000000000000000000000000000000000000000000000000000000",
      "type": "0x2",
      "transactionHash": "0x4ed06f6f5334c2265055e43acee7eaa9ff5b14b487dc67c06749debfda944bf2",
      "transactionIndex": "0x1",
      "blockHash": "0xbb196f5bbe619dd3457374e9aebe5d9ffc0c1d7d850352add18b34f45f8af642",
      "blockNumber": "0x6406888",
      "gasUsed": "0xd183",
      "effectiveGasPrice": "0x5f5e100",
      "from": "0x000ef5f21dc574226a06c76aae7060642a30eb74",
      "to": "0xc420c3a3f81f2a059ff56d45c0a82d1f9af38dcc",
      "contractAddress": null,
      "gasUsedForL1": "0x384",
      "l1BlockNumber": "0x6e754e"
    },
    {
      "status": "0x1",
      "cumulativeGasUsed": "0xda129",
      "logs": [
        {
          "address": "0xc420c3a3f81f2a059ff56d45c0a82d1f9af38dcc",
          "topics": [
            "0xf208f4912782fd25c7f114ca3723a2d5dd6f3bcc3ac8db5af63baa85f711d5ec",
            "0x1067c50a6d773e2305bc057b1413e80403efce33028bdcc148e73c0e57974989",
            "0x0000000000000000000000002298870db1fa24f3f6cc1fa0b2760ab7c1803bc1"
          ],
          "data": "0xffffffffffffffffffffffffffffffffffffffffffffffffffffffffffffff88000000000000000000000000000000000000000000000000000000000000007800000000000000000000000000000000000000000000021e19e0c9bab24000000000000000000000000000000000000000000000000000000000000000000000",
          "blockHash": "0x70977d5cc82882d2e0d28e2d63e333f4296dd818386a48c746090af8f1576521",
          "blockNumber": "0x6406893",
          "transactionHash": "0xd8da6f1452951442491b9611a603b6f45b26ebe1d091aad7c33c5279bad2acc3",
          "transactionIndex": "0x3",
          "logIndex": "0x6",
          "removed": false
        },
        {
          "address": "0x313adf3fa3479f6bf5aedbc7949ee5e1213f20b7",
          "topics": [
            "0xddf252ad1be2c89b69c2b068fc378daa952ba7f163c4a11628f55a4df523b3ef",
            "0x000000000000000000000000000ef5f21dc574226a06c76aae7060642a30eb74",
            "0x000000000000000000000000c420c3a3f81f2a059ff56d45c0a82d1f9af38dcc"
          ],
          "data": "0x0000000000000000000000000000000000000000000000033e2204017b30d746",
          "blockHash": "0x70977d5cc82882d2e0d28e2d63e333f4296dd818386a48c746090af8f1576521",
          "blockNumber": "0x6406893",
          "transactionHash": "0xd8da6f1452951442491b9611a603b6f45b26ebe1d091aad7c33c5279bad2acc3",
          "transactionIndex": "0x3",
          "logIndex": "0x7",
          "removed": false
        },
        {
          "address": "0xf21b5d9574d84ef4c253132691d76f62fee4daab",
          "topics": [
            "0xddf252ad1be2c89b69c2b068fc378daa952ba7f163c4a11628f55a4df523b3ef",
            "0x000000000000000000000000000ef5f21dc574226a06c76aae7060642a30eb74",
            "0x000000000000000000000000c420c3a3f81f2a059ff56d45c0a82d1f9af38dcc"
          ],
          "data": "0x0000000000000000000000000000000000000000000000033e2204017b30d746",
          "blockHash": "0x70977d5cc82882d2e0d28e2d63e333f4296dd818386a48c746090af8f1576521",
          "blockNumber": "0x6406893",
          "transactionHash": "0xd8da6f1452951442491b9611a603b6f45b26ebe1d091aad7c33c5279bad2acc3",
          "transactionIndex": "0x3",
          "logIndex": "0x8",
          "removed": false
        }
      ],
      "logsBloom": "0x00000000000000000000000000000000000000000000000001000000000000000000000000020000000000000000000000000000000000000000000000000000000000000000000000000008000000000000000000000040000000000000000000000000000000000000000401000000100000001000000000000012000000000000000801000000000000040000000000000000000000000000040000004000000004000800800000080040000000000000000008000000000000000000000000000002000000000000000000000000000000000000000000000000040000000000000000000000000000000000000004000000000100000000004000080000",
      "type": "0x2",
      "transactionHash": "0xd8da6f1452951442491b9611a603b6f45b26ebe1d091aad7c33c5279bad2acc3",
      "transactionIndex": "0x3",
      "blockHash": "0x70977d5cc82882d2e0d28e2d63e333f4296dd818386a48c746090af8f1576521",
      "blockNumber": "0x6406893",
      "gasUsed": "0x40f0d",
      "effectiveGasPrice": "0x5f5e100",
      "from": "0x000ef5f21dc574226a06c76aae7060642a30eb74",
      "to": "0x2298870db1fa24f3f6cc1fa0b2760ab7c1803bc1",
      "contractAddress": null,
      "gasUsedForL1": "0x3d7",
      "l1BlockNumber": "0x6e754e"
    }
  ],
  "libraries": [],
  "pending": [],
  "returns": {},
  "timestamp": 1733689854,
  "chain": 421614,
  "commit": "8476dd6"
}