{
  "transactions": [
    {
      "hash": "0xff4cde16cbc712096c11f93651aaf22c4485cb3b67591ff9a4115570da1a097c",
      "transactionType": "CALL",
      "contractName": null,
      "contractAddress": "0x313adf3fa3479f6bf5aedbc7949ee5e1213f20b7",
      "function": "approve(address,uint256)",
      "arguments": [
        "0x2298870DB1Fa24F3F6cc1fa0B2760AB7c1803bC1",
        "115792089237316195423570985008687907853269984665640564039457584007913129639935"
      ],
      "transaction": {
        "from": "0x000ef5f21dc574226a06c76aae7060642a30eb74",
        "to": "0x313adf3fa3479f6bf5aedbc7949ee5e1213f20b7",
        "gas": "0x8b13",
        "value": "0x0",
        "input": "0x095ea7b30000000000000000000000002298870db1fa24f3f6cc1fa0b2760ab7c1803bc1ffffffffffffffffffffffffffffffffffffffffffffffffffffffffffffffff",
        "nonce": "0x1a3",
        "chainId": "0x66eee"
      },
      "additionalContracts": [],
      "isFixedGasLimit": false
    },
    {
      "hash": "0x602ac9bf81bc98932a1ad5bb336357221d761e54e3837c0312c5bba643ab09cd",
      "transactionType": "CALL",
      "contractName": null,
      "contractAddress": "0xf21b5d9574d84ef4c253132691d76f62fee4daab",
      "function": "approve(address,uint256)",
      "arguments": [
        "0x2298870DB1Fa24F3F6cc1fa0B2760AB7c1803bC1",
        "115792089237316195423570985008687907853269984665640564039457584007913129639935"
      ],
      "transaction": {
        "from": "0x000ef5f21dc574226a06c76aae7060642a30eb74",
        "to": "0xf21b5d9574d84ef4c253132691d76f62fee4daab",
        "gas": "0x8b13",
        "value": "0x0",
        "input": "0x095ea7b30000000000000000000000002298870db1fa24f3f6cc1fa0b2760ab7c1803bc1ffffffffffffffffffffffffffffffffffffffffffffffffffffffffffffffff",
        "nonce": "0x1a4",
        "chainId": "0x66eee"
      },
      "additionalContracts": [],
      "isFixedGasLimit": false
    },
    {
      "hash": "0x1a23df68e737cef016688fae295751301340dd70fac48f580a1703ad12261f34",
      "transactionType": "CALL",
      "contractName": null,
      "contractAddress": "0x313adf3fa3479f6bf5aedbc7949ee5e1213f20b7",
      "function": "approve(address,uint256)",
      "arguments": [
        "0x1649883be9b0d4D83092CDB430c42E6d5C1B7cAB",
        "115792089237316195423570985008687907853269984665640564039457584007913129639935"
      ],
      "transaction": {
        "from": "0x000ef5f21dc574226a06c76aae7060642a30eb74",
        "to": "0x313adf3fa3479f6bf5aedbc7949ee5e1213f20b7",
        "gas": "0x8b13",
        "value": "0x0",
        "input": "0x095ea7b30000000000000000000000001649883be9b0d4d83092cdb430c42e6d5c1b7cabffffffffffffffffffffffffffffffffffffffffffffffffffffffffffffffff",
        "nonce": "0x1a5",
        "chainId": "0x66eee"
      },
      "additionalContracts": [],
      "isFixedGasLimit": false
    },
    {
      "hash": "0x38c81aaedc7ffbc666b8c0ba982640855458ee7567ef5f158eb29be3cb8f5c65",
      "transactionType": "CALL",
      "contractName": null,
      "contractAddress": "0xf21b5d9574d84ef4c253132691d76f62fee4daab",
      "function": "approve(address,uint256)",
      "arguments": [
        "0x1649883be9b0d4D83092CDB430c42E6d5C1B7cAB",
        "115792089237316195423570985008687907853269984665640564039457584007913129639935"
      ],
      "transaction": {
        "from": "0x000ef5f21dc574226a06c76aae7060642a30eb74",
        "to": "0xf21b5d9574d84ef4c253132691d76f62fee4daab",
        "gas": "0x8b13",
        "value": "0x0",
        "input": "0x095ea7b30000000000000000000000001649883be9b0d4d83092cdb430c42e6d5c1b7cabffffffffffffffffffffffffffffffffffffffffffffffffffffffffffffffff",
        "nonce": "0x1a6",
        "chainId": "0x66eee"
      },
      "additionalContracts": [],
      "isFixedGasLimit": false
    },
    {
      "hash": "0x177883883b35698fe7e3b7ca7d7664ae4b70fb4d0e4cc570fe6030150eaa6797",
      "transactionType": "CALL",
      "contractName": null,
      "contractAddress": "0x313adf3fa3479f6bf5aedbc7949ee5e1213f20b7",
      "function": "mint(address,uint256)",
      "arguments": [
        "0x000ef5F21dC574226A06C76AAE7060642A30eB74",
        "1000000000000000000000000000000000"
      ],
      "transaction": {
        "from": "0x000ef5f21dc574226a06c76aae7060642a30eb74",
        "to": "0x313adf3fa3479f6bf5aedbc7949ee5e1213f20b7",
        "gas": "0xb119",
        "value": "0x0",
        "input": "0x40c10f19000000000000000000000000000ef5f21dc574226a06c76aae7060642a30eb74000000000000000000000000000000000000314dc6448d9338c15b0a00000000",
        "nonce": "0x1a7",
        "chainId": "0x66eee"
      },
      "additionalContracts": [],
      "isFixedGasLimit": false
    },
    {
      "hash": "0xa12811363f82aca0b037bc8ed1d567c387c7f0741f9fdd8927bfffa947718e75",
      "transactionType": "CALL",
      "contractName": null,
      "contractAddress": "0xf21b5d9574d84ef4c253132691d76f62fee4daab",
      "function": "mint(address,uint256)",
      "arguments": [
        "0x000ef5F21dC574226A06C76AAE7060642A30eB74",
        "1000000000000000000000000000000000"
      ],
      "transaction": {
        "from": "0x000ef5f21dc574226a06c76aae7060642a30eb74",
        "to": "0xf21b5d9574d84ef4c253132691d76f62fee4daab",
        "gas": "0xb119",
        "value": "0x0",
        "input": "0x40c10f19000000000000000000000000000ef5f21dc574226a06c76aae7060642a30eb74000000000000000000000000000000000000314dc6448d9338c15b0a00000000",
        "nonce": "0x1a8",
        "chainId": "0x66eee"
      },
      "additionalContracts": [],
      "isFixedGasLimit": false
    },
    {
      "hash": "0x43849cefff3db0c005951d73f56757eb47fa675604fbf53b3f2ea1a44d79ad02",
      "transactionType": "CREATE2",
      "contractName": "RiskManagerHook",
      "contractAddress": "0x46da141d7c712824c04ab1d3216c8368860f0088",
      "function": null,
      "arguments": [
        "0xc420C3A3F81f2A059fF56D45c0A82D1F9aF38dCc",
        "0x086CcAf62d35E15300f8719c950A90269F9d72C6"
      ],
      "transaction": {
        "from": "0x000ef5f21dc574226a06c76aae7060642a30eb74",
        "to": "0x4e59b44847b379578588920ca78fbf26c0b4956c",
        "gas": "0xfcd69",
        "value": "0x0",
        "input": "0x000000000000000000000000000000000000000000000000000000000000058160a060405234801561000f575f80fd5b50604051610f9a380380610f9a83398101604081905261002e916102d7565b6001600160a01b038216608052816100453061006b565b505f80546001600160a01b0319166001600160a01b03929092169190911790555061030f565b61015b81610156604080516101c0810182525f80825260208201819052918101829052606081018290526080810182905260a0810182905260c0810182905260e08101829052610100810182905261012081018290526101408101829052610160810182905261018081018290526101a081019190915250604080516101c0810182525f80825260208201819052918101829052606081018290526080810182905260a08101829052600160c0820181905260e0820183905261010082018390526101208201839052610140820152610160810182905261018081018290526101a081019190915290565b61015e565b50565b80511515612000831615151415806101825750602081015115156110008316151514155b806101995750604081015115156108008316151514155b806101b05750606081015115156104008316151514155b806101c75750608081015115156102008316151514155b806101de575060a081015115156101008316151514155b806101f4575060c0810151151560808316151514155b8061020a575060e0810151151560408316151514155b806102215750610100810151151560208316151514155b806102385750610120810151151560108316151514155b8061024f5750610140810151151560088316151514155b806102665750610160810151151560048316151514155b8061027d5750610180810151151560028316151514155b8061029457506101a0810151151560018316151514155b156102aa576102aa630732d7b560e51b836102ae565b5050565b815f526001600160a01b03811660045260245ffd5b6001600160a01b038116811461015b575f80fd5b5f80604083850312156102e8575f80fd5b82516102f3816102c3565b6020840151909250610304816102c3565b809150509250929050565b608051610c6c61032e5f395f818161031b01526105840152610c6c5ff3fe608060405234801561000f575f80fd5b50600436106100e5575f3560e01c80639f063efc11610088578063c4e833ce11610063578063c4e833ce14610222578063dc4c90d314610316578063dc98354e1461033d578063e1b4af6914610214575f80fd5b80639f063efc14610182578063b47b2fb1146101e3578063b6a8b0fa14610214575f80fd5b8063575e24b4116100c3578063575e24b4146101445780636c2bbe7e146101825780636fe7e6eb146101b557806391dd7346146101c3575f80fd5b806321d0ee70146100e9578063259982e5146100e9578063478426631461011a575b5f80fd5b6100fc6100f73660046106f0565b61034b565b6040516001600160e01b031990911681526020015b60405180910390f35b5f5461012c906001600160a01b031681565b6040516001600160a01b039091168152602001610111565b610157610152366004610777565b610365565b604080516001600160e01b03199094168452602084019290925262ffffff1690820152606001610111565b6101956101903660046107d1565b61055c565b604080516001600160e01b03199093168352602083019190915201610111565b6100fc6100f736600461085c565b6101d66101d13660046108bb565b610577565b60405161011191906108fa565b6101f161019036600461092f565b604080516001600160e01b03199093168352600f9190910b602083015201610111565b6100fc6100f73660046109b0565b610309604080516101c0810182525f80825260208201819052918101829052606081018290526080810182905260a0810182905260c0810182905260e08101829052610100810182905261012081018290526101408101829052610160810182905261018081018290526101a081019190915250604080516101c0810182525f80825260208201819052918101829052606081018290526080810182905260a08101829052600160c0820181905260e0820183905261010082018390526101208201839052610140820152610160810182905261018081018290526101a081019190915290565b6040516101119190610a0a565b61012c7f000000000000000000000000000000000000000000000000000000000000000081565b6100fc6100f7366004610b2b565b5f604051630a85dc2960e01b815260040160405180910390fd5b5f805f8086602001351215610541575f6103826020880188610b7f565b61039b576103966040890160208a01610ba1565b6103a8565b6103a86020890189610ba1565b90505f6103b86020890189610b7f565b6103ce576103c960208a018a610ba1565b6103de565b6103de60408a0160208b01610ba1565b90506020880135805f81126103f357816103fc565b6103fc82610bbc565b91505f811261040b5780610414565b61041481610bbc565b90505f806104248a8c018c610be2565b5f54604051635ddb109d60e11b81526001600160a01b038085166004830152602482018490528a8116604483015260648201899052898116608483015260a48201889052939550919350919091169063bbb6213a9060c401602060405180830381865afa158015610497573d5f803e3d5ffd5b505050506040513d601f19601f820116820180604052508101906104bb9190610c0c565b6104da576315d7892d60e21b5f80985098509850505050505050610551565b604080516001600160a01b0384811682526020820184905288811682840152606082018790528716608082015260a0810185905290517fa21fea225ee7397ac225656944309b78664c4c3366c017790db86b2cd398f9e49181900360c00190a15050505050505b506315d7892d60e21b91505f9050805b955095509592505050565b5f80604051630a85dc2960e01b815260040160405180910390fd5b6060336001600160a01b037f000000000000000000000000000000000000000000000000000000000000000016146105c25760405163570c108560e11b815260040160405180910390fd5b6105cc83836105d5565b90505b92915050565b60605f80306001600160a01b031685856040516105f3929190610c27565b5f604051808303815f865af19150503d805f811461062c576040519150601f19603f3d011682016040523d82523d5f602084013e610631565b606091505b509150915081156106455791506105cf9050565b80515f03610666576040516314815f4760e31b815260040160405180910390fd5b805160208201fd5b6001600160a01b0381168114610682575f80fd5b50565b5f60a08284031215610695575f80fd5b50919050565b5f60808284031215610695575f80fd5b5f8083601f8401126106bb575f80fd5b50813567ffffffffffffffff8111156106d2575f80fd5b6020830191508360208285010111156106e9575f80fd5b9250929050565b5f805f805f6101608688031215610705575f80fd5b85356107108161066e565b945061071f8760208801610685565b935061072e8760c0880161069b565b925061014086013567ffffffffffffffff81111561074a575f80fd5b610756888289016106ab565b969995985093965092949392505050565b5f60608284031215610695575f80fd5b5f805f805f610140868803121561078c575f80fd5b85356107978161066e565b94506107a68760208801610685565b93506107b58760c08801610767565b925061012086013567ffffffffffffffff81111561074a575f80fd5b5f805f805f805f6101a0888a0312156107e8575f80fd5b87356107f38161066e565b96506108028960208a01610685565b95506108118960c08a0161069b565b94506101408801359350610160880135925061018088013567ffffffffffffffff81111561083d575f80fd5b6108498a828b016106ab565b989b979a50959850939692959293505050565b5f805f806101008587031215610870575f80fd5b843561087b8161066e565b935061088a8660208701610685565b925060c085013561089a8161066e565b915060e0850135600281900b81146108b0575f80fd5b939692955090935050565b5f80602083850312156108cc575f80fd5b823567ffffffffffffffff8111156108e2575f80fd5b6108ee858286016106ab565b90969095509350505050565b602081525f82518060208401528060208501604085015e5f604082850101526040601f19601f83011684010191505092915050565b5f805f805f806101608789031215610945575f80fd5b86356109508161066e565b955061095f8860208901610685565b945061096e8860c08901610767565b9350610120870135925061014087013567ffffffffffffffff811115610992575f80fd5b61099e89828a016106ab565b979a9699509497509295939492505050565b5f805f805f8061012087890312156109c6575f80fd5b86356109d18161066e565b95506109e08860208901610685565b945060c0870135935060e0870135925061010087013567ffffffffffffffff811115610992575f80fd5b8151151581526101c081016020830151610a28602084018215159052565b506040830151610a3c604084018215159052565b506060830151610a50606084018215159052565b506080830151610a64608084018215159052565b5060a0830151610a7860a084018215159052565b5060c0830151610a8c60c084018215159052565b5060e0830151610aa060e084018215159052565b50610100830151610ab661010084018215159052565b50610120830151610acc61012084018215159052565b50610140830151610ae261014084018215159052565b50610160830151610af861016084018215159052565b50610180830151610b0e61018084018215159052565b506101a0830151610b246101a084018215159052565b5092915050565b5f805f60e08486031215610b3d575f80fd5b8335610b488161066e565b9250610b578560208601610685565b915060c0840135610b678161066e565b809150509250925092565b8015158114610682575f80fd5b5f60208284031215610b8f575f80fd5b8135610b9a81610b72565b9392505050565b5f60208284031215610bb1575f80fd5b8135610b9a8161066e565b5f600160ff1b8201610bdc57634e487b7160e01b5f52601160045260245ffd5b505f0390565b5f8060408385031215610bf3575f80fd5b8235610bfe8161066e565b946020939093013593505050565b5f60208284031215610c1c575f80fd5b8151610b9a81610b72565b818382375f910190815291905056fea2646970667358221220a1abebcb4aa5d9af059eeaef146b14b785f453851c817ab27e70192f72f1933864736f6c634300081a0033000000000000000000000000c420c3a3f81f2a059ff56d45c0a82d1f9af38dcc000000000000000000000000086ccaf62d35e15300f8719c950a90269f9d72c6",
        "nonce": "0x1a9",
        "chainId": "0x66eee"
      },
      "additionalContracts": [],
      "isFixedGasLimit": false
    },
    {
      "hash": "0xe9946558afb25259c5dbfd49a65e7a3b9c8eaf9c0b41955e8857e75b5b1ded15",
      "transactionType": "CALL",
      "contractName": null,
      "contractAddress": "0xc420c3a3f81f2a059ff56d45c0a82d1f9af38dcc",
      "function": "initialize((address,address,uint24,int24,address),uint160)",
      "arguments": [
        "(0x313Adf3Fa3479F6Bf5aedBc7949EE5e1213F20B7, 0xf21B5d9574d84eF4c253132691D76F62FEE4Daab, 3000, 120, 0x46da141D7c712824c04Ab1d3216C8368860f0088)",
        "79228162514264337593543950336"
      ],
      "transaction": {
        "from": "0x000ef5f21dc574226a06c76aae7060642a30eb74",
        "to": "0xc420c3a3f81f2a059ff56d45c0a82d1f9af38dcc",
        "gas": "0x111bc",
        "value": "0x0",
        "input": "0x6276cbbe000000000000000000000000313adf3fa3479f6bf5aedbc7949ee5e1213f20b7000000000000000000000000f21b5d9574d84ef4c253132691d76f62fee4daab0000000000000000000000000000000000000000000000000000000000000bb8000000000000000000000000000000000000000000000000000000000000007800000000000000000000000046da141d7c712824c04ab1d3216c8368860f00880000000000000000000000000000000000000001000000000000000000000000",
        "nonce": "0x1aa",
        "chainId": "0x66eee"
      },
      "additionalContracts": [],
      "isFixedGasLimit": false
    },
    {
      "hash": "0xa9b21e0d02ca2b502a8ba6692a92896e8fa9d2dfdf7c2302817910d35cf7d6c3",
      "transactionType": "CALL",
      "contractName": null,
      "contractAddress": "0x2298870db1fa24f3f6cc1fa0b2760ab7c1803bc1",
      "function": "modifyLiquidity((address,address,uint24,int24,address),(int24,int24,int256,bytes32),bytes)",
      "arguments": [
        "(0x313Adf3Fa3479F6Bf5aedBc7949EE5e1213F20B7, 0xf21B5d9574d84eF4c253132691D76F62FEE4Daab, 3000, 120, 0x46da141D7c712824c04Ab1d3216C8368860f0088)",
        "(-120, 120, 10000000000000000000000, 0x0000000000000000000000000000000000000000000000000000000000000000)",
        "0x"
      ],
      "transaction": {
        "from": "0x000ef5f21dc574226a06c76aae7060642a30eb74",
        "to": "0x2298870db1fa24f3f6cc1fa0b2760ab7c1803bc1",
        "gas": "0x5e9ed",
        "value": "0x0",
        "input": "0x5a6bcfda000000000000000000000000313adf3fa3479f6bf5aedbc7949ee5e1213f20b7000000000000000000000000f21b5d9574d84ef4c253132691d76f62fee4daab0000000000000000000000000000000000000000000000000000000000000bb8000000000000000000000000000000000000000000000000000000000000007800000000000000000000000046da141d7c712824c04ab1d3216c8368860f0088ffffffffffffffffffffffffffffffffffffffffffffffffffffffffffffff88000000000000000000000000000000000000000000000000000000000000007800000000000000000000000000000000000000000000021e19e0c9bab2400000000000000000000000000000000000000000000000000000000000000000000000000000000000000000000000000000000000000000000000000000000001400000000000000000000000000000000000000000000000000000000000000000",
        "nonce": "0x1ab",
        "chainId": "0x66eee"
      },
      "additionalContracts": [],
      "isFixedGasLimit": false
    }
  ],
  "receipts": [
    {
      "status": "0x1",
      "cumulativeGasUsed": "0x18e3a",
      "logs": [
        {
          "address": "0x313adf3fa3479f6bf5aedbc7949ee5e1213f20b7",
          "topics": [
            "0x8c5be1e5ebec7d5bd14f71427d1e84f3dd0314c0f7b2291e5b200ac8c7c3b925",
            "0x000000000000000000000000000ef5f21dc574226a06c76aae7060642a30eb74",
            "0x0000000000000000000000002298870db1fa24f3f6cc1fa0b2760ab7c1803bc1"
          ],
          "data": "0xffffffffffffffffffffffffffffffffffffffffffffffffffffffffffffffff",
          "blockHash": "0x7fc4c463fd4e36c753ec7e3a5fbee3f27c6b51e29d7b91eb1deeafe3fe90142a",
          "blockNumber": "0x64073fc",
          "transactionHash": "0xff4cde16cbc712096c11f93651aaf22c4485cb3b67591ff9a4115570da1a097c",
          "transactionIndex": "0x2",
          "logIndex": "0x1",
          "removed": false
        }
      ],
      "logsBloom": "0x00000000000000000000000000000000000000000000000000000000000000000000000000020000000000000000000000000000000000000000000000200000000000000000000000000000000000000000000000000000000000000000000000000000000000000000000400000000100000000000000000000002000000000000000000000000000000000000000000000000000000000000000000004000020000000800000000000000000000000000000000000000000000000000000000000000000000000000000000000000000000000000000000000000040000000010000000000000000000000000000000000000000100000000000000080000",
      "type": "0x2",
      "transactionHash": "0xff4cde16cbc712096c11f93651aaf22c4485cb3b67591ff9a4115570da1a097c",
      "transactionIndex": "0x2",
      "blockHash": "0x7fc4c463fd4e36c753ec7e3a5fbee3f27c6b51e29d7b91eb1deeafe3fe90142a",
      "blockNumber": "0x64073fc",
      "gasUsed": "0x696e",
      "effectiveGasPrice": "0x5f5e100",
      "from": "0x000ef5f21dc574226a06c76aae7060642a30eb74",
      "to": "0x313adf3fa3479f6bf5aedbc7949ee5e1213f20b7",
      "contractAddress": null,
      "gasUsedForL1": "0xbc",
      "l1BlockNumber": "0x6e758b"
    },
    {
      "status": "0x1",
      "cumulativeGasUsed": "0x1fe9a",
      "logs": [
        {
          "address": "0xf21b5d9574d84ef4c253132691d76f62fee4daab",
          "topics": [
            "0x8c5be1e5ebec7d5bd14f71427d1e84f3dd0314c0f7b2291e5b200ac8c7c3b925",
            "0x000000000000000000000000000ef5f21dc574226a06c76aae7060642a30eb74",
            "0x0000000000000000000000002298870db1fa24f3f6cc1fa0b2760ab7c1803bc1"
          ],
          "data": "0xffffffffffffffffffffffffffffffffffffffffffffffffffffffffffffffff",
          "blockHash": "0x0811de30fd347263361b0d945327021befac8dcf600975852a4edd85d7c997de",
          "blockNumber": "0x640740b",
          "transactionHash": "0x602ac9bf81bc98932a1ad5bb336357221d761e54e3837c0312c5bba643ab09cd",
          "transactionIndex": "0x2",
          "logIndex": "0x3",
          "removed": false
        }
      ],
      "logsBloom": "0x00000000000000000000000000000000000000000000000000000000000000000000000000020000000000000000000000000000000000000000000000200000000000000000000000000000000000000000000000000040000000000000000000000000000000000000000400000000100000000000000000000000000000000000000000000000000000040000000000000000000000000000000000000000020000000800000000000000000000000000000008000000000000000000000000000000000000000000000000000000000000000000000000000000040000000010000000000000000000000000000000000000000100000000000000000000",
      "type": "0x2",
      "transactionHash": "0x602ac9bf81bc98932a1ad5bb336357221d761e54e3837c0312c5bba643ab09cd",
      "transactionIndex": "0x2",
      "blockHash": "0x0811de30fd347263361b0d945327021befac8dcf600975852a4edd85d7c997de",
      "blockNumber": "0x640740b",
      "gasUsed": "0x696e",
      "effectiveGasPrice": "0x5f5e100",
      "from": "0x000ef5f21dc574226a06c76aae7060642a30eb74",
      "to": "0xf21b5d9574d84ef4c253132691d76f62fee4daab",
      "contractAddress": null,
      "gasUsedForL1": "0xbc",
      "l1BlockNumber": "0x6e758b"
    },
    {
      "status": "0x1",
      "cumulativeGasUsed": "0x1c34a",
      "logs": [
        {
          "address": "0x313adf3fa3479f6bf5aedbc7949ee5e1213f20b7",
          "topics": [
            "0x8c5be1e5ebec7d5bd14f71427d1e84f3dd0314c0f7b2291e5b200ac8c7c3b925",
            "0x000000000000000000000000000ef5f21dc574226a06c76aae7060642a30eb74",
            "0x0000000000000000000000001649883be9b0d4d83092cdb430c42e6d5c1b7cab"
          ],
          "data": "0xffffffffffffffffffffffffffffffffffffffffffffffffffffffffffffffff",
          "blockHash": "0xaf24ff0b0dbd17152c71eb096e141b1733feb6f08356de10d95a9eac9e1553cb",
          "blockNumber": "0x6407416",
          "transactionHash": "0x1a23df68e737cef016688fae295751301340dd70fac48f580a1703ad12261f34",
          "transactionIndex": "0x2",
          "logIndex": "0x2",
          "removed": false
        }
      ],
      "logsBloom": "0x00000000000000000000000000000000000000000000000000000000000000000000000000020000000000000000000000000000000000000000000000200000000000000000000000000000000000000000000000000000000000000000000000000000000000000000000400000000000000000000000000000002000000000000000000000000000000000000000000000000000000000008000000004000020000000000000000000000000000000000000000000400000000000000000000000000000800000000000000000000000000000000000000000000040000000010000000000000000000000000000000000000000000000000000000080000",
      "type": "0x2",
      "transactionHash": "0x1a23df68e737cef016688fae295751301340dd70fac48f580a1703ad12261f34",
      "transactionIndex": "0x2",
      "blockHash": "0xaf24ff0b0dbd17152c71eb096e141b1733feb6f08356de10d95a9eac9e1553cb",
      "blockNumber": "0x6407416",
      "gasUsed": "0x696e",
      "effectiveGasPrice": "0x5f5e100",
      "from": "0x000ef5f21dc574226a06c76aae7060642a30eb74",
      "to": "0x313adf3fa3479f6bf5aedbc7949ee5e1213f20b7",
      "contractAddress": null,
      "gasUsedForL1": "0xbc",
      "l1BlockNumber": "0x6e758c"
    },
    {
      "status": "0x1",
      "cumulativeGasUsed": "0x696e",
      "logs": [
        {
          "address": "0xf21b5d9574d84ef4c253132691d76f62fee4daab",
          "topics": [
            "0x8c5be1e5ebec7d5bd14f71427d1e84f3dd0314c0f7b2291e5b200ac8c7c3b925",
            "0x000000000000000000000000000ef5f21dc574226a06c76aae7060642a30eb74",
            "0x0000000000000000000000001649883be9b0d4d83092cdb430c42e6d5c1b7cab"
          ],
          "data": "0xffffffffffffffffffffffffffffffffffffffffffffffffffffffffffffffff",
          "blockHash": "0x5b0557d693d136f4a2d166dd5379c9e6f88f0c6bf53d776124bd31f2029d5f94",
          "blockNumber": "0x6407420",
          "transactionHash": "0x38c81aaedc7ffbc666b8c0ba982640855458ee7567ef5f158eb29be3cb8f5c65",
          "transactionIndex": "0x1",
          "logIndex": "0x0",
          "removed": false
        }
      ],
      "logsBloom": "0x00000000000000000000000000000000000000000000000000000000000000000000000000020000000000000000000000000000000000000000000000200000000000000000000000000000000000000000000000000040000000000000000000000000000000000000000400000000000000000000000000000000000000000000000000000000000000040000000000000000000000000008000000000000020000000000000000000000000000000000000008000400000000000000000000000000000800000000000000000000000000000000000000000000040000000010000000000000000000000000000000000000000000000000000000000000",
      "type": "0x2",
      "transactionHash": "0x38c81aaedc7ffbc666b8c0ba982640855458ee7567ef5f158eb29be3cb8f5c65",
      "transactionIndex": "0x1",
      "blockHash": "0x5b0557d693d136f4a2d166dd5379c9e6f88f0c6bf53d776124bd31f2029d5f94",
      "blockNumber": "0x6407420",
      "gasUsed": "0x696e",
      "effectiveGasPrice": "0x5f5e100",
      "from": "0x000ef5f21dc574226a06c76aae7060642a30eb74",
      "to": "0xf21b5d9574d84ef4c253132691d76f62fee4daab",
      "contractAddress": null,
      "gasUsedForL1": "0xbc",
      "l1BlockNumber": "0x6e758c"
    },
    {
      "status": "0x1",
      "cumulativeGasUsed": "0x15a01",
      "logs": [
        {
          "address": "0x313adf3fa3479f6bf5aedbc7949ee5e1213f20b7",
          "topics": [
            "0xddf252ad1be2c89b69c2b068fc378daa952ba7f163c4a11628f55a4df523b3ef",
            "0x0000000000000000000000000000000000000000000000000000000000000000",
            "0x000000000000000000000000000ef5f21dc574226a06c76aae7060642a30eb74"
          ],
          "data": "0x000000000000000000000000000000000000314dc6448d9338c15b0a00000000",
          "blockHash": "0x5de300a149f155acd2a05ad7dcf8cd2a78f832031f6d42f9b930fb3c99711f6a",
          "blockNumber": "0x640742c",
          "transactionHash": "0x177883883b35698fe7e3b7ca7d7664ae4b70fb4d0e4cc570fe6030150eaa6797",
          "transactionIndex": "0x2",
          "logIndex": "0x1",
          "removed": false
        }
      ],
      "logsBloom": "0x00000000000000000000000000000000000000000000000000000000000000000000000000020000000000000000000000000000000000000000000000000000000000000000000000000008000000000000000000000000000000000000000000000000020000000000000400000800000000000000000000000012000000000000000000000000000000000000000000000000000000000000000000004000000000000000000000000000000000000000000000000000000000000000000000000002000000000000000000000000000000000000000000000000040020000000000000000000000000000000000000000000000000000000000000080000",
      "type": "0x2",
      "transactionHash": "0x177883883b35698fe7e3b7ca7d7664ae4b70fb4d0e4cc570fe6030150eaa6797",
      "transactionIndex": "0x2",
      "blockHash": "0x5de300a149f155acd2a05ad7dcf8cd2a78f832031f6d42f9b930fb3c99711f6a",
      "blockNumber": "0x640742c",
      "gasUsed": "0x869f",
      "effectiveGasPrice": "0x5f5e100",
      "from": "0x000ef5f21dc574226a06c76aae7060642a30eb74",
      "to": "0x313adf3fa3479f6bf5aedbc7949ee5e1213f20b7",
      "contractAddress": null,
      "gasUsedForL1": "0xbc",
      "l1BlockNumber": "0x6e758c"
    },
    {
      "status": "0x1",
      "cumulativeGasUsed": "0x3aa6b",
      "logs": [
        {
          "address": "0xf21b5d9574d84ef4c253132691d76f62fee4daab",
          "topics": [
            "0xddf252ad1be2c89b69c2b068fc378daa952ba7f163c4a11628f55a4df523b3ef",
            "0x0000000000000000000000000000000000000000000000000000000000000000",
            "0x000000000000000000000000000ef5f21dc574226a06c76aae7060642a30eb74"
          ],
          "data": "0x000000000000000000000000000000000000314dc6448d9338c15b0a00000000",
          "blockHash": "0x8cb4d89dfae83ebd00f3efd4eb043f3c6acf0bd6c90af1e52800e97655cc5dc5",
          "blockNumber": "0x640743f",
          "transactionHash": "0xa12811363f82aca0b037bc8ed1d567c387c7f0741f9fdd8927bfffa947718e75",
          "transactionIndex": "0x3",
          "logIndex": "0x4",
          "removed": false
        }
      ],
      "logsBloom": "0x00000000000000000000000000000000000000000000000000000000000000000000000000020000000000000000000000000000000000000000000000000000000000000000000000000008000000000000000000000040000000000000000000000000020000000000000400000800000000000000000000000010000000000000000000000000000000040000000000000000000000000000000000000000000000000000000000000000000000000000000008000000000000000000000000000002000000000000000000000000000000000000000000000000040020000000000000000000000000000000000000000000000000000000000000000000",
      "type": "0x2",
      "transactionHash": "0xa12811363f82aca0b037bc8ed1d567c387c7f0741f9fdd8927bfffa947718e75",
      "transactionIndex": "0x3",
      "blockHash": "0x8cb4d89dfae83ebd00f3efd4eb043f3c6acf0bd6c90af1e52800e97655cc5dc5",
      "blockNumber": "0x640743f",
      "gasUsed": "0x869f",
      "effectiveGasPrice": "0x5f5e100",
      "from": "0x000ef5f21dc574226a06c76aae7060642a30eb74",
      "to": "0xf21b5d9574d84ef4c253132691d76f62fee4daab",
      "contractAddress": null,
      "gasUsedForL1": "0xbc",
      "l1BlockNumber": "0x6e758c"
    },
    {
      "status": "0x1",
      "cumulativeGasUsed": "0x10bfce",
      "logs": [],
      "logsBloom": "0x00000000000000000000000000000000000000000000000000000000000000000000000000000000000000000000000000000000000000000000000000000000000000000000000000000000000000000000000000000000000000000000000000000000000000000000000000000000000000000000000000000000000000000000000000000000000000000000000000000000000000000000000000000000000000000000000000000000000000000000000000000000000000000000000000000000000000000000000000000000000000000000000000000000000000000000000000000000000000000000000000000000000000000000000000000000",
      "type": "0x2",
      "transactionHash": "0x43849cefff3db0c005951d73f56757eb47fa675604fbf53b3f2ea1a44d79ad02",
      "transactionIndex": "0x3",
      "blockHash": "0x250acdfd1d09841784c5d1fc67c7616929ffbb71addd2af02e71962695cc3bfc",
      "blockNumber": "0x640744a",
      "gasUsed": "0xbed0d",
      "effectiveGasPrice": "0x5f5e100",
      "from": "0x000ef5f21dc574226a06c76aae7060642a30eb74",
      "to": "0x4e59b44847b379578588920ca78fbf26c0b4956c",
      "contractAddress": null,
      "gasUsedForL1": "0x9a9",
      "l1BlockNumber": "0x6e758c"
    },
    {
      "status": "0x1",
      "cumulativeGasUsed": "0x22910",
      "logs": [
        {
          "address": "0xc420c3a3f81f2a059ff56d45c0a82d1f9af38dcc",
          "topics": [
            "0xdd466e674ea557f56295e2d0218a125ea4b4f0f6f3307b95f85e6110838d6438",
            "0x69657c3cb21136d2bcf364aadde2fde957f1eb49968f65d407c359f71496f375",
            "0x000000000000000000000000313adf3fa3479f6bf5aedbc7949ee5e1213f20b7",
            "0x000000000000000000000000f21b5d9574d84ef4c253132691d76f62fee4daab"
          ],
          "data": "0x0000000000000000000000000000000000000000000000000000000000000bb8000000000000000000000000000000000000000000000000000000000000007800000000000000000000000046da141d7c712824c04ab1d3216c8368860f008800000000000000000000000000000000000000010000000000000000000000000000000000000000000000000000000000000000000000000000000000000000",
          "blockHash": "0x2d682c4348b5c3e100f38f06f8e449f0b75318d50ad60c87f3f1fd0ddefa7a6f",
          "blockNumber": "0x640745d",
          "transactionHash": "0xe9946558afb25259c5dbfd49a65e7a3b9c8eaf9c0b41955e8857e75b5b1ded15",
          "transactionIndex": "0x2",
          "logIndex": "0x2",
          "removed": false
        }
      ],
      "logsBloom": "0x00000000000000000000000000000002000000000000000001000000000000000000000000000000000000000000000000000000000000000000000020000800400000000000000000000000000000000000000000000000000000000000000000000000000000000000000001000000000000000000000000000000000000000000000000000008000000000000000000000001001000000000000000210000000000000000000020000040000000000000000000000000000000000000000000000000000000000000000000004000000000000000000010000000000000000000000000000000000000000000000000000000000000000000000000000000",
      "type": "0x2",
      "transactionHash": "0xe9946558afb25259c5dbfd49a65e7a3b9c8eaf9c0b41955e8857e75b5b1ded15",
      "transactionIndex": "0x2",
      "blockHash": "0x2d682c4348b5c3e100f38f06f8e449f0b75318d50ad60c87f3f1fd0ddefa7a6f",
      "blockNumber": "0x640745d",
      "gasUsed": "0xcf2c",
      "effectiveGasPrice": "0x5f5e100",
      "from": "0x000ef5f21dc574226a06c76aae7060642a30eb74",
      "to": "0xc420c3a3f81f2a059ff56d45c0a82d1f9af38dcc",
      "contractAddress": null,
      "gasUsedForL1": "0x139",
      "l1BlockNumber": "0x6e758e"
    },
    {
      "status": "0x1",
      "cumulativeGasUsed": "0x40c82",
      "logs": [
        {
          "address": "0xc420c3a3f81f2a059ff56d45c0a82d1f9af38dcc",
          "topics": [
            "0xf208f4912782fd25c7f114ca3723a2d5dd6f3bcc3ac8db5af63baa85f711d5ec",
            "0x69657c3cb21136d2bcf364aadde2fde957f1eb49968f65d407c359f71496f375",
            "0x0000000000000000000000002298870db1fa24f3f6cc1fa0b2760ab7c1803bc1"
          ],
          "data": "0xffffffffffffffffffffffffffffffffffffffffffffffffffffffffffffff88000000000000000000000000000000000000000000000000000000000000007800000000000000000000000000000000000000000000021e19e0c9bab24000000000000000000000000000000000000000000000000000000000000000000000",
          "blockHash": "0x3331c84296789126625ca3ca8fccec2aedb78b646f2eb01f5fb9427b5b487480",
          "blockNumber": "0x6407468",
          "transactionHash": "0xa9b21e0d02ca2b502a8ba6692a92896e8fa9d2dfdf7c2302817910d35cf7d6c3",
          "transactionIndex": "0x1",
          "logIndex": "0x0",
          "removed": false
        },
        {
          "address": "0x313adf3fa3479f6bf5aedbc7949ee5e1213f20b7",
          "topics": [
            "0xddf252ad1be2c89b69c2b068fc378daa952ba7f163c4a11628f55a4df523b3ef",
            "0x000000000000000000000000000ef5f21dc574226a06c76aae7060642a30eb74",
            "0x000000000000000000000000c420c3a3f81f2a059ff56d45c0a82d1f9af38dcc"
          ],
          "data": "0x0000000000000000000000000000000000000000000000033e2204017b30d746",
          "blockHash": "0x3331c84296789126625ca3ca8fccec2aedb78b646f2eb01f5fb9427b5b487480",
          "blockNumber": "0x6407468",
          "transactionHash": "0xa9b21e0d02ca2b502a8ba6692a92896e8fa9d2dfdf7c2302817910d35cf7d6c3",
          "transactionIndex": "0x1",
          "logIndex": "0x1",
          "removed": false
        },
        {
          "address": "0xf21b5d9574d84ef4c253132691d76f62fee4daab",
          "topics": [
            "0xddf252ad1be2c89b69c2b068fc378daa952ba7f163c4a11628f55a4df523b3ef",
            "0x000000000000000000000000000ef5f21dc574226a06c76aae7060642a30eb74",
            "0x000000000000000000000000c420c3a3f81f2a059ff56d45c0a82d1f9af38dcc"
          ],
          "data": "0x0000000000000000000000000000000000000000000000033e2204017b30d746",
          "blockHash": "0x3331c84296789126625ca3ca8fccec2aedb78b646f2eb01f5fb9427b5b487480",
          "blockNumber": "0x6407468",
          "transactionHash": "0xa9b21e0d02ca2b502a8ba6692a92896e8fa9d2dfdf7c2302817910d35cf7d6c3",
          "transactionIndex": "0x1",
          "logIndex": "0x2",
          "removed": false
        }
      ],
      "logsBloom": "0x00000000000000000000000000000002000000000000000001000000000000000000000000020000000000000000000000000000000000000000000020000000000000000000000000000008000000000000000000000040000000000000000000000000000000000000000401000000100000000000000000000012000000000000000801000000000000040000000000000000000000000000040000014000000004000800000000000040000000000000000008000000000000000000000000000002000000000000000000000000000000000000000000000000040000000000000000000000000000000000000004000000000100000000004000080000",
      "type": "0x2",
      "transactionHash": "0xa9b21e0d02ca2b502a8ba6692a92896e8fa9d2dfdf7c2302817910d35cf7d6c3",
      "transactionIndex": "0x1",
      "blockHash": "0x3331c84296789126625ca3ca8fccec2aedb78b646f2eb01f5fb9427b5b487480",
      "blockNumber": "0x6407468",
      "gasUsed": "0x40c82",
      "effectiveGasPrice": "0x5f5e100",
      "from": "0x000ef5f21dc574226a06c76aae7060642a30eb74",
      "to": "0x2298870db1fa24f3f6cc1fa0b2760ab7c1803bc1",
      "contractAddress": null,
      "gasUsedForL1": "0x158",
      "l1BlockNumber": "0x6e758e"
    }
  ],
  "libraries": [],
  "pending": [],
  "returns": {},
  "timestamp": 1733690626,
  "chain": 421614,
  "commit": "8476dd6"
}