{
  "transactions": [
    {
      "hash": "0xa597f96a7fc454f541b0a70ed2059e1aa5346d887b51eb59700fc7464d9c4637",
      "transactionType": "CALL",
      "contractName": null,
      "contractAddress": "0x313adf3fa3479f6bf5aedbc7949ee5e1213f20b7",
      "function": "approve(address,uint256)",
      "arguments": [
        "0x2298870DB1Fa24F3F6cc1fa0B2760AB7c1803bC1",
        "115792089237316195423570985008687907853269984665640564039457584007913129639935"
      ],
      "transaction": {
        "from": "0x000ef5f21dc574226a06c76aae7060642a30eb74",
        "to": "0x313adf3fa3479f6bf5aedbc7949ee5e1213f20b7",
        "gas": "0x8c4c",
        "value": "0x0",
        "input": "0x095ea7b30000000000000000000000002298870db1fa24f3f6cc1fa0b2760ab7c1803bc1ffffffffffffffffffffffffffffffffffffffffffffffffffffffffffffffff",
        "nonce": "0x128",
        "chainId": "0x66eee"
      },
      "additionalContracts": [],
      "isFixedGasLimit": false
    },
    {
      "hash": "0x08aa325fe833c389787c2f6a1e93e07b19547bc82f0ab765b29b972e0f111ea0",
      "transactionType": "CALL",
      "contractName": null,
      "contractAddress": "0xf21b5d9574d84ef4c253132691d76f62fee4daab",
      "function": "approve(address,uint256)",
      "arguments": [
        "0x2298870DB1Fa24F3F6cc1fa0B2760AB7c1803bC1",
        "115792089237316195423570985008687907853269984665640564039457584007913129639935"
      ],
      "transaction": {
        "from": "0x000ef5f21dc574226a06c76aae7060642a30eb74",
        "to": "0xf21b5d9574d84ef4c253132691d76f62fee4daab",
        "gas": "0x8c4c",
        "value": "0x0",
        "input": "0x095ea7b30000000000000000000000002298870db1fa24f3f6cc1fa0b2760ab7c1803bc1ffffffffffffffffffffffffffffffffffffffffffffffffffffffffffffffff",
        "nonce": "0x129",
        "chainId": "0x66eee"
      },
      "additionalContracts": [],
      "isFixedGasLimit": false
    },
    {
      "hash": "0x52e87b86be32f5cdf348b8e78b7b188b360d224bbc2036d5746e5f2175305fc6",
      "transactionType": "CALL",
      "contractName": null,
      "contractAddress": "0x313adf3fa3479f6bf5aedbc7949ee5e1213f20b7",
      "function": "approve(address,uint256)",
      "arguments": [
        "0x1649883be9b0d4D83092CDB430c42E6d5C1B7cAB",
        "115792089237316195423570985008687907853269984665640564039457584007913129639935"
      ],
      "transaction": {
        "from": "0x000ef5f21dc574226a06c76aae7060642a30eb74",
        "to": "0x313adf3fa3479f6bf5aedbc7949ee5e1213f20b7",
        "gas": "0x8c4c",
        "value": "0x0",
        "input": "0x095ea7b30000000000000000000000001649883be9b0d4d83092cdb430c42e6d5c1b7cabffffffffffffffffffffffffffffffffffffffffffffffffffffffffffffffff",
        "nonce": "0x12a",
        "chainId": "0x66eee"
      },
      "additionalContracts": [],
      "isFixedGasLimit": false
    },
    {
      "hash": "0x0465a1ebd29685d469cc8a041f8cb8d66f02be669b2347a1109524c2a18fa52a",
      "transactionType": "CALL",
      "contractName": null,
      "contractAddress": "0xf21b5d9574d84ef4c253132691d76f62fee4daab",
      "function": "approve(address,uint256)",
      "arguments": [
        "0x1649883be9b0d4D83092CDB430c42E6d5C1B7cAB",
        "115792089237316195423570985008687907853269984665640564039457584007913129639935"
      ],
      "transaction": {
        "from": "0x000ef5f21dc574226a06c76aae7060642a30eb74",
        "to": "0xf21b5d9574d84ef4c253132691d76f62fee4daab",
        "gas": "0x8c4c",
        "value": "0x0",
        "input": "0x095ea7b30000000000000000000000001649883be9b0d4d83092cdb430c42e6d5c1b7cabffffffffffffffffffffffffffffffffffffffffffffffffffffffffffffffff",
        "nonce": "0x12b",
        "chainId": "0x66eee"
      },
      "additionalContracts": [],
      "isFixedGasLimit": false
    },
    {
      "hash": "0xdeb5d0dc262506fe9e536598c6fb7d857663e555beac9c19f7fa69e0de72bf9f",
      "transactionType": "CALL",
      "contractName": null,
      "contractAddress": "0x313adf3fa3479f6bf5aedbc7949ee5e1213f20b7",
      "function": "mint(address,uint256)",
      "arguments": [
        "0x000ef5F21dC574226A06C76AAE7060642A30eB74",
        "1000000000000000000000000000000000"
      ],
      "transaction": {
        "from": "0x000ef5f21dc574226a06c76aae7060642a30eb74",
        "to": "0x313adf3fa3479f6bf5aedbc7949ee5e1213f20b7",
        "gas": "0xb252",
        "value": "0x0",
        "input": "0x40c10f19000000000000000000000000000ef5f21dc574226a06c76aae7060642a30eb74000000000000000000000000000000000000314dc6448d9338c15b0a00000000",
        "nonce": "0x12c",
        "chainId": "0x66eee"
      },
      "additionalContracts": [],
      "isFixedGasLimit": false
    },
    {
      "hash": "0x1470adf3fdeb0f79c85128d28ea46633930bc5323ad4a072999b3bfcb3dc6858",
      "transactionType": "CALL",
      "contractName": null,
      "contractAddress": "0xf21b5d9574d84ef4c253132691d76f62fee4daab",
      "function": "mint(address,uint256)",
      "arguments": [
        "0x000ef5F21dC574226A06C76AAE7060642A30eB74",
        "1000000000000000000000000000000000"
      ],
      "transaction": {
        "from": "0x000ef5f21dc574226a06c76aae7060642a30eb74",
        "to": "0xf21b5d9574d84ef4c253132691d76f62fee4daab",
        "gas": "0xb252",
        "value": "0x0",
        "input": "0x40c10f19000000000000000000000000000ef5f21dc574226a06c76aae7060642a30eb74000000000000000000000000000000000000314dc6448d9338c15b0a00000000",
        "nonce": "0x12d",
        "chainId": "0x66eee"
      },
      "additionalContracts": [],
      "isFixedGasLimit": false
    },
    {
      "hash": "0xdc427f914248accd5718867f57c165d8d32586e378a387b2160b297cfbf965c5",
      "transactionType": "CREATE2",
      "contractName": "RiskManagerHook",
      "contractAddress": "0x7e0c31c8ff8f1e6ef42fc25b3daacdb806b90040",
      "function": null,
      "arguments": [
        "0xc420C3A3F81f2A059fF56D45c0A82D1F9aF38dCc",
        "0x7f6359E8EE0E8eAe486908C1c9B839E0c141444a"
      ],
      "transaction": {
        "from": "0x000ef5f21dc574226a06c76aae7060642a30eb74",
        "to": "0x4e59b44847b379578588920ca78fbf26c0b4956c",
        "gas": "0x10130d",
        "value": "0x0",
        "input": "0x0000000000000000000000000000000000000000000000000000000000007c7560a060405234801561000f575f80fd5b50604051610fcc380380610fcc83398101604081905261002e916102d7565b6001600160a01b038216608052816100453061006b565b505f80546001600160a01b0319166001600160a01b03929092169190911790555061030f565b61015b81610156604080516101c0810182525f80825260208201819052918101829052606081018290526080810182905260a0810182905260c0810182905260e08101829052610100810182905261012081018290526101408101829052610160810182905261018081018290526101a081019190915250604080516101c0810182525f80825260208201819052918101829052606081018290526080810182905260a0810182905260c08101829052600160e0820152610100810182905261012081018290526101408101829052610160810182905261018081018290526101a081019190915290565b61015e565b50565b80511515612000831615151415806101825750602081015115156110008316151514155b806101995750604081015115156108008316151514155b806101b05750606081015115156104008316151514155b806101c75750608081015115156102008316151514155b806101de575060a081015115156101008316151514155b806101f4575060c0810151151560808316151514155b8061020a575060e0810151151560408316151514155b806102215750610100810151151560208316151514155b806102385750610120810151151560108316151514155b8061024f5750610140810151151560088316151514155b806102665750610160810151151560048316151514155b8061027d5750610180810151151560028316151514155b8061029457506101a0810151151560018316151514155b156102aa576102aa630732d7b560e51b836102ae565b5050565b815f526001600160a01b03811660045260245ffd5b6001600160a01b038116811461015b575f80fd5b5f80604083850312156102e8575f80fd5b82516102f3816102c3565b6020840151909250610304816102c3565b809150509250929050565b608051610c9e61032e5f395f818161032001526103ae0152610c9e5ff3fe608060405234801561000f575f80fd5b50600436106100e5575f3560e01c80639f063efc11610088578063c4e833ce11610063578063c4e833ce14610227578063dc4c90d31461031b578063dc98354e14610342578063e1b4af6914610219575f80fd5b80639f063efc14610182578063b47b2fb1146101e3578063b6a8b0fa14610219575f80fd5b8063575e24b4116100c3578063575e24b4146101445780636c2bbe7e146101825780636fe7e6eb146101b557806391dd7346146101c3575f80fd5b806321d0ee70146100e9578063259982e5146100e9578063478426631461011a575b5f80fd5b6100fc6100f7366004610722565b610350565b6040516001600160e01b031990911681526020015b60405180910390f35b5f5461012c906001600160a01b031681565b6040516001600160a01b039091168152602001610111565b6101576101523660046107a9565b61036a565b604080516001600160e01b03199094168452602084019290925262ffffff1690820152606001610111565b610195610190366004610803565b610386565b604080516001600160e01b03199093168352602083019190915201610111565b6100fc6100f736600461088e565b6101d66101d13660046108ed565b6103a1565b604051610111919061092c565b6101f66101f1366004610961565b6103ff565b604080516001600160e01b03199093168352600f9190910b602083015201610111565b6100fc6100f73660046109e2565b61030e604080516101c0810182525f80825260208201819052918101829052606081018290526080810182905260a0810182905260c0810182905260e08101829052610100810182905261012081018290526101408101829052610160810182905261018081018290526101a081019190915250604080516101c0810182525f80825260208201819052918101829052606081018290526080810182905260a0810182905260c08101829052600160e0820152610100810182905261012081018290526101408101829052610160810182905261018081018290526101a081019190915290565b6040516101119190610a3c565b61012c7f000000000000000000000000000000000000000000000000000000000000000081565b6100fc6100f7366004610b5d565b5f604051630a85dc2960e01b815260040160405180910390fd5b5f805f604051630a85dc2960e01b815260040160405180910390fd5b5f80604051630a85dc2960e01b815260040160405180910390fd5b6060336001600160a01b037f000000000000000000000000000000000000000000000000000000000000000016146103ec5760405163570c108560e11b815260040160405180910390fd5b6103f68383610607565b90505b92915050565b5f808061040f6020880188610bb1565b610428576104236040890160208a01610bd3565b610435565b6104356020890189610bd3565b90505f6104456020890189610bb1565b61045b5761045660208a018a610bd3565b61046b565b61046b60408a0160208b01610bd3565b90505f61047b60208a018a610bb1565b6104915761048988600f0b90565b600f0b610497565b88602001355b90505f6104a760208b018b610bb1565b6104b55789602001356104c3565b6104bf8960801d90565b600f0b5b90505f82126104d257816104db565b6104db82610bee565b91505f81126104ea57806104f3565b6104f381610bee565b90505f80610503898b018b610c14565b5f54604051635ddb109d60e11b81526001600160a01b038085166004830152602482018490528a8116604483015260648201899052898116608483015260a48201889052939550919350919091169063bbb6213a9060c401602060405180830381865afa158015610576573d5f803e3d5ffd5b505050506040513d601f19601f8201168201806040525081019061059a9190610c3e565b6105eb576040516305012d8d60e41b81526001600160a01b038084166004830152602482018390528088166044830152606482018690528616608482015260a4810184905260c40160405180910390fd5b5063b47b2fb160e01b9d5f9d509b505050505050505050505050565b60605f80306001600160a01b03168585604051610625929190610c59565b5f604051808303815f865af19150503d805f811461065e576040519150601f19603f3d011682016040523d82523d5f602084013e610663565b606091505b509150915081156106775791506103f99050565b80515f03610698576040516314815f4760e31b815260040160405180910390fd5b805160208201fd5b6001600160a01b03811681146106b4575f80fd5b50565b5f60a082840312156106c7575f80fd5b50919050565b5f608082840312156106c7575f80fd5b5f8083601f8401126106ed575f80fd5b50813567ffffffffffffffff811115610704575f80fd5b60208301915083602082850101111561071b575f80fd5b9250929050565b5f805f805f6101608688031215610737575f80fd5b8535610742816106a0565b945061075187602088016106b7565b93506107608760c088016106cd565b925061014086013567ffffffffffffffff81111561077c575f80fd5b610788888289016106dd565b969995985093965092949392505050565b5f606082840312156106c7575f80fd5b5f805f805f61014086880312156107be575f80fd5b85356107c9816106a0565b94506107d887602088016106b7565b93506107e78760c08801610799565b925061012086013567ffffffffffffffff81111561077c575f80fd5b5f805f805f805f6101a0888a03121561081a575f80fd5b8735610825816106a0565b96506108348960208a016106b7565b95506108438960c08a016106cd565b94506101408801359350610160880135925061018088013567ffffffffffffffff81111561086f575f80fd5b61087b8a828b016106dd565b989b979a50959850939692959293505050565b5f805f8061010085870312156108a2575f80fd5b84356108ad816106a0565b93506108bc86602087016106b7565b925060c08501356108cc816106a0565b915060e0850135600281900b81146108e2575f80fd5b939692955090935050565b5f80602083850312156108fe575f80fd5b823567ffffffffffffffff811115610914575f80fd5b610920858286016106dd565b90969095509350505050565b602081525f82518060208401528060208501604085015e5f604082850101526040601f19601f83011684010191505092915050565b5f805f805f806101608789031215610977575f80fd5b8635610982816106a0565b955061099188602089016106b7565b94506109a08860c08901610799565b9350610120870135925061014087013567ffffffffffffffff8111156109c4575f80fd5b6109d089828a016106dd565b979a9699509497509295939492505050565b5f805f805f8061012087890312156109f8575f80fd5b8635610a03816106a0565b9550610a1288602089016106b7565b945060c0870135935060e0870135925061010087013567ffffffffffffffff8111156109c4575f80fd5b8151151581526101c081016020830151610a5a602084018215159052565b506040830151610a6e604084018215159052565b506060830151610a82606084018215159052565b506080830151610a96608084018215159052565b5060a0830151610aaa60a084018215159052565b5060c0830151610abe60c084018215159052565b5060e0830151610ad260e084018215159052565b50610100830151610ae861010084018215159052565b50610120830151610afe61012084018215159052565b50610140830151610b1461014084018215159052565b50610160830151610b2a61016084018215159052565b50610180830151610b4061018084018215159052565b506101a0830151610b566101a084018215159052565b5092915050565b5f805f60e08486031215610b6f575f80fd5b8335610b7a816106a0565b9250610b8985602086016106b7565b915060c0840135610b99816106a0565b809150509250925092565b80151581146106b4575f80fd5b5f60208284031215610bc1575f80fd5b8135610bcc81610ba4565b9392505050565b5f60208284031215610be3575f80fd5b8135610bcc816106a0565b5f600160ff1b8201610c0e57634e487b7160e01b5f52601160045260245ffd5b505f0390565b5f8060408385031215610c25575f80fd5b8235610c30816106a0565b946020939093013593505050565b5f60208284031215610c4e575f80fd5b8151610bcc81610ba4565b818382375f910190815291905056fea2646970667358221220a0e43f7789bc545147df900ce40d2a79203ba2ded164133039fb15b0c570943f64736f6c634300081a0033000000000000000000000000c420c3a3f81f2a059ff56d45c0a82d1f9af38dcc0000000000000000000000007f6359e8ee0e8eae486908c1c9b839e0c141444a",
        "nonce": "0x12e",
        "chainId": "0x66eee"
      },
      "additionalContracts": [],
      "isFixedGasLimit": false
    },
    {
      "hash": "0xd0a953ec667b2fd9bf01c2593ef2bd37c32dde2079294280d2ea0c18bfdfcd34",
      "transactionType": "CALL",
      "contractName": null,
      "contractAddress": "0xc420c3a3f81f2a059ff56d45c0a82d1f9af38dcc",
      "function": "initialize((address,address,uint24,int24,address),uint160)",
      "arguments": [
        "(0x313Adf3Fa3479F6Bf5aedBc7949EE5e1213F20B7, 0xf21B5d9574d84eF4c253132691D76F62FEE4Daab, 3000, 120, 0x7E0C31C8fF8f1e6Ef42fc25B3DAacdB806B90040)",
        "79228162514264337593543950336"
      ],
      "transaction": {
        "from": "0x000ef5f21dc574226a06c76aae7060642a30eb74",
        "to": "0xc420c3a3f81f2a059ff56d45c0a82d1f9af38dcc",
        "gas": "0x11399",
        "value": "0x0",
        "input": "0x6276cbbe000000000000000000000000313adf3fa3479f6bf5aedbc7949ee5e1213f20b7000000000000000000000000f21b5d9574d84ef4c253132691d76f62fee4daab0000000000000000000000000000000000000000000000000000000000000bb800000000000000000000000000000000000000000000000000000000000000780000000000000000000000007e0c31c8ff8f1e6ef42fc25b3daacdb806b900400000000000000000000000000000000000000001000000000000000000000000",
        "nonce": "0x12f",
        "chainId": "0x66eee"
      },
      "additionalContracts": [],
      "isFixedGasLimit": false
    },
    {
      "hash": "0xecaf5dea687fb7483e4efc98d0e741b177456412cdcd7fff2908e1e86a496903",
      "transactionType": "CALL",
      "contractName": null,
      "contractAddress": "0x2298870db1fa24f3f6cc1fa0b2760ab7c1803bc1",
      "function": "modifyLiquidity((address,address,uint24,int24,address),(int24,int24,int256,bytes32),bytes)",
      "arguments": [
        "(0x313Adf3Fa3479F6Bf5aedBc7949EE5e1213F20B7, 0xf21B5d9574d84eF4c253132691D76F62FEE4Daab, 3000, 120, 0x7E0C31C8fF8f1e6Ef42fc25B3DAacdB806B90040)",
        "(-120, 120, 10000000000000000000000, 0x0000000000000000000000000000000000000000000000000000000000000000)",
        "0x"
      ],
      "transaction": {
        "from": "0x000ef5f21dc574226a06c76aae7060642a30eb74",
        "to": "0x2298870db1fa24f3f6cc1fa0b2760ab7c1803bc1",
        "gas": "0x5e9ed",
        "value": "0x0",
        "input": "0x5a6bcfda000000000000000000000000313adf3fa3479f6bf5aedbc7949ee5e1213f20b7000000000000000000000000f21b5d9574d84ef4c253132691d76f62fee4daab0000000000000000000000000000000000000000000000000000000000000bb800000000000000000000000000000000000000000000000000000000000000780000000000000000000000007e0c31c8ff8f1e6ef42fc25b3daacdb806b90040ffffffffffffffffffffffffffffffffffffffffffffffffffffffffffffff88000000000000000000000000000000000000000000000000000000000000007800000000000000000000000000000000000000000000021e19e0c9bab2400000000000000000000000000000000000000000000000000000000000000000000000000000000000000000000000000000000000000000000000000000000001400000000000000000000000000000000000000000000000000000000000000000",
        "nonce": "0x130",
        "chainId": "0x66eee"
      },
      "additionalContracts": [],
      "isFixedGasLimit": false
    }
  ],
  "receipts": [
    {
      "status": "0x1",
      "cumulativeGasUsed": "0x6a29",
      "logs": [
        {
          "address": "0x313adf3fa3479f6bf5aedbc7949ee5e1213f20b7",
          "topics": [
            "0x8c5be1e5ebec7d5bd14f71427d1e84f3dd0314c0f7b2291e5b200ac8c7c3b925",
            "0x000000000000000000000000000ef5f21dc574226a06c76aae7060642a30eb74",
            "0x0000000000000000000000002298870db1fa24f3f6cc1fa0b2760ab7c1803bc1"
          ],
          "data": "0xffffffffffffffffffffffffffffffffffffffffffffffffffffffffffffffff",
          "blockHash": "0x1edb5c7182f23527fb47bbcd051d3cd6e69616573bc5e6501f75d9238682410c",
          "blockNumber": "0x63f9281",
          "transactionHash": "0xa597f96a7fc454f541b0a70ed2059e1aa5346d887b51eb59700fc7464d9c4637",
          "transactionIndex": "0x1",
          "logIndex": "0x0",
          "removed": false
        }
      ],
      "logsBloom": "0x00000000000000000000000000000000000000000000000000000000000000000000000000020000000000000000000000000000000000000000000000200000000000000000000000000000000000000000000000000000000000000000000000000000000000000000000400000000100000000000000000000002000000000000000000000000000000000000000000000000000000000000000000004000020000000800000000000000000000000000000000000000000000000000000000000000000000000000000000000000000000000000000000000000040000000010000000000000000000000000000000000000000100000000000000080000",
      "type": "0x2",
      "transactionHash": "0xa597f96a7fc454f541b0a70ed2059e1aa5346d887b51eb59700fc7464d9c4637",
      "transactionIndex": "0x1",
      "blockHash": "0x1edb5c7182f23527fb47bbcd051d3cd6e69616573bc5e6501f75d9238682410c",
      "blockNumber": "0x63f9281",
      "gasUsed": "0x6a29",
      "effectiveGasPrice": "0x5f5e100",
      "from": "0x000ef5f21dc574226a06c76aae7060642a30eb74",
      "to": "0x313adf3fa3479f6bf5aedbc7949ee5e1213f20b7",
      "contractAddress": null,
      "gasUsedForL1": "0x177",
      "l1BlockNumber": "0x6e70fd"
    },
    {
      "status": "0x1",
      "cumulativeGasUsed": "0x2bf5e",
      "logs": [
        {
          "address": "0xf21b5d9574d84ef4c253132691d76f62fee4daab",
          "topics": [
            "0x8c5be1e5ebec7d5bd14f71427d1e84f3dd0314c0f7b2291e5b200ac8c7c3b925",
            "0x000000000000000000000000000ef5f21dc574226a06c76aae7060642a30eb74",
            "0x0000000000000000000000002298870db1fa24f3f6cc1fa0b2760ab7c1803bc1"
          ],
          "data": "0xffffffffffffffffffffffffffffffffffffffffffffffffffffffffffffffff",
          "blockHash": "0x66ba21d0da402e51614b46a6503f3786a8bca47158365c5b15725ba21a81e74f",
          "blockNumber": "0x63f9290",
          "transactionHash": "0x08aa325fe833c389787c2f6a1e93e07b19547bc82f0ab765b29b972e0f111ea0",
          "transactionIndex": "0x2",
          "logIndex": "0x5",
          "removed": false
        }
      ],
      "logsBloom": "0x00000000000000000000000000000000000000000000000000000000000000000000000000020000000000000000000000000000000000000000000000200000000000000000000000000000000000000000000000000040000000000000000000000000000000000000000400000000100000000000000000000000000000000000000000000000000000040000000000000000000000000000000000000000020000000800000000000000000000000000000008000000000000000000000000000000000000000000000000000000000000000000000000000000040000000010000000000000000000000000000000000000000100000000000000000000",
      "type": "0x2",
      "transactionHash": "0x08aa325fe833c389787c2f6a1e93e07b19547bc82f0ab765b29b972e0f111ea0",
      "transactionIndex": "0x2",
      "blockHash": "0x66ba21d0da402e51614b46a6503f3786a8bca47158365c5b15725ba21a81e74f",
      "blockNumber": "0x63f9290",
      "gasUsed": "0x6a29",
      "effectiveGasPrice": "0x5f5e100",
      "from": "0x000ef5f21dc574226a06c76aae7060642a30eb74",
      "to": "0xf21b5d9574d84ef4c253132691d76f62fee4daab",
      "contractAddress": null,
      "gasUsedForL1": "0x177",
      "l1BlockNumber": "0x6e70fd"
    },
    {
      "status": "0x1",
      "cumulativeGasUsed": "0x3e9ce",
      "logs": [
        {
          "address": "0x313adf3fa3479f6bf5aedbc7949ee5e1213f20b7",
          "topics": [
            "0x8c5be1e5ebec7d5bd14f71427d1e84f3dd0314c0f7b2291e5b200ac8c7c3b925",
            "0x000000000000000000000000000ef5f21dc574226a06c76aae7060642a30eb74",
            "0x0000000000000000000000001649883be9b0d4d83092cdb430c42e6d5c1b7cab"
          ],
          "data": "0xffffffffffffffffffffffffffffffffffffffffffffffffffffffffffffffff",
          "blockHash": "0x3d28acbec88d6d5ba946c2c1981e3c3ff9d1a063908a6e069d8a5719d50e5c77",
          "blockNumber": "0x63f92a6",
          "transactionHash": "0x52e87b86be32f5cdf348b8e78b7b188b360d224bbc2036d5746e5f2175305fc6",
          "transactionIndex": "0x3",
          "logIndex": "0x2",
          "removed": false
        }
      ],
      "logsBloom": "0x00000000000000000000000000000000000000000000000000000000000000000000000000020000000000000000000000000000000000000000000000200000000000000000000000000000000000000000000000000000000000000000000000000000000000000000000400000000000000000000000000000002000000000000000000000000000000000000000000000000000000000008000000004000020000000000000000000000000000000000000000000400000000000000000000000000000800000000000000000000000000000000000000000000040000000010000000000000000000000000000000000000000000000000000000080000",
      "type": "0x2",
      "transactionHash": "0x52e87b86be32f5cdf348b8e78b7b188b360d224bbc2036d5746e5f2175305fc6",
      "transactionIndex": "0x3",
      "blockHash": "0x3d28acbec88d6d5ba946c2c1981e3c3ff9d1a063908a6e069d8a5719d50e5c77",
      "blockNumber": "0x63f92a6",
      "gasUsed": "0x6a29",
      "effectiveGasPrice": "0x5f5e100",
      "from": "0x000ef5f21dc574226a06c76aae7060642a30eb74",
      "to": "0x313adf3fa3479f6bf5aedbc7949ee5e1213f20b7",
      "contractAddress": null,
      "gasUsedForL1": "0x177",
      "l1BlockNumber": "0x6e70fe"
    },
    {
      "status": "0x1",
      "cumulativeGasUsed": "0x6a29",
      "logs": [
        {
          "address": "0xf21b5d9574d84ef4c253132691d76f62fee4daab",
          "topics": [
            "0x8c5be1e5ebec7d5bd14f71427d1e84f3dd0314c0f7b2291e5b200ac8c7c3b925",
            "0x000000000000000000000000000ef5f21dc574226a06c76aae7060642a30eb74",
            "0x0000000000000000000000001649883be9b0d4d83092cdb430c42e6d5c1b7cab"
          ],
          "data": "0xffffffffffffffffffffffffffffffffffffffffffffffffffffffffffffffff",
          "blockHash": "0x33e96fa8ed9887b84ce9425acd3a99a2402b21a925542c9e02bb7e635e21f96c",
          "blockNumber": "0x63f92b1",
          "transactionHash": "0x0465a1ebd29685d469cc8a041f8cb8d66f02be669b2347a1109524c2a18fa52a",
          "transactionIndex": "0x1",
          "logIndex": "0x0",
          "removed": false
        }
      ],
      "logsBloom": "0x00000000000000000000000000000000000000000000000000000000000000000000000000020000000000000000000000000000000000000000000000200000000000000000000000000000000000000000000000000040000000000000000000000000000000000000000400000000000000000000000000000000000000000000000000000000000000040000000000000000000000000008000000000000020000000000000000000000000000000000000008000400000000000000000000000000000800000000000000000000000000000000000000000000040000000010000000000000000000000000000000000000000000000000000000000000",
      "type": "0x2",
      "transactionHash": "0x0465a1ebd29685d469cc8a041f8cb8d66f02be669b2347a1109524c2a18fa52a",
      "transactionIndex": "0x1",
      "blockHash": "0x33e96fa8ed9887b84ce9425acd3a99a2402b21a925542c9e02bb7e635e21f96c",
      "blockNumber": "0x63f92b1",
      "gasUsed": "0x6a29",
      "effectiveGasPrice": "0x5f5e100",
      "from": "0x000ef5f21dc574226a06c76aae7060642a30eb74",
      "to": "0xf21b5d9574d84ef4c253132691d76f62fee4daab",
      "contractAddress": null,
      "gasUsedForL1": "0x177",
      "l1BlockNumber": "0x6e70fe"
    },
    {
      "status": "0x1",
      "cumulativeGasUsed": "0x4d42a",
      "logs": [
        {
          "address": "0x313adf3fa3479f6bf5aedbc7949ee5e1213f20b7",
          "topics": [
            "0xddf252ad1be2c89b69c2b068fc378daa952ba7f163c4a11628f55a4df523b3ef",
            "0x0000000000000000000000000000000000000000000000000000000000000000",
            "0x000000000000000000000000000ef5f21dc574226a06c76aae7060642a30eb74"
          ],
          "data": "0x000000000000000000000000000000000000314dc6448d9338c15b0a00000000",
          "blockHash": "0xe2706583b0826efc21005c2a6a16da56216b148b7d520d045a87dc2f803e2af5",
          "blockNumber": "0x63f92c4",
          "transactionHash": "0xdeb5d0dc262506fe9e536598c6fb7d857663e555beac9c19f7fa69e0de72bf9f",
          "transactionIndex": "0x3",
          "logIndex": "0x6",
          "removed": false
        }
      ],
      "logsBloom": "0x00000000000000000000000000000000000000000000000000000000000000000000000000020000000000000000000000000000000000000000000000000000000000000000000000000008000000000000000000000000000000000000000000000000020000000000000400000800000000000000000000000012000000000000000000000000000000000000000000000000000000000000000000004000000000000000000000000000000000000000000000000000000000000000000000000002000000000000000000000000000000000000000000000000040020000000000000000000000000000000000000000000000000000000000000080000",
      "type": "0x2",
      "transactionHash": "0xdeb5d0dc262506fe9e536598c6fb7d857663e555beac9c19f7fa69e0de72bf9f",
      "transactionIndex": "0x3",
      "blockHash": "0xe2706583b0826efc21005c2a6a16da56216b148b7d520d045a87dc2f803e2af5",
      "blockNumber": "0x63f92c4",
      "gasUsed": "0x875a",
      "effectiveGasPrice": "0x5f5e100",
      "from": "0x000ef5f21dc574226a06c76aae7060642a30eb74",
      "to": "0x313adf3fa3479f6bf5aedbc7949ee5e1213f20b7",
      "contractAddress": null,
      "gasUsedForL1": "0x177",
      "l1BlockNumber": "0x6e70fe"
    },
    {
      "status": "0x1",
      "cumulativeGasUsed": "0x875a",
      "logs": [
        {
          "address": "0xf21b5d9574d84ef4c253132691d76f62fee4daab",
          "topics": [
            "0xddf252ad1be2c89b69c2b068fc378daa952ba7f163c4a11628f55a4df523b3ef",
            "0x0000000000000000000000000000000000000000000000000000000000000000",
            "0x000000000000000000000000000ef5f21dc574226a06c76aae7060642a30eb74"
          ],
          "data": "0x000000000000000000000000000000000000314dc6448d9338c15b0a00000000",
          "blockHash": "0x473bd948f8aa7cb0a1aca44887d29de9169b8c01aad2d287671bcae18a6b1f0a",
          "blockNumber": "0x63f92c7",
          "transactionHash": "0x1470adf3fdeb0f79c85128d28ea46633930bc5323ad4a072999b3bfcb3dc6858",
          "transactionIndex": "0x1",
          "logIndex": "0x0",
          "removed": false
        }
      ],
      "logsBloom": "0x00000000000000000000000000000000000000000000000000000000000000000000000000020000000000000000000000000000000000000000000000000000000000000000000000000008000000000000000000000040000000000000000000000000020000000000000400000800000000000000000000000010000000000000000000000000000000040000000000000000000000000000000000000000000000000000000000000000000000000000000008000000000000000000000000000002000000000000000000000000000000000000000000000000040020000000000000000000000000000000000000000000000000000000000000000000",
      "type": "0x2",
      "transactionHash": "0x1470adf3fdeb0f79c85128d28ea46633930bc5323ad4a072999b3bfcb3dc6858",
      "transactionIndex": "0x1",
      "blockHash": "0x473bd948f8aa7cb0a1aca44887d29de9169b8c01aad2d287671bcae18a6b1f0a",
      "blockNumber": "0x63f92c7",
      "gasUsed": "0x875a",
      "effectiveGasPrice": "0x5f5e100",
      "from": "0x000ef5f21dc574226a06c76aae7060642a30eb74",
      "to": "0xf21b5d9574d84ef4c253132691d76f62fee4daab",
      "contractAddress": null,
      "gasUsedForL1": "0x177",
      "l1BlockNumber": "0x6e70fe"
    },
    {
      "status": "0x1",
      "cumulativeGasUsed": "0xe3ce6",
      "logs": [],
      "logsBloom": "0x00000000000000000000000000000000000000000000000000000000000000000000000000000000000000000000000000000000000000000000000000000000000000000000000000000000000000000000000000000000000000000000000000000000000000000000000000000000000000000000000000000000000000000000000000000000000000000000000000000000000000000000000000000000000000000000000000000000000000000000000000000000000000000000000000000000000000000000000000000000000000000000000000000000000000000000000000000000000000000000000000000000000000000000000000000000",
      "type": "0x2",
      "transactionHash": "0xdc427f914248accd5718867f57c165d8d32586e378a387b2160b297cfbf965c5",
      "transactionIndex": "0x4",
      "blockHash": "0x0086050559ebcce18fb5a5e1dd9d578bf024d45bf5d7f4022b8c8406b29f6fad",
      "blockNumber": "0x63f92cf",
      "gasUsed": "0xc20aa",
      "effectiveGasPrice": "0x5f5e100",
      "from": "0x000ef5f21dc574226a06c76aae7060642a30eb74",
      "to": "0x4e59b44847b379578588920ca78fbf26c0b4956c",
      "contractAddress": null,
      "gasUsedForL1": "0x12e7",
      "l1BlockNumber": "0x6e70fe"
    },
    {
      "status": "0x1",
      "cumulativeGasUsed": "0x32f60",
      "logs": [
        {
          "address": "0xc420c3a3f81f2a059ff56d45c0a82d1f9af38dcc",
          "topics": [
            "0xdd466e674ea557f56295e2d0218a125ea4b4f0f6f3307b95f85e6110838d6438",
            "0xe0b23e14aecae6fd45ed9ec1afddea8b3433b3f5793c823612b6d6defadcdd35",
            "0x000000000000000000000000313adf3fa3479f6bf5aedbc7949ee5e1213f20b7",
            "0x000000000000000000000000f21b5d9574d84ef4c253132691d76f62fee4daab"
          ],
          "data": "0x0000000000000000000000000000000000000000000000000000000000000bb800000000000000000000000000000000000000000000000000000000000000780000000000000000000000007e0c31c8ff8f1e6ef42fc25b3daacdb806b9004000000000000000000000000000000000000000010000000000000000000000000000000000000000000000000000000000000000000000000000000000000000",
          "blockHash": "0x5d145ab400eb4e24f7932a382eb3cbc4a6493c71565526b9094334bdc5b9b9a9",
          "blockNumber": "0x63f92d2",
          "transactionHash": "0xd0a953ec667b2fd9bf01c2593ef2bd37c32dde2079294280d2ea0c18bfdfcd34",
          "transactionIndex": "0x2",
          "logIndex": "0x5",
          "removed": false
        }
      ],
      "logsBloom": "0x00000000001000000000000000000000000000000000000001000000000000000002000000000000000000000000000000000000000000000000000000000800400000000000000000000000000000000000000000000000000000000000000000000000000000000000000001000000000000000000000000000000000000000000000000000008000000000000000000000001001000000000000000200000000000000000000020000040000000000800000000000000000000000000000000000000000000000000000000004000000000000000000010000000000000000000000000000000000000000000000000000000000000000000000000000000",
      "type": "0x2",
      "transactionHash": "0xd0a953ec667b2fd9bf01c2593ef2bd37c32dde2079294280d2ea0c18bfdfcd34",
      "transactionIndex": "0x2",
      "blockHash": "0x5d145ab400eb4e24f7932a382eb3cbc4a6493c71565526b9094334bdc5b9b9a9",
      "blockNumber": "0x63f92d2",
      "gasUsed": "0xd067",
      "effectiveGasPrice": "0x5f5e100",
      "from": "0x000ef5f21dc574226a06c76aae7060642a30eb74",
      "to": "0xc420c3a3f81f2a059ff56d45c0a82d1f9af38dcc",
      "contractAddress": null,
      "gasUsedForL1": "0x274",
      "l1BlockNumber": "0x6e70fe"
    },
    {
      "status": "0x1",
      "cumulativeGasUsed": "0x624b8",
      "logs": [
        {
          "address": "0xc420c3a3f81f2a059ff56d45c0a82d1f9af38dcc",
          "topics": [
            "0xf208f4912782fd25c7f114ca3723a2d5dd6f3bcc3ac8db5af63baa85f711d5ec",
            "0xe0b23e14aecae6fd45ed9ec1afddea8b3433b3f5793c823612b6d6defadcdd35",
            "0x0000000000000000000000002298870db1fa24f3f6cc1fa0b2760ab7c1803bc1"
          ],
          "data": "0xffffffffffffffffffffffffffffffffffffffffffffffffffffffffffffff88000000000000000000000000000000000000000000000000000000000000007800000000000000000000000000000000000000000000021e19e0c9bab24000000000000000000000000000000000000000000000000000000000000000000000",
          "blockHash": "0x44e55ed24e8a8a2e3452df3d3f2013093b4eeef4e8c7aa3da627565f133c8305",
          "blockNumber": "0x63f92d5",
          "transactionHash": "0xecaf5dea687fb7483e4efc98d0e741b177456412cdcd7fff2908e1e86a496903",
          "transactionIndex": "0x4",
          "logIndex": "0x3",
          "removed": false
        },
        {
          "address": "0x313adf3fa3479f6bf5aedbc7949ee5e1213f20b7",
          "topics": [
            "0xddf252ad1be2c89b69c2b068fc378daa952ba7f163c4a11628f55a4df523b3ef",
            "0x000000000000000000000000000ef5f21dc574226a06c76aae7060642a30eb74",
            "0x000000000000000000000000c420c3a3f81f2a059ff56d45c0a82d1f9af38dcc"
          ],
          "data": "0x0000000000000000000000000000000000000000000000033e2204017b30d746",
          "blockHash": "0x44e55ed24e8a8a2e3452df3d3f2013093b4eeef4e8c7aa3da627565f133c8305",
          "blockNumber": "0x63f92d5",
          "transactionHash": "0xecaf5dea687fb7483e4efc98d0e741b177456412cdcd7fff2908e1e86a496903",
          "transactionIndex": "0x4",
          "logIndex": "0x4",
          "removed": false
        },
        {
          "address": "0xf21b5d9574d84ef4c253132691d76f62fee4daab",
          "topics": [
            "0xddf252ad1be2c89b69c2b068fc378daa952ba7f163c4a11628f55a4df523b3ef",
            "0x000000000000000000000000000ef5f21dc574226a06c76aae7060642a30eb74",
            "0x000000000000000000000000c420c3a3f81f2a059ff56d45c0a82d1f9af38dcc"
          ],
          "data": "0x0000000000000000000000000000000000000000000000033e2204017b30d746",
          "blockHash": "0x44e55ed24e8a8a2e3452df3d3f2013093b4eeef4e8c7aa3da627565f133c8305",
          "blockNumber": "0x63f92d5",
          "transactionHash": "0xecaf5dea687fb7483e4efc98d0e741b177456412cdcd7fff2908e1e86a496903",
          "transactionIndex": "0x4",
          "logIndex": "0x5",
          "removed": false
        }
      ],
      "logsBloom": "0x00000000001000000000000000000000000000000000000001000000000000000002000000020000000000000000000000000000000000000000000000000000000000000000000000000008000000000000000000000040000000000000000000000000000000000000000401000000100000000000000000000012000000000000000801000000000000040000000000000000000000000000040000004000000004000800000000000040000000000800000008000000000000000000000000000002000000000000000000000000000000000000000000000000040000000000000000000000000000000000000004000000000100000000004000080000",
      "type": "0x2",
      "transactionHash": "0xecaf5dea687fb7483e4efc98d0e741b177456412cdcd7fff2908e1e86a496903",
      "transactionIndex": "0x4",
      "blockHash": "0x44e55ed24e8a8a2e3452df3d3f2013093b4eeef4e8c7aa3da627565f133c8305",
      "blockNumber": "0x63f92d5",
      "gasUsed": "0x40ddf",
      "effectiveGasPrice": "0x5f5e100",
      "from": "0x000ef5f21dc574226a06c76aae7060642a30eb74",
      "to": "0x2298870db1fa24f3f6cc1fa0b2760ab7c1803bc1",
      "contractAddress": null,
      "gasUsedForL1": "0x2b5",
      "l1BlockNumber": "0x6e70fe"
    }
  ],
  "libraries": [],
  "pending": [],
  "returns": {},
  "timestamp": 1733675991,
  "chain": 421614,
  "commit": "8476dd6"
}