{
  "transactions": [
    {
      "hash": "0x79922382bcd38ea2c6599212d62d277a3eb464cdf74791e3db6e964f48c21776",
      "transactionType": "CALL",
      "contractName": null,
      "contractAddress": "0x313adf3fa3479f6bf5aedbc7949ee5e1213f20b7",
      "function": "approve(address,uint256)",
      "arguments": [
        "0x2298870DB1Fa24F3F6cc1fa0B2760AB7c1803bC1",
        "115792089237316195423570985008687907853269984665640564039457584007913129639935"
      ],
      "transaction": {
        "from": "0x000ef5f21dc574226a06c76aae7060642a30eb74",
        "to": "0x313adf3fa3479f6bf5aedbc7949ee5e1213f20b7",
        "gas": "0x8d2f",
        "value": "0x0",
        "input": "0x095ea7b30000000000000000000000002298870db1fa24f3f6cc1fa0b2760ab7c1803bc1ffffffffffffffffffffffffffffffffffffffffffffffffffffffffffffffff",
        "nonce": "0x175",
        "chainId": "0x66eee"
      },
      "additionalContracts": [],
      "isFixedGasLimit": false
    },
    {
      "hash": "0xfda39c91cd3908d8079e023c281a91e9690a655b852f83ffa527c9a21c40c1cd",
      "transactionType": "CALL",
      "contractName": null,
      "contractAddress": "0xf21b5d9574d84ef4c253132691d76f62fee4daab",
      "function": "approve(address,uint256)",
      "arguments": [
        "0x2298870DB1Fa24F3F6cc1fa0B2760AB7c1803bC1",
        "115792089237316195423570985008687907853269984665640564039457584007913129639935"
      ],
      "transaction": {
        "from": "0x000ef5f21dc574226a06c76aae7060642a30eb74",
        "to": "0xf21b5d9574d84ef4c253132691d76f62fee4daab",
        "gas": "0x8d2f",
        "value": "0x0",
        "input": "0x095ea7b30000000000000000000000002298870db1fa24f3f6cc1fa0b2760ab7c1803bc1ffffffffffffffffffffffffffffffffffffffffffffffffffffffffffffffff",
        "nonce": "0x176",
        "chainId": "0x66eee"
      },
      "additionalContracts": [],
      "isFixedGasLimit": false
    },
    {
      "hash": "0xb19879dcd41138f38c42e70948db79de8e96214afce2dedc9fe27eb1e4253117",
      "transactionType": "CALL",
      "contractName": null,
      "contractAddress": "0x313adf3fa3479f6bf5aedbc7949ee5e1213f20b7",
      "function": "approve(address,uint256)",
      "arguments": [
        "0x1649883be9b0d4D83092CDB430c42E6d5C1B7cAB",
        "115792089237316195423570985008687907853269984665640564039457584007913129639935"
      ],
      "transaction": {
        "from": "0x000ef5f21dc574226a06c76aae7060642a30eb74",
        "to": "0x313adf3fa3479f6bf5aedbc7949ee5e1213f20b7",
        "gas": "0x8d2f",
        "value": "0x0",
        "input": "0x095ea7b30000000000000000000000001649883be9b0d4d83092cdb430c42e6d5c1b7cabffffffffffffffffffffffffffffffffffffffffffffffffffffffffffffffff",
        "nonce": "0x177",
        "chainId": "0x66eee"
      },
      "additionalContracts": [],
      "isFixedGasLimit": false
    },
    {
      "hash": "0xf84be1393f37f0c761682a2a98e76c37b58f406e21313a5a38e37cbbf530a59a",
      "transactionType": "CALL",
      "contractName": null,
      "contractAddress": "0xf21b5d9574d84ef4c253132691d76f62fee4daab",
      "function": "approve(address,uint256)",
      "arguments": [
        "0x1649883be9b0d4D83092CDB430c42E6d5C1B7cAB",
        "115792089237316195423570985008687907853269984665640564039457584007913129639935"
      ],
      "transaction": {
        "from": "0x000ef5f21dc574226a06c76aae7060642a30eb74",
        "to": "0xf21b5d9574d84ef4c253132691d76f62fee4daab",
        "gas": "0x8d2f",
        "value": "0x0",
        "input": "0x095ea7b30000000000000000000000001649883be9b0d4d83092cdb430c42e6d5c1b7cabffffffffffffffffffffffffffffffffffffffffffffffffffffffffffffffff",
        "nonce": "0x178",
        "chainId": "0x66eee"
      },
      "additionalContracts": [],
      "isFixedGasLimit": false
    },
    {
      "hash": "0xde3855d323c0f1e1fe025e9463e6f67e236f51f91decaee925d4a9d90f3f5496",
      "transactionType": "CALL",
      "contractName": null,
      "contractAddress": "0x313adf3fa3479f6bf5aedbc7949ee5e1213f20b7",
      "function": "mint(address,uint256)",
      "arguments": [
        "0x000ef5F21dC574226A06C76AAE7060642A30eB74",
        "1000000000000000000000000000000000"
      ],
      "transaction": {
        "from": "0x000ef5f21dc574226a06c76aae7060642a30eb74",
        "to": "0x313adf3fa3479f6bf5aedbc7949ee5e1213f20b7",
        "gas": "0xb336",
        "value": "0x0",
        "input": "0x40c10f19000000000000000000000000000ef5f21dc574226a06c76aae7060642a30eb74000000000000000000000000000000000000314dc6448d9338c15b0a00000000",
        "nonce": "0x179",
        "chainId": "0x66eee"
      },
      "additionalContracts": [],
      "isFixedGasLimit": false
    },
    {
      "hash": "0x92e84b47981c60ff9b97f428fd93ce6905d9ab4ea3e8b93066d1fdabdd780132",
      "transactionType": "CALL",
      "contractName": null,
      "contractAddress": "0xf21b5d9574d84ef4c253132691d76f62fee4daab",
      "function": "mint(address,uint256)",
      "arguments": [
        "0x000ef5F21dC574226A06C76AAE7060642A30eB74",
        "1000000000000000000000000000000000"
      ],
      "transaction": {
        "from": "0x000ef5f21dc574226a06c76aae7060642a30eb74",
        "to": "0xf21b5d9574d84ef4c253132691d76f62fee4daab",
        "gas": "0xb336",
        "value": "0x0",
        "input": "0x40c10f19000000000000000000000000000ef5f21dc574226a06c76aae7060642a30eb74000000000000000000000000000000000000314dc6448d9338c15b0a00000000",
        "nonce": "0x17a",
        "chainId": "0x66eee"
      },
      "additionalContracts": [],
      "isFixedGasLimit": false
    },
    {
      "hash": "0x8d6623563ca7040ace67c43bc959b819c45189e7f1a5a99ca07be330acdd90f9",
      "transactionType": "CREATE2",
      "contractName": "RiskManagerHook",
      "contractAddress": "0x8a6709e7c9cce0c1c2d1669b00d56670b8de4088",
      "function": null,
      "arguments": [
        "0xc420C3A3F81f2A059fF56D45c0A82D1F9aF38dCc",
        "0x086CcAf62d35E15300f8719c950A90269F9d72C6"
      ],
      "transaction": {
        "from": "0x000ef5f21dc574226a06c76aae7060642a30eb74",
        "to": "0x4e59b44847b379578588920ca78fbf26c0b4956c",
        "gas": "0x118d8e",
        "value": "0x0",
        "input": "0x000000000000000000000000000000000000000000000000000000000000698960a060405234801561000f575f80fd5b5060405161111c38038061111c83398101604081905261002e916102d7565b6001600160a01b038216608052816100453061006b565b505f80546001600160a01b0319166001600160a01b03929092169190911790555061030f565b61015b81610156604080516101c0810182525f80825260208201819052918101829052606081018290526080810182905260a0810182905260c0810182905260e08101829052610100810182905261012081018290526101408101829052610160810182905261018081018290526101a081019190915250604080516101c0810182525f80825260208201819052918101829052606081018290526080810182905260a08101829052600160c0820181905260e0820183905261010082018390526101208201839052610140820152610160810182905261018081018290526101a081019190915290565b61015e565b50565b80511515612000831615151415806101825750602081015115156110008316151514155b806101995750604081015115156108008316151514155b806101b05750606081015115156104008316151514155b806101c75750608081015115156102008316151514155b806101de575060a081015115156101008316151514155b806101f4575060c0810151151560808316151514155b8061020a575060e0810151151560408316151514155b806102215750610100810151151560208316151514155b806102385750610120810151151560108316151514155b8061024f5750610140810151151560088316151514155b806102665750610160810151151560048316151514155b8061027d5750610180810151151560028316151514155b8061029457506101a0810151151560018316151514155b156102aa576102aa630732d7b560e51b836102ae565b5050565b815f526001600160a01b03811660045260245ffd5b6001600160a01b038116811461015b575f80fd5b5f80604083850312156102e8575f80fd5b82516102f3816102c3565b6020840151909250610304816102c3565b809150509250929050565b608051610de76103355f395f818161031b0152818161058801526106ae0152610de75ff3fe608060405234801561000f575f80fd5b50600436106100e5575f3560e01c80639f063efc11610088578063c4e833ce11610063578063c4e833ce14610222578063dc4c90d314610316578063dc98354e1461033d578063e1b4af6914610214575f80fd5b80639f063efc14610182578063b47b2fb1146101e3578063b6a8b0fa14610214575f80fd5b8063575e24b4116100c3578063575e24b4146101445780636c2bbe7e146101825780636fe7e6eb146101b557806391dd7346146101c3575f80fd5b806321d0ee70146100e9578063259982e5146100e9578063478426631461011a575b5f80fd5b6100fc6100f736600461081a565b61034b565b6040516001600160e01b031990911681526020015b60405180910390f35b5f5461012c906001600160a01b031681565b6040516001600160a01b039091168152602001610111565b6101576101523660046108a1565b610365565b604080516001600160e01b03199094168452602084019290925262ffffff1690820152606001610111565b6101956101903660046108fb565b610686565b604080516001600160e01b03199093168352602083019190915201610111565b6100fc6100f7366004610986565b6101d66101d13660046109e5565b6106a1565b6040516101119190610a24565b6101f1610190366004610a59565b604080516001600160e01b03199093168352600f9190910b602083015201610111565b6100fc6100f7366004610ada565b610309604080516101c0810182525f80825260208201819052918101829052606081018290526080810182905260a0810182905260c0810182905260e08101829052610100810182905261012081018290526101408101829052610160810182905261018081018290526101a081019190915250604080516101c0810182525f80825260208201819052918101829052606081018290526080810182905260a08101829052600160c0820181905260e0820183905261010082018390526101208201839052610140820152610160810182905261018081018290526101a081019190915290565b6040516101119190610b34565b61012c7f000000000000000000000000000000000000000000000000000000000000000081565b6100fc6100f7366004610c55565b5f604051630a85dc2960e01b815260040160405180910390fd5b5f8080806103766020880188610ca9565b61038f5761038a6040890160208a01610ccb565b61039c565b61039c6020890189610ccb565b90505f6103ac6020890189610ca9565b6103c2576103bd60208a018a610ccb565b6103d2565b6103d260408a0160208b01610ccb565b90505f6103e560608a0160408b01610ccb565b90505f6103f560208b018b610ca9565b610403578960200135610432565b6c010000000000000000000000006104286001600160a01b03841660208d0135610cfa565b6104329190610d11565b90505f61044260208c018c610ca9565b61047a576c0100000000000000000000000061046b6001600160a01b03851660208e0135610cfa565b6104759190610d11565b610480565b8a602001355b90505f806104908b8d018d610d30565b5f54604051635ddb109d60e11b81526001600160a01b038085166004830152602482018490528b81166044830152606482018990528a8116608483015260a48201889052939550919350919091169063bbb6213a9060c401602060405180830381865afa158015610503573d5f803e3d5ffd5b505050506040513d601f19601f820116820180604052508101906105279190610d5a565b610663575f8d602001351215610663575f61054560208f018f610ca9565b610561578e602001602081019061055c9190610ccb565b610573565b8e5f0160208101906105739190610ccb565b90505f8e6020013561058490610d75565b90507f00000000000000000000000000000000000000000000000000000000000000006001600160a01b031663156e29f6306105cf856001600160a01b03166001600160a01b031690565b6040516001600160e01b031960e085901b1681526001600160a01b03909216600483015260248201526fffffffffffffffffffffffffffffffff841660448201526064015f604051808303815f87803b15801561062a575f80fd5b505af115801561063c573d5f803e3d5ffd5b506315d7892d60e21b92505050608082901b5f9b509b509b5050505050505050505061067b565b506315d7892d60e21b98505f97508796505050505050505b955095509592505050565b5f80604051630a85dc2960e01b815260040160405180910390fd5b6060336001600160a01b037f000000000000000000000000000000000000000000000000000000000000000016146106ec5760405163570c108560e11b815260040160405180910390fd5b6106f683836106ff565b90505b92915050565b60605f80306001600160a01b0316858560405161071d929190610da2565b5f604051808303815f865af19150503d805f8114610756576040519150601f19603f3d011682016040523d82523d5f602084013e61075b565b606091505b5091509150811561076f5791506106f99050565b80515f03610790576040516314815f4760e31b815260040160405180910390fd5b805160208201fd5b6001600160a01b03811681146107ac575f80fd5b50565b5f60a082840312156107bf575f80fd5b50919050565b5f608082840312156107bf575f80fd5b5f8083601f8401126107e5575f80fd5b50813567ffffffffffffffff8111156107fc575f80fd5b602083019150836020828501011115610813575f80fd5b9250929050565b5f805f805f610160868803121561082f575f80fd5b853561083a81610798565b945061084987602088016107af565b93506108588760c088016107c5565b925061014086013567ffffffffffffffff811115610874575f80fd5b610880888289016107d5565b969995985093965092949392505050565b5f606082840312156107bf575f80fd5b5f805f805f61014086880312156108b6575f80fd5b85356108c181610798565b94506108d087602088016107af565b93506108df8760c08801610891565b925061012086013567ffffffffffffffff811115610874575f80fd5b5f805f805f805f6101a0888a031215610912575f80fd5b873561091d81610798565b965061092c8960208a016107af565b955061093b8960c08a016107c5565b94506101408801359350610160880135925061018088013567ffffffffffffffff811115610967575f80fd5b6109738a828b016107d5565b989b979a50959850939692959293505050565b5f805f80610100858703121561099a575f80fd5b84356109a581610798565b93506109b486602087016107af565b925060c08501356109c481610798565b915060e0850135600281900b81146109da575f80fd5b939692955090935050565b5f80602083850312156109f6575f80fd5b823567ffffffffffffffff811115610a0c575f80fd5b610a18858286016107d5565b90969095509350505050565b602081525f82518060208401528060208501604085015e5f604082850101526040601f19601f83011684010191505092915050565b5f805f805f806101608789031215610a6f575f80fd5b8635610a7a81610798565b9550610a8988602089016107af565b9450610a988860c08901610891565b9350610120870135925061014087013567ffffffffffffffff811115610abc575f80fd5b610ac889828a016107d5565b979a9699509497509295939492505050565b5f805f805f806101208789031215610af0575f80fd5b8635610afb81610798565b9550610b0a88602089016107af565b945060c0870135935060e0870135925061010087013567ffffffffffffffff811115610abc575f80fd5b8151151581526101c081016020830151610b52602084018215159052565b506040830151610b66604084018215159052565b506060830151610b7a606084018215159052565b506080830151610b8e608084018215159052565b5060a0830151610ba260a084018215159052565b5060c0830151610bb660c084018215159052565b5060e0830151610bca60e084018215159052565b50610100830151610be061010084018215159052565b50610120830151610bf661012084018215159052565b50610140830151610c0c61014084018215159052565b50610160830151610c2261016084018215159052565b50610180830151610c3861018084018215159052565b506101a0830151610c4e6101a084018215159052565b5092915050565b5f805f60e08486031215610c67575f80fd5b8335610c7281610798565b9250610c8185602086016107af565b915060c0840135610c9181610798565b809150509250925092565b80151581146107ac575f80fd5b5f60208284031215610cb9575f80fd5b8135610cc481610c9c565b9392505050565b5f60208284031215610cdb575f80fd5b8135610cc481610798565b634e487b7160e01b5f52601160045260245ffd5b80820281158282048414176106f9576106f9610ce6565b5f82610d2b57634e487b7160e01b5f52601260045260245ffd5b500490565b5f8060408385031215610d41575f80fd5b8235610d4c81610798565b946020939093013593505050565b5f60208284031215610d6a575f80fd5b8151610cc481610c9c565b5f81600f0b6f7fffffffffffffffffffffffffffffff198103610d9a57610d9a610ce6565b5f0392915050565b818382375f910190815291905056fea26469706673582212206ce2e99337fa679d5113588bb6f7c5d716b2c7b831372f51fe427a6c82a542b064736f6c634300081a0033000000000000000000000000c420c3a3f81f2a059ff56d45c0a82d1f9af38dcc000000000000000000000000086ccaf62d35e15300f8719c950a90269f9d72c6",
        "nonce": "0x17b",
        "chainId": "0x66eee"
      },
      "additionalContracts": [],
      "isFixedGasLimit": false
    },
    {
      "hash": "0x0fa596b98f35c4ce514ea5fffd5de99dceea1a0c5fb67740841a7063f04f9bff",
      "transactionType": "CALL",
      "contractName": null,
      "contractAddress": "0xc420c3a3f81f2a059ff56d45c0a82d1f9af38dcc",
      "function": "initialize((address,address,uint24,int24,address),uint160)",
      "arguments": [
        "(0x313Adf3Fa3479F6Bf5aedBc7949EE5e1213F20B7, 0xf21B5d9574d84eF4c253132691D76F62FEE4Daab, 3000, 120, 0x8A6709e7c9CcE0c1C2d1669b00d56670B8de4088)",
        "79228162514264337593543950336"
      ],
      "transaction": {
        "from": "0x000ef5f21dc574226a06c76aae7060642a30eb74",
        "to": "0xc420c3a3f81f2a059ff56d45c0a82d1f9af38dcc",
        "gas": "0x11512",
        "value": "0x0",
        "input": "0x6276cbbe000000000000000000000000313adf3fa3479f6bf5aedbc7949ee5e1213f20b7000000000000000000000000f21b5d9574d84ef4c253132691d76f62fee4daab0000000000000000000000000000000000000000000000000000000000000bb800000000000000000000000000000000000000000000000000000000000000780000000000000000000000008a6709e7c9cce0c1c2d1669b00d56670b8de40880000000000000000000000000000000000000001000000000000000000000000",
        "nonce": "0x17c",
        "chainId": "0x66eee"
      },
      "additionalContracts": [],
      "isFixedGasLimit": false
    },
    {
      "hash": "0x90c6afcf6d920b1c4541c41c1113c1bf35d2419ee3eaf6732b2b4be561d807eb",
      "transactionType": "CALL",
      "contractName": null,
      "contractAddress": "0x2298870db1fa24f3f6cc1fa0b2760ab7c1803bc1",
      "function": "modifyLiquidity((address,address,uint24,int24,address),(int24,int24,int256,bytes32),bytes)",
      "arguments": [
        "(0x313Adf3Fa3479F6Bf5aedBc7949EE5e1213F20B7, 0xf21B5d9574d84eF4c253132691D76F62FEE4Daab, 3000, 120, 0x8A6709e7c9CcE0c1C2d1669b00d56670B8de4088)",
        "(-120, 120, 10000000000000000000000, 0x0000000000000000000000000000000000000000000000000000000000000000)",
        "0x"
      ],
      "transaction": {
        "from": "0x000ef5f21dc574226a06c76aae7060642a30eb74",
        "to": "0x2298870db1fa24f3f6cc1fa0b2760ab7c1803bc1",
        "gas": "0x5e9ed",
        "value": "0x0",
        "input": "0x5a6bcfda000000000000000000000000313adf3fa3479f6bf5aedbc7949ee5e1213f20b7000000000000000000000000f21b5d9574d84ef4c253132691d76f62fee4daab0000000000000000000000000000000000000000000000000000000000000bb800000000000000000000000000000000000000000000000000000000000000780000000000000000000000008a6709e7c9cce0c1c2d1669b00d56670b8de4088ffffffffffffffffffffffffffffffffffffffffffffffffffffffffffffff88000000000000000000000000000000000000000000000000000000000000007800000000000000000000000000000000000000000000021e19e0c9bab2400000000000000000000000000000000000000000000000000000000000000000000000000000000000000000000000000000000000000000000000000000000001400000000000000000000000000000000000000000000000000000000000000000",
        "nonce": "0x17d",
        "chainId": "0x66eee"
      },
      "additionalContracts": [],
      "isFixedGasLimit": false
    }
  ],
  "receipts": [
    {
      "status": "0x1",
      "cumulativeGasUsed": "0x1f2b2",
      "logs": [
        {
          "address": "0x313adf3fa3479f6bf5aedbc7949ee5e1213f20b7",
          "topics": [
            "0x8c5be1e5ebec7d5bd14f71427d1e84f3dd0314c0f7b2291e5b200ac8c7c3b925",
            "0x000000000000000000000000000ef5f21dc574226a06c76aae7060642a30eb74",
            "0x0000000000000000000000002298870db1fa24f3f6cc1fa0b2760ab7c1803bc1"
          ],
          "data": "0xffffffffffffffffffffffffffffffffffffffffffffffffffffffffffffffff",
          "blockHash": "0xfb9e3f5055b6b47c7fc7bbd97d84651ba1e3a18e493420dd62e422d4cf42e721",
          "blockNumber": "0x6404bb3",
          "transactionHash": "0x79922382bcd38ea2c6599212d62d277a3eb464cdf74791e3db6e964f48c21776",
          "transactionIndex": "0x2",
          "logIndex": "0x2",
          "removed": false
        }
      ],
      "logsBloom": "0x00000000000000000000000000000000000000000000000000000000000000000000000000020000000000000000000000000000000000000000000000200000000000000000000000000000000000000000000000000000000000000000000000000000000000000000000400000000100000000000000000000002000000000000000000000000000000000000000000000000000000000000000000004000020000000800000000000000000000000000000000000000000000000000000000000000000000000000000000000000000000000000000000000000040000000010000000000000000000000000000000000000000100000000000000080000",
      "type": "0x2",
      "transactionHash": "0x79922382bcd38ea2c6599212d62d277a3eb464cdf74791e3db6e964f48c21776",
      "transactionIndex": "0x2",
      "blockHash": "0xfb9e3f5055b6b47c7fc7bbd97d84651ba1e3a18e493420dd62e422d4cf42e721",
      "blockNumber": "0x6404bb3",
      "gasUsed": "0x6ab2",
      "effectiveGasPrice": "0x5f5e100",
      "from": "0x000ef5f21dc574226a06c76aae7060642a30eb74",
      "to": "0x313adf3fa3479f6bf5aedbc7949ee5e1213f20b7",
      "contractAddress": null,
      "gasUsedForL1": "0x200",
      "l1BlockNumber": "0x6e74be"
    },
    {
      "status": "0x1",
      "cumulativeGasUsed": "0x1c671",
      "logs": [
        {
          "address": "0xf21b5d9574d84ef4c253132691d76f62fee4daab",
          "topics": [
            "0x8c5be1e5ebec7d5bd14f71427d1e84f3dd0314c0f7b2291e5b200ac8c7c3b925",
            "0x000000000000000000000000000ef5f21dc574226a06c76aae7060642a30eb74",
            "0x0000000000000000000000002298870db1fa24f3f6cc1fa0b2760ab7c1803bc1"
          ],
          "data": "0xffffffffffffffffffffffffffffffffffffffffffffffffffffffffffffffff",
          "blockHash": "0x391ce53b5f76688e8d87a41885423b7b64e0a379f0c6fb02968ea754b1febc16",
          "blockNumber": "0x6404bc1",
          "transactionHash": "0xfda39c91cd3908d8079e023c281a91e9690a655b852f83ffa527c9a21c40c1cd",
          "transactionIndex": "0x2",
          "logIndex": "0x2",
          "removed": false
        }
      ],
      "logsBloom": "0x00000000000000000000000000000000000000000000000000000000000000000000000000020000000000000000000000000000000000000000000000200000000000000000000000000000000000000000000000000040000000000000000000000000000000000000000400000000100000000000000000000000000000000000000000000000000000040000000000000000000000000000000000000000020000000800000000000000000000000000000008000000000000000000000000000000000000000000000000000000000000000000000000000000040000000010000000000000000000000000000000000000000100000000000000000000",
      "type": "0x2",
      "transactionHash": "0xfda39c91cd3908d8079e023c281a91e9690a655b852f83ffa527c9a21c40c1cd",
      "transactionIndex": "0x2",
      "blockHash": "0x391ce53b5f76688e8d87a41885423b7b64e0a379f0c6fb02968ea754b1febc16",
      "blockNumber": "0x6404bc1",
      "gasUsed": "0x6ab2",
      "effectiveGasPrice": "0x5f5e100",
      "from": "0x000ef5f21dc574226a06c76aae7060642a30eb74",
      "to": "0xf21b5d9574d84ef4c253132691d76f62fee4daab",
      "contractAddress": null,
      "gasUsedForL1": "0x200",
      "l1BlockNumber": "0x6e74be"
    },
    {
      "status": "0x1",
      "cumulativeGasUsed": "0x6ab2",
      "logs": [
        {
          "address": "0x313adf3fa3479f6bf5aedbc7949ee5e1213f20b7",
          "topics": [
            "0x8c5be1e5ebec7d5bd14f71427d1e84f3dd0314c0f7b2291e5b200ac8c7c3b925",
            "0x000000000000000000000000000ef5f21dc574226a06c76aae7060642a30eb74",
            "0x0000000000000000000000001649883be9b0d4d83092cdb430c42e6d5c1b7cab"
          ],
          "data": "0xffffffffffffffffffffffffffffffffffffffffffffffffffffffffffffffff",
          "blockHash": "0x4561bfd446a6a378d38cf7138c9b20a583edcd24fa1da5775ebe2c1370b361c9",
          "blockNumber": "0x6404bcd",
          "transactionHash": "0xb19879dcd41138f38c42e70948db79de8e96214afce2dedc9fe27eb1e4253117",
          "transactionIndex": "0x1",
          "logIndex": "0x0",
          "removed": false
        }
      ],
      "logsBloom": "0x00000000000000000000000000000000000000000000000000000000000000000000000000020000000000000000000000000000000000000000000000200000000000000000000000000000000000000000000000000000000000000000000000000000000000000000000400000000000000000000000000000002000000000000000000000000000000000000000000000000000000000008000000004000020000000000000000000000000000000000000000000400000000000000000000000000000800000000000000000000000000000000000000000000040000000010000000000000000000000000000000000000000000000000000000080000",
      "type": "0x2",
      "transactionHash": "0xb19879dcd41138f38c42e70948db79de8e96214afce2dedc9fe27eb1e4253117",
      "transactionIndex": "0x1",
      "blockHash": "0x4561bfd446a6a378d38cf7138c9b20a583edcd24fa1da5775ebe2c1370b361c9",
      "blockNumber": "0x6404bcd",
      "gasUsed": "0x6ab2",
      "effectiveGasPrice": "0x5f5e100",
      "from": "0x000ef5f21dc574226a06c76aae7060642a30eb74",
      "to": "0x313adf3fa3479f6bf5aedbc7949ee5e1213f20b7",
      "contractAddress": null,
      "gasUsedForL1": "0x200",
      "l1BlockNumber": "0x6e74be"
    },
    {
      "status": "0x1",
      "cumulativeGasUsed": "0x4a2ee",
      "logs": [
        {
          "address": "0xf21b5d9574d84ef4c253132691d76f62fee4daab",
          "topics": [
            "0x8c5be1e5ebec7d5bd14f71427d1e84f3dd0314c0f7b2291e5b200ac8c7c3b925",
            "0x000000000000000000000000000ef5f21dc574226a06c76aae7060642a30eb74",
            "0x0000000000000000000000001649883be9b0d4d83092cdb430c42e6d5c1b7cab"
          ],
          "data": "0xffffffffffffffffffffffffffffffffffffffffffffffffffffffffffffffff",
          "blockHash": "0x608c8bc3e3ae9122f1f94da1453700c8c4502b5267a93450a43b536b272e5b3d",
          "blockNumber": "0x6404bd8",
          "transactionHash": "0xf84be1393f37f0c761682a2a98e76c37b58f406e21313a5a38e37cbbf530a59a",
          "transactionIndex": "0x4",
          "logIndex": "0x4",
          "removed": false
        }
      ],
      "logsBloom": "0x00000000000000000000000000000000000000000000000000000000000000000000000000020000000000000000000000000000000000000000000000200000000000000000000000000000000000000000000000000040000000000000000000000000000000000000000400000000000000000000000000000000000000000000000000000000000000040000000000000000000000000008000000000000020000000000000000000000000000000000000008000400000000000000000000000000000800000000000000000000000000000000000000000000040000000010000000000000000000000000000000000000000000000000000000000000",
      "type": "0x2",
      "transactionHash": "0xf84be1393f37f0c761682a2a98e76c37b58f406e21313a5a38e37cbbf530a59a",
      "transactionIndex": "0x4",
      "blockHash": "0x608c8bc3e3ae9122f1f94da1453700c8c4502b5267a93450a43b536b272e5b3d",
      "blockNumber": "0x6404bd8",
      "gasUsed": "0x6ab2",
      "effectiveGasPrice": "0x5f5e100",
      "from": "0x000ef5f21dc574226a06c76aae7060642a30eb74",
      "to": "0xf21b5d9574d84ef4c253132691d76f62fee4daab",
      "contractAddress": null,
      "gasUsedForL1": "0x200",
      "l1BlockNumber": "0x6e74be"
    },
    {
      "status": "0x1",
      "cumulativeGasUsed": "0x44862",
      "logs": [
        {
          "address": "0x313adf3fa3479f6bf5aedbc7949ee5e1213f20b7",
          "topics": [
            "0xddf252ad1be2c89b69c2b068fc378daa952ba7f163c4a11628f55a4df523b3ef",
            "0x0000000000000000000000000000000000000000000000000000000000000000",
            "0x000000000000000000000000000ef5f21dc574226a06c76aae7060642a30eb74"
          ],
          "data": "0x000000000000000000000000000000000000314dc6448d9338c15b0a00000000",
          "blockHash": "0xa1ad75b937c1fd4f6f7f668128aab64bec29472777e65f58cde70263169b711e",
          "blockNumber": "0x6404beb",
          "transactionHash": "0xde3855d323c0f1e1fe025e9463e6f67e236f51f91decaee925d4a9d90f3f5496",
          "transactionIndex": "0x3",
          "logIndex": "0x3",
          "removed": false
        }
      ],
      "logsBloom": "0x00000000000000000000000000000000000000000000000000000000000000000000000000020000000000000000000000000000000000000000000000000000000000000000000000000008000000000000000000000000000000000000000000000000020000000000000400000800000000000000000000000012000000000000000000000000000000000000000000000000000000000000000000004000000000000000000000000000000000000000000000000000000000000000000000000002000000000000000000000000000000000000000000000000040020000000000000000000000000000000000000000000000000000000000000080000",
      "type": "0x2",
      "transactionHash": "0xde3855d323c0f1e1fe025e9463e6f67e236f51f91decaee925d4a9d90f3f5496",
      "transactionIndex": "0x3",
      "blockHash": "0xa1ad75b937c1fd4f6f7f668128aab64bec29472777e65f58cde70263169b711e",
      "blockNumber": "0x6404beb",
      "gasUsed": "0x87e3",
      "effectiveGasPrice": "0x5f5e100",
      "from": "0x000ef5f21dc574226a06c76aae7060642a30eb74",
      "to": "0x313adf3fa3479f6bf5aedbc7949ee5e1213f20b7",
      "contractAddress": null,
      "gasUsedForL1": "0x200",
      "l1BlockNumber": "0x6e74be"
    },
    {
      "status": "0x1",
      "cumulativeGasUsed": "0x7487a",
      "logs": [
        {
          "address": "0xf21b5d9574d84ef4c253132691d76f62fee4daab",
          "topics": [
            "0xddf252ad1be2c89b69c2b068fc378daa952ba7f163c4a11628f55a4df523b3ef",
            "0x0000000000000000000000000000000000000000000000000000000000000000",
            "0x000000000000000000000000000ef5f21dc574226a06c76aae7060642a30eb74"
          ],
          "data": "0x000000000000000000000000000000000000314dc6448d9338c15b0a00000000",
          "blockHash": "0x7ca1a2935b304901c2ce57c30870989e8f48dc05bab84b122965d0f67d1f82ff",
          "blockNumber": "0x6404c02",
          "transactionHash": "0x92e84b47981c60ff9b97f428fd93ce6905d9ab4ea3e8b93066d1fdabdd780132",
          "transactionIndex": "0x6",
          "logIndex": "0xb",
          "removed": false
        }
      ],
      "logsBloom": "0x00000000000000000000000000000000000000000000000000000000000000000000000000020000000000000000000000000000000000000000000000000000000000000000000000000008000000000000000000000040000000000000000000000000020000000000000400000800000000000000000000000010000000000000000000000000000000040000000000000000000000000000000000000000000000000000000000000000000000000000000008000000000000000000000000000002000000000000000000000000000000000000000000000000040020000000000000000000000000000000000000000000000000000000000000000000",
      "type": "0x2",
      "transactionHash": "0x92e84b47981c60ff9b97f428fd93ce6905d9ab4ea3e8b93066d1fdabdd780132",
      "transactionIndex": "0x6",
      "blockHash": "0x7ca1a2935b304901c2ce57c30870989e8f48dc05bab84b122965d0f67d1f82ff",
      "blockNumber": "0x6404c02",
      "gasUsed": "0x87c9",
      "effectiveGasPrice": "0x64a69a0",
      "from": "0x000ef5f21dc574226a06c76aae7060642a30eb74",
      "to": "0xf21b5d9574d84ef4c253132691d76f62fee4daab",
      "contractAddress": null,
      "gasUsedForL1": "0x1e6",
      "l1BlockNumber": "0x6e74be"
    },
    {
      "status": "0x1",
      "cumulativeGasUsed": "0x1938a8",
      "logs": [],
      "logsBloom": "0x00000000000000000000000000000000000000000000000000000000000000000000000000000000000000000000000000000000000000000000000000000000000000000000000000000000000000000000000000000000000000000000000000000000000000000000000000000000000000000000000000000000000000000000000000000000000000000000000000000000000000000000000000000000000000000000000000000000000000000000000000000000000000000000000000000000000000000000000000000000000000000000000000000000000000000000000000000000000000000000000000000000000000000000000000000000",
      "type": "0x2",
      "transactionHash": "0x8d6623563ca7040ace67c43bc959b819c45189e7f1a5a99ca07be330acdd90f9",
      "transactionIndex": "0x6",
      "blockHash": "0x1deef95023c3901effc5adce083984f9646f55440c0af47b657a3faf42a560fa",
      "blockNumber": "0x6404c19",
      "gasUsed": "0xd3cf8",
      "effectiveGasPrice": "0x6364560",
      "from": "0x000ef5f21dc574226a06c76aae7060642a30eb74",
      "to": "0x4e59b44847b379578588920ca78fbf26c0b4956c",
      "contractAddress": null,
      "gasUsedForL1": "0x1af2",
      "l1BlockNumber": "0x6e74bf"
    },
    {
      "status": "0x1",
      "cumulativeGasUsed": "0x4bbd9",
      "logs": [
        {
          "address": "0xc420c3a3f81f2a059ff56d45c0a82d1f9af38dcc",
          "topics": [
            "0xdd466e674ea557f56295e2d0218a125ea4b4f0f6f3307b95f85e6110838d6438",
            "0x43f3beb63473a158b490d3db0746de75ac624743ba9b4c0af1c89acf885c235a",
            "0x000000000000000000000000313adf3fa3479f6bf5aedbc7949ee5e1213f20b7",
            "0x000000000000000000000000f21b5d9574d84ef4c253132691d76f62fee4daab"
          ],
          "data": "0x0000000000000000000000000000000000000000000000000000000000000bb800000000000000000000000000000000000000000000000000000000000000780000000000000000000000008a6709e7c9cce0c1c2d1669b00d56670b8de408800000000000000000000000000000000000000010000000000000000000000000000000000000000000000000000000000000000000000000000000000000000",
          "blockHash": "0x2379d18750093c2fcea1baaf001df0763b84218970c0ecc675256968544899fd",
          "blockNumber": "0x6404c24",
          "transactionHash": "0x0fa596b98f35c4ce514ea5fffd5de99dceea1a0c5fb67740841a7063f04f9bff",
          "transactionIndex": "0x2",
          "logIndex": "0x1",
          "removed": false
        }
      ],
      "logsBloom": "0x00000000000000000000000000000000000000000000000001000000000000000000000000000000000000000000000000000000000000000000000400000800400000000000000000000000000000000000000000000000000000000000000000000000000000000000000001000000000000000000000000000000000000000000000000000008000000000000000000000001001000000000000000200000000000000000000021000040000000000000000000000000000000000000000000000000000100000000000000004000000000000000000010000000000000000000000000000000000000000000000000000000000000000000000000000000",
      "type": "0x2",
      "transactionHash": "0x0fa596b98f35c4ce514ea5fffd5de99dceea1a0c5fb67740841a7063f04f9bff",
      "transactionIndex": "0x2",
      "blockHash": "0x2379d18750093c2fcea1baaf001df0763b84218970c0ecc675256968544899fd",
      "blockNumber": "0x6404c24",
      "gasUsed": "0xd12f",
      "effectiveGasPrice": "0x61c54c0",
      "from": "0x000ef5f21dc574226a06c76aae7060642a30eb74",
      "to": "0xc420c3a3f81f2a059ff56d45c0a82d1f9af38dcc",
      "contractAddress": null,
      "gasUsedForL1": "0x33c",
      "l1BlockNumber": "0x6e74bf"
    },
    {
      "status": "0x1",
      "cumulativeGasUsed": "0x2a1446",
      "logs": [
        {
          "address": "0xc420c3a3f81f2a059ff56d45c0a82d1f9af38dcc",
          "topics": [
            "0xf208f4912782fd25c7f114ca3723a2d5dd6f3bcc3ac8db5af63baa85f711d5ec",
            "0x43f3beb63473a158b490d3db0746de75ac624743ba9b4c0af1c89acf885c235a",
            "0x0000000000000000000000002298870db1fa24f3f6cc1fa0b2760ab7c1803bc1"
          ],
          "data": "0xffffffffffffffffffffffffffffffffffffffffffffffffffffffffffffff88000000000000000000000000000000000000000000000000000000000000007800000000000000000000000000000000000000000000021e19e0c9bab24000000000000000000000000000000000000000000000000000000000000000000000",
          "blockHash": "0xdf6c519584c920c3d225256a485a71b74c18878124551070cbb23f4d2baf955c",
          "blockNumber": "0x6404c2f",
          "transactionHash": "0x90c6afcf6d920b1c4541c41c1113c1bf35d2419ee3eaf6732b2b4be561d807eb",
          "transactionIndex": "0xc",
          "logIndex": "0xf",
          "removed": false
        },
        {
          "address": "0x313adf3fa3479f6bf5aedbc7949ee5e1213f20b7",
          "topics": [
            "0xddf252ad1be2c89b69c2b068fc378daa952ba7f163c4a11628f55a4df523b3ef",
            "0x000000000000000000000000000ef5f21dc574226a06c76aae7060642a30eb74",
            "0x000000000000000000000000c420c3a3f81f2a059ff56d45c0a82d1f9af38dcc"
          ],
          "data": "0x0000000000000000000000000000000000000000000000033e2204017b30d746",
          "blockHash": "0xdf6c519584c920c3d225256a485a71b74c18878124551070cbb23f4d2baf955c",
          "blockNumber": "0x6404c2f",
          "transactionHash": "0x90c6afcf6d920b1c4541c41c1113c1bf35d2419ee3eaf6732b2b4be561d807eb",
          "transactionIndex": "0xc",
          "logIndex": "0x10",
          "removed": false
        },
        {
          "address": "0xf21b5d9574d84ef4c253132691d76f62fee4daab",
          "topics": [
            "0xddf252ad1be2c89b69c2b068fc378daa952ba7f163c4a11628f55a4df523b3ef",
            "0x000000000000000000000000000ef5f21dc574226a06c76aae7060642a30eb74",
            "0x000000000000000000000000c420c3a3f81f2a059ff56d45c0a82d1f9af38dcc"
          ],
          "data": "0x0000000000000000000000000000000000000000000000033e2204017b30d746",
          "blockHash": "0xdf6c519584c920c3d225256a485a71b74c18878124551070cbb23f4d2baf955c",
          "blockNumber": "0x6404c2f",
          "transactionHash": "0x90c6afcf6d920b1c4541c41c1113c1bf35d2419ee3eaf6732b2b4be561d807eb",
          "transactionIndex": "0xc",
          "logIndex": "0x11",
          "removed": false
        }
      ],
      "logsBloom": "0x00000000000000000000000000000000000000000000000001000000000000000000000000020000000000000000000000000000000000000000000400000000000000000000000000000008000000000000000000000040000000000000000000000000000000000000000401000000100000000000000000000012000000000000000801000000000000040000000000000000000000000000040000004000000004000800000001000040000000000000000008000000000000000000000000000002000100000000000000000000000000000000000000000000040000000000000000000000000000000000000004000000000100000000004000080000",
      "type": "0x2",
      "transactionHash": "0x90c6afcf6d920b1c4541c41c1113c1bf35d2419ee3eaf6732b2b4be561d807eb",
      "transactionIndex": "0xc",
      "blockHash": "0xdf6c519584c920c3d225256a485a71b74c18878124551070cbb23f4d2baf955c",
      "blockNumber": "0x6404c2f",
      "gasUsed": "0x40eec",
      "effectiveGasPrice": "0x5fcbed0",
      "from": "0x000ef5f21dc574226a06c76aae7060642a30eb74",
      "to": "0x2298870db1fa24f3f6cc1fa0b2760ab7c1803bc1",
      "contractAddress": null,
      "gasUsedForL1": "0x3c2",
      "l1BlockNumber": "0x6e74bf"
    }
  ],
  "libraries": [],
  "pending": [],
  "returns": {},
  "timestamp": 1733688020,
  "chain": 421614,
  "commit": "8476dd6"
}