{
  "transactions": [
    {
      "hash": "0xac8f2e7944edccdcecadf56c9ac54938d350a6921f198bec9a4009a794158f13",
      "transactionType": "CALL",
      "contractName": null,
      "contractAddress": "0x313adf3fa3479f6bf5aedbc7949ee5e1213f20b7",
      "function": "approve(address,uint256)",
      "arguments": [
        "0x2298870DB1Fa24F3F6cc1fa0B2760AB7c1803bC1",
        "115792089237316195423570985008687907853269984665640564039457584007913129639935"
      ],
      "transaction": {
        "from": "0x000ef5f21dc574226a06c76aae7060642a30eb74",
        "to": "0x313adf3fa3479f6bf5aedbc7949ee5e1213f20b7",
        "gas": "0x8f1b",
        "value": "0x0",
        "input": "0x095ea7b30000000000000000000000002298870db1fa24f3f6cc1fa0b2760ab7c1803bc1ffffffffffffffffffffffffffffffffffffffffffffffffffffffffffffffff",
        "nonce": "0x186",
        "chainId": "0x66eee"
      },
      "additionalContracts": [],
      "isFixedGasLimit": false
    },
    {
      "hash": "0xe1573faa333552b943e77d8a02ce47f5f72c64e6e540af5869feaebe50439ddd",
      "transactionType": "CALL",
      "contractName": null,
      "contractAddress": "0xf21b5d9574d84ef4c253132691d76f62fee4daab",
      "function": "approve(address,uint256)",
      "arguments": [
        "0x2298870DB1Fa24F3F6cc1fa0B2760AB7c1803bC1",
        "115792089237316195423570985008687907853269984665640564039457584007913129639935"
      ],
      "transaction": {
        "from": "0x000ef5f21dc574226a06c76aae7060642a30eb74",
        "to": "0xf21b5d9574d84ef4c253132691d76f62fee4daab",
        "gas": "0x8f1b",
        "value": "0x0",
        "input": "0x095ea7b30000000000000000000000002298870db1fa24f3f6cc1fa0b2760ab7c1803bc1ffffffffffffffffffffffffffffffffffffffffffffffffffffffffffffffff",
        "nonce": "0x187",
        "chainId": "0x66eee"
      },
      "additionalContracts": [],
      "isFixedGasLimit": false
    },
    {
      "hash": "0x9723651d1bce9d6db4b9a463abf1a9fff5297e98e27e862ffafcb14c8604ed4b",
      "transactionType": "CALL",
      "contractName": null,
      "contractAddress": "0x313adf3fa3479f6bf5aedbc7949ee5e1213f20b7",
      "function": "approve(address,uint256)",
      "arguments": [
        "0x1649883be9b0d4D83092CDB430c42E6d5C1B7cAB",
        "115792089237316195423570985008687907853269984665640564039457584007913129639935"
      ],
      "transaction": {
        "from": "0x000ef5f21dc574226a06c76aae7060642a30eb74",
        "to": "0x313adf3fa3479f6bf5aedbc7949ee5e1213f20b7",
        "gas": "0x8f1b",
        "value": "0x0",
        "input": "0x095ea7b30000000000000000000000001649883be9b0d4d83092cdb430c42e6d5c1b7cabffffffffffffffffffffffffffffffffffffffffffffffffffffffffffffffff",
        "nonce": "0x188",
        "chainId": "0x66eee"
      },
      "additionalContracts": [],
      "isFixedGasLimit": false
    },
    {
      "hash": "0xb5538ad2dafe5bc10fbf7d93e3d49328dcf8fc1be02820ec60d0b40f9a6f517b",
      "transactionType": "CALL",
      "contractName": null,
      "contractAddress": "0xf21b5d9574d84ef4c253132691d76f62fee4daab",
      "function": "approve(address,uint256)",
      "arguments": [
        "0x1649883be9b0d4D83092CDB430c42E6d5C1B7cAB",
        "115792089237316195423570985008687907853269984665640564039457584007913129639935"
      ],
      "transaction": {
        "from": "0x000ef5f21dc574226a06c76aae7060642a30eb74",
        "to": "0xf21b5d9574d84ef4c253132691d76f62fee4daab",
        "gas": "0x8f1b",
        "value": "0x0",
        "input": "0x095ea7b30000000000000000000000001649883be9b0d4d83092cdb430c42e6d5c1b7cabffffffffffffffffffffffffffffffffffffffffffffffffffffffffffffffff",
        "nonce": "0x189",
        "chainId": "0x66eee"
      },
      "additionalContracts": [],
      "isFixedGasLimit": false
    },
    {
      "hash": "0x2663d2b158f1d0d1398ecb833e261cbe543d3da7fdd11ebfbd5e9c90712f35b5",
      "transactionType": "CALL",
      "contractName": null,
      "contractAddress": "0x313adf3fa3479f6bf5aedbc7949ee5e1213f20b7",
      "function": "mint(address,uint256)",
      "arguments": [
        "0x000ef5F21dC574226A06C76AAE7060642A30eB74",
        "1000000000000000000000000000000000"
      ],
      "transaction": {
        "from": "0x000ef5f21dc574226a06c76aae7060642a30eb74",
        "to": "0x313adf3fa3479f6bf5aedbc7949ee5e1213f20b7",
        "gas": "0xb521",
        "value": "0x0",
        "input": "0x40c10f19000000000000000000000000000ef5f21dc574226a06c76aae7060642a30eb74000000000000000000000000000000000000314dc6448d9338c15b0a00000000",
        "nonce": "0x18a",
        "chainId": "0x66eee"
      },
      "additionalContracts": [],
      "isFixedGasLimit": false
    },
    {
      "hash": "0xdefa4d97744c8367c2211a963ccfac4d327bee9fcb1c5142db838a1131e49f05",
      "transactionType": "CALL",
      "contractName": null,
      "contractAddress": "0xf21b5d9574d84ef4c253132691d76f62fee4daab",
      "function": "mint(address,uint256)",
      "arguments": [
        "0x000ef5F21dC574226A06C76AAE7060642A30eB74",
        "1000000000000000000000000000000000"
      ],
      "transaction": {
        "from": "0x000ef5f21dc574226a06c76aae7060642a30eb74",
        "to": "0xf21b5d9574d84ef4c253132691d76f62fee4daab",
        "gas": "0xb521",
        "value": "0x0",
        "input": "0x40c10f19000000000000000000000000000ef5f21dc574226a06c76aae7060642a30eb74000000000000000000000000000000000000314dc6448d9338c15b0a00000000",
        "nonce": "0x18b",
        "chainId": "0x66eee"
      },
      "additionalContracts": [],
      "isFixedGasLimit": false
    },
    {
      "hash": "0xf7aa2cf9eec5765b0538a9fe8552088df670da00818557edd3ad30836fd884ad",
      "transactionType": "CREATE2",
      "contractName": "RiskManagerHook",
      "contractAddress": "0x8b2a59d25eb2c1679ac8c12d25f049a7d1ba8088",
      "function": null,
      "arguments": [
        "0xc420C3A3F81f2A059fF56D45c0A82D1F9aF38dCc",
        "0x086CcAf62d35E15300f8719c950A90269F9d72C6"
      ],
      "transaction": {
        "from": "0x000ef5f21dc574226a06c76aae7060642a30eb74",
        "to": "0x4e59b44847b379578588920ca78fbf26c0b4956c",
        "gas": "0x1266a0",
        "value": "0x0",
        "input": "0x00000000000000000000000000000000000000000000000000000000000010dd60a060405234801561000f575f80fd5b506040516111c63803806111c683398101604081905261002e916102d7565b6001600160a01b038216608052816100453061006b565b505f80546001600160a01b0319166001600160a01b03929092169190911790555061030f565b61015b81610156604080516101c0810182525f80825260208201819052918101829052606081018290526080810182905260a0810182905260c0810182905260e08101829052610100810182905261012081018290526101408101829052610160810182905261018081018290526101a081019190915250604080516101c0810182525f80825260208201819052918101829052606081018290526080810182905260a08101829052600160c0820181905260e0820183905261010082018390526101208201839052610140820152610160810182905261018081018290526101a081019190915290565b61015e565b50565b80511515612000831615151415806101825750602081015115156110008316151514155b806101995750604081015115156108008316151514155b806101b05750606081015115156104008316151514155b806101c75750608081015115156102008316151514155b806101de575060a081015115156101008316151514155b806101f4575060c0810151151560808316151514155b8061020a575060e0810151151560408316151514155b806102215750610100810151151560208316151514155b806102385750610120810151151560108316151514155b8061024f5750610140810151151560088316151514155b806102665750610160810151151560048316151514155b8061027d5750610180810151151560028316151514155b8061029457506101a0810151151560018316151514155b156102aa576102aa630732d7b560e51b836102ae565b5050565b815f526001600160a01b03811660045260245ffd5b6001600160a01b038116811461015b575f80fd5b5f80604083850312156102e8575f80fd5b82516102f3816102c3565b6020840151909250610304816102c3565b809150509250929050565b608051610e916103355f395f818161031b015281816105b8015261073e0152610e915ff3fe608060405234801561000f575f80fd5b50600436106100e5575f3560e01c80639f063efc11610088578063c4e833ce11610063578063c4e833ce14610222578063dc4c90d314610316578063dc98354e1461033d578063e1b4af6914610214575f80fd5b80639f063efc14610182578063b47b2fb1146101e3578063b6a8b0fa14610214575f80fd5b8063575e24b4116100c3578063575e24b4146101445780636c2bbe7e146101825780636fe7e6eb146101b557806391dd7346146101c3575f80fd5b806321d0ee70146100e9578063259982e5146100e9578063478426631461011a575b5f80fd5b6100fc6100f73660046108aa565b61034b565b6040516001600160e01b031990911681526020015b60405180910390f35b5f5461012c906001600160a01b031681565b6040516001600160a01b039091168152602001610111565b610157610152366004610931565b610365565b604080516001600160e01b03199094168452602084019290925262ffffff1690820152606001610111565b61019561019036600461098b565b610716565b604080516001600160e01b03199093168352602083019190915201610111565b6100fc6100f7366004610a16565b6101d66101d1366004610a75565b610731565b6040516101119190610ab4565b6101f1610190366004610ae9565b604080516001600160e01b03199093168352600f9190910b602083015201610111565b6100fc6100f7366004610b6a565b610309604080516101c0810182525f80825260208201819052918101829052606081018290526080810182905260a0810182905260c0810182905260e08101829052610100810182905261012081018290526101408101829052610160810182905261018081018290526101a081019190915250604080516101c0810182525f80825260208201819052918101829052606081018290526080810182905260a08101829052600160c0820181905260e0820183905261010082018390526101208201839052610140820152610160810182905261018081018290526101a081019190915290565b6040516101119190610bc4565b61012c7f000000000000000000000000000000000000000000000000000000000000000081565b6100fc6100f7366004610ce5565b5f604051630a85dc2960e01b815260040160405180910390fd5b5f8080806103766020880188610d39565b61038f5761038a6040890160208a01610d5b565b61039c565b61039c6020890189610d5b565b90505f6103ac6020890189610d39565b6103c2576103bd60208a018a610d5b565b6103d2565b6103d260408a0160208b01610d5b565b90505f6103e560608a0160408b01610d5b565b90505f6103f560208b018b610d39565b610403578960200135610432565b6c010000000000000000000000006104286001600160a01b03841660208d0135610d8a565b6104329190610da1565b90505f61044260208c018c610d39565b61047a576c0100000000000000000000000061046b6001600160a01b03851660208e0135610d8a565b6104759190610da1565b610480565b8a602001355b90505f821261048f5781610498565b61049882610dc0565b91505f81126104a757806104b0565b6104b081610dc0565b90505f806104c08b8d018d610dda565b5f54604051635ddb109d60e11b81526001600160a01b038085166004830152602482018490528b81166044830152606482018990528a8116608483015260a48201889052939550919350919091169063bbb6213a9060c401602060405180830381865afa158015610533573d5f803e3d5ffd5b505050506040513d601f19601f820116820180604052508101906105579190610e04565b610693575f8d602001351215610693575f61057560208f018f610d39565b610591578e602001602081019061058c9190610d5b565b6105a3565b8e5f0160208101906105a39190610d5b565b90505f8e602001356105b490610e1f565b90507f00000000000000000000000000000000000000000000000000000000000000006001600160a01b031663156e29f6306105ff856001600160a01b03166001600160a01b031690565b6040516001600160e01b031960e085901b1681526001600160a01b03909216600483015260248201526fffffffffffffffffffffffffffffffff841660448201526064015f604051808303815f87803b15801561065a575f80fd5b505af115801561066c573d5f803e3d5ffd5b506315d7892d60e21b92505050608082901b5f9b509b509b5050505050505050505061070b565b604080516001600160a01b0384811682526020820184905289811682840152606082018790528816608082015260a0810185905290517fa21fea225ee7397ac225656944309b78664c4c3366c017790db86b2cd398f9e49181900360c00190a1506315d7892d60e21b98505f97508796505050505050505b955095509592505050565b5f80604051630a85dc2960e01b815260040160405180910390fd5b6060336001600160a01b037f0000000000000000000000000000000000000000000000000000000000000000161461077c5760405163570c108560e11b815260040160405180910390fd5b610786838361078f565b90505b92915050565b60605f80306001600160a01b031685856040516107ad929190610e4c565b5f604051808303815f865af19150503d805f81146107e6576040519150601f19603f3d011682016040523d82523d5f602084013e6107eb565b606091505b509150915081156107ff5791506107899050565b80515f03610820576040516314815f4760e31b815260040160405180910390fd5b805160208201fd5b6001600160a01b038116811461083c575f80fd5b50565b5f60a0828403121561084f575f80fd5b50919050565b5f6080828403121561084f575f80fd5b5f8083601f840112610875575f80fd5b50813567ffffffffffffffff81111561088c575f80fd5b6020830191508360208285010111156108a3575f80fd5b9250929050565b5f805f805f61016086880312156108bf575f80fd5b85356108ca81610828565b94506108d9876020880161083f565b93506108e88760c08801610855565b925061014086013567ffffffffffffffff811115610904575f80fd5b61091088828901610865565b969995985093965092949392505050565b5f6060828403121561084f575f80fd5b5f805f805f6101408688031215610946575f80fd5b853561095181610828565b9450610960876020880161083f565b935061096f8760c08801610921565b925061012086013567ffffffffffffffff811115610904575f80fd5b5f805f805f805f6101a0888a0312156109a2575f80fd5b87356109ad81610828565b96506109bc8960208a0161083f565b95506109cb8960c08a01610855565b94506101408801359350610160880135925061018088013567ffffffffffffffff8111156109f7575f80fd5b610a038a828b01610865565b989b979a50959850939692959293505050565b5f805f806101008587031215610a2a575f80fd5b8435610a3581610828565b9350610a44866020870161083f565b925060c0850135610a5481610828565b915060e0850135600281900b8114610a6a575f80fd5b939692955090935050565b5f8060208385031215610a86575f80fd5b823567ffffffffffffffff811115610a9c575f80fd5b610aa885828601610865565b90969095509350505050565b602081525f82518060208401528060208501604085015e5f604082850101526040601f19601f83011684010191505092915050565b5f805f805f806101608789031215610aff575f80fd5b8635610b0a81610828565b9550610b19886020890161083f565b9450610b288860c08901610921565b9350610120870135925061014087013567ffffffffffffffff811115610b4c575f80fd5b610b5889828a01610865565b979a9699509497509295939492505050565b5f805f805f806101208789031215610b80575f80fd5b8635610b8b81610828565b9550610b9a886020890161083f565b945060c0870135935060e0870135925061010087013567ffffffffffffffff811115610b4c575f80fd5b8151151581526101c081016020830151610be2602084018215159052565b506040830151610bf6604084018215159052565b506060830151610c0a606084018215159052565b506080830151610c1e608084018215159052565b5060a0830151610c3260a084018215159052565b5060c0830151610c4660c084018215159052565b5060e0830151610c5a60e084018215159052565b50610100830151610c7061010084018215159052565b50610120830151610c8661012084018215159052565b50610140830151610c9c61014084018215159052565b50610160830151610cb261016084018215159052565b50610180830151610cc861018084018215159052565b506101a0830151610cde6101a084018215159052565b5092915050565b5f805f60e08486031215610cf7575f80fd5b8335610d0281610828565b9250610d11856020860161083f565b915060c0840135610d2181610828565b809150509250925092565b801515811461083c575f80fd5b5f60208284031215610d49575f80fd5b8135610d5481610d2c565b9392505050565b5f60208284031215610d6b575f80fd5b8135610d5481610828565b634e487b7160e01b5f52601160045260245ffd5b808202811582820484141761078957610789610d76565b5f82610dbb57634e487b7160e01b5f52601260045260245ffd5b500490565b5f600160ff1b8201610dd457610dd4610d76565b505f0390565b5f8060408385031215610deb575f80fd5b8235610df681610828565b946020939093013593505050565b5f60208284031215610e14575f80fd5b8151610d5481610d2c565b5f81600f0b6f7fffffffffffffffffffffffffffffff198103610e4457610e44610d76565b5f0392915050565b818382375f910190815291905056fea2646970667358221220063cf949725b42703f16937f2005d6ddd2412ab545b9b800d5ad5dc7432cce5d64736f6c634300081a0033000000000000000000000000c420c3a3f81f2a059ff56d45c0a82d1f9af38dcc000000000000000000000000086ccaf62d35e15300f8719c950a90269f9d72c6",
        "nonce": "0x18c",
        "chainId": "0x66eee"
      },
      "additionalContracts": [],
      "isFixedGasLimit": false
    },
    {
      "hash": "0x5c586bd9cb42dcd1fe2eec937d8477d34091ecc4b5dea897b303adcc39b38ba2",
      "transactionType": "CALL",
      "contractName": null,
      "contractAddress": "0xc420c3a3f81f2a059ff56d45c0a82d1f9af38dcc",
      "function": "initialize((address,address,uint24,int24,address),uint160)",
      "arguments": [
        "(0x313Adf3Fa3479F6Bf5aedBc7949EE5e1213F20B7, 0xf21B5d9574d84eF4c253132691D76F62FEE4Daab, 3000, 120, 0x8B2A59D25eB2C1679ac8c12d25f049a7d1bA8088)",
        "79228162514264337593543950336"
      ],
      "transaction": {
        "from": "0x000ef5f21dc574226a06c76aae7060642a30eb74",
        "to": "0xc420c3a3f81f2a059ff56d45c0a82d1f9af38dcc",
        "gas": "0x11827",
        "value": "0x0",
        "input": "0x6276cbbe000000000000000000000000313adf3fa3479f6bf5aedbc7949ee5e1213f20b7000000000000000000000000f21b5d9574d84ef4c253132691d76f62fee4daab0000000000000000000000000000000000000000000000000000000000000bb800000000000000000000000000000000000000000000000000000000000000780000000000000000000000008b2a59d25eb2c1679ac8c12d25f049a7d1ba80880000000000000000000000000000000000000001000000000000000000000000",
        "nonce": "0x18d",
        "chainId": "0x66eee"
      },
      "additionalContracts": [],
      "isFixedGasLimit": false
    },
    {
      "hash": "0xb9478b8a4e9b6cfe27081d9034eb5a0c64e5323562ef0f8fdfa155ced0661624",
      "transactionType": "CALL",
      "contractName": null,
      "contractAddress": "0x2298870db1fa24f3f6cc1fa0b2760ab7c1803bc1",
      "function": "modifyLiquidity((address,address,uint24,int24,address),(int24,int24,int256,bytes32),bytes)",
      "arguments": [
        "(0x313Adf3Fa3479F6Bf5aedBc7949EE5e1213F20B7, 0xf21B5d9574d84eF4c253132691D76F62FEE4Daab, 3000, 120, 0x8B2A59D25eB2C1679ac8c12d25f049a7d1bA8088)",
        "(-120, 120, 10000000000000000000000, 0x0000000000000000000000000000000000000000000000000000000000000000)",
        "0x"
      ],
      "transaction": {
        "from": "0x000ef5f21dc574226a06c76aae7060642a30eb74",
        "to": "0x2298870db1fa24f3f6cc1fa0b2760ab7c1803bc1",
        "gas": "0x595e2",
        "value": "0x0",
        "input": "0x5a6bcfda000000000000000000000000313adf3fa3479f6bf5aedbc7949ee5e1213f20b7000000000000000000000000f21b5d9574d84ef4c253132691d76f62fee4daab0000000000000000000000000000000000000000000000000000000000000bb800000000000000000000000000000000000000000000000000000000000000780000000000000000000000008b2a59d25eb2c1679ac8c12d25f049a7d1ba8088ffffffffffffffffffffffffffffffffffffffffffffffffffffffffffffff88000000000000000000000000000000000000000000000000000000000000007800000000000000000000000000000000000000000000021e19e0c9bab2400000000000000000000000000000000000000000000000000000000000000000000000000000000000000000000000000000000000000000000000000000000001400000000000000000000000000000000000000000000000000000000000000000",
        "nonce": "0x18e",
        "chainId": "0x66eee"
      },
      "additionalContracts": [],
      "isFixedGasLimit": false
    }
  ],
  "receipts": [
    {
      "status": "0x1",
      "cumulativeGasUsed": "0x6bd8",
      "logs": [
        {
          "address": "0x313adf3fa3479f6bf5aedbc7949ee5e1213f20b7",
          "topics": [
            "0x8c5be1e5ebec7d5bd14f71427d1e84f3dd0314c0f7b2291e5b200ac8c7c3b925",
            "0x000000000000000000000000000ef5f21dc574226a06c76aae7060642a30eb74",
            "0x0000000000000000000000002298870db1fa24f3f6cc1fa0b2760ab7c1803bc1"
          ],
          "data": "0xffffffffffffffffffffffffffffffffffffffffffffffffffffffffffffffff",
          "blockHash": "0x839762b408c1ce64dc764abc223aa576710f9f5923488341247c95f9edad2263",
          "blockNumber": "0x64061e9",
          "transactionHash": "0xac8f2e7944edccdcecadf56c9ac54938d350a6921f198bec9a4009a794158f13",
          "transactionIndex": "0x1",
          "logIndex": "0x0",
          "removed": false
        }
      ],
      "logsBloom": "0x00000000000000000000000000000000000000000000000000000000000000000000000000020000000000000000000000000000000000000000000000200000000000000000000000000000000000000000000000000000000000000000000000000000000000000000000400000000100000000000000000000002000000000000000000000000000000000000000000000000000000000000000000004000020000000800000000000000000000000000000000000000000000000000000000000000000000000000000000000000000000000000000000000000040000000010000000000000000000000000000000000000000100000000000000080000",
      "type": "0x2",
      "transactionHash": "0xac8f2e7944edccdcecadf56c9ac54938d350a6921f198bec9a4009a794158f13",
      "transactionIndex": "0x1",
      "blockHash": "0x839762b408c1ce64dc764abc223aa576710f9f5923488341247c95f9edad2263",
      "blockNumber": "0x64061e9",
      "gasUsed": "0x6bd8",
      "effectiveGasPrice": "0x5f5e100",
      "from": "0x000ef5f21dc574226a06c76aae7060642a30eb74",
      "to": "0x313adf3fa3479f6bf5aedbc7949ee5e1213f20b7",
      "contractAddress": null,
      "gasUsedForL1": "0x326",
      "l1BlockNumber": "0x6e752f"
    },
    {
      "status": "0x1",
      "cumulativeGasUsed": "0x58b4a",
      "logs": [
        {
          "address": "0xf21b5d9574d84ef4c253132691d76f62fee4daab",
          "topics": [
            "0x8c5be1e5ebec7d5bd14f71427d1e84f3dd0314c0f7b2291e5b200ac8c7c3b925",
            "0x000000000000000000000000000ef5f21dc574226a06c76aae7060642a30eb74",
            "0x0000000000000000000000002298870db1fa24f3f6cc1fa0b2760ab7c1803bc1"
          ],
          "data": "0xffffffffffffffffffffffffffffffffffffffffffffffffffffffffffffffff",
          "blockHash": "0xc139d4b1051520c1385f39082b2c152046ed6cb86e3049801f249c6fedc5ddc5",
          "blockNumber": "0x64061ff",
          "transactionHash": "0xe1573faa333552b943e77d8a02ce47f5f72c64e6e540af5869feaebe50439ddd",
          "transactionIndex": "0x3",
          "logIndex": "0x3",
          "removed": false
        }
      ],
      "logsBloom": "0x00000000000000000000000000000000000000000000000000000000000000000000000000020000000000000000000000000000000000000000000000200000000000000000000000000000000000000000000000000040000000000000000000000000000000000000000400000000100000000000000000000000000000000000000000000000000000040000000000000000000000000000000000000000020000000800000000000000000000000000000008000000000000000000000000000000000000000000000000000000000000000000000000000000040000000010000000000000000000000000000000000000000100000000000000000000",
      "type": "0x2",
      "transactionHash": "0xe1573faa333552b943e77d8a02ce47f5f72c64e6e540af5869feaebe50439ddd",
      "transactionIndex": "0x3",
      "blockHash": "0xc139d4b1051520c1385f39082b2c152046ed6cb86e3049801f249c6fedc5ddc5",
      "blockNumber": "0x64061ff",
      "gasUsed": "0x6bd8",
      "effectiveGasPrice": "0x5f5e100",
      "from": "0x000ef5f21dc574226a06c76aae7060642a30eb74",
      "to": "0xf21b5d9574d84ef4c253132691d76f62fee4daab",
      "contractAddress": null,
      "gasUsedForL1": "0x326",
      "l1BlockNumber": "0x6e752f"
    },
    {
      "status": "0x1",
      "cumulativeGasUsed": "0x35650",
      "logs": [
        {
          "address": "0x313adf3fa3479f6bf5aedbc7949ee5e1213f20b7",
          "topics": [
            "0x8c5be1e5ebec7d5bd14f71427d1e84f3dd0314c0f7b2291e5b200ac8c7c3b925",
            "0x000000000000000000000000000ef5f21dc574226a06c76aae7060642a30eb74",
            "0x0000000000000000000000001649883be9b0d4d83092cdb430c42e6d5c1b7cab"
          ],
          "data": "0xffffffffffffffffffffffffffffffffffffffffffffffffffffffffffffffff",
          "blockHash": "0xc41bbc518da4e9b8b35d350bf3e350e40b0f9eddaaa1e156cccfdc29fc81dc79",
          "blockNumber": "0x6406212",
          "transactionHash": "0x9723651d1bce9d6db4b9a463abf1a9fff5297e98e27e862ffafcb14c8604ed4b",
          "transactionIndex": "0x2",
          "logIndex": "0x6",
          "removed": false
        }
      ],
      "logsBloom": "0x00000000000000000000000000000000000000000000000000000000000000000000000000020000000000000000000000000000000000000000000000200000000000000000000000000000000000000000000000000000000000000000000000000000000000000000000400000000000000000000000000000002000000000000000000000000000000000000000000000000000000000008000000004000020000000000000000000000000000000000000000000400000000000000000000000000000800000000000000000000000000000000000000000000040000000010000000000000000000000000000000000000000000000000000000080000",
      "type": "0x2",
      "transactionHash": "0x9723651d1bce9d6db4b9a463abf1a9fff5297e98e27e862ffafcb14c8604ed4b",
      "transactionIndex": "0x2",
      "blockHash": "0xc41bbc518da4e9b8b35d350bf3e350e40b0f9eddaaa1e156cccfdc29fc81dc79",
      "blockNumber": "0x6406212",
      "gasUsed": "0x6bd8",
      "effectiveGasPrice": "0x5f5e100",
      "from": "0x000ef5f21dc574226a06c76aae7060642a30eb74",
      "to": "0x313adf3fa3479f6bf5aedbc7949ee5e1213f20b7",
      "contractAddress": null,
      "gasUsedForL1": "0x326",
      "l1BlockNumber": "0x6e752f"
    },
    {
      "status": "0x1",
      "cumulativeGasUsed": "0x6bd8",
      "logs": [
        {
          "address": "0xf21b5d9574d84ef4c253132691d76f62fee4daab",
          "topics": [
            "0x8c5be1e5ebec7d5bd14f71427d1e84f3dd0314c0f7b2291e5b200ac8c7c3b925",
            "0x000000000000000000000000000ef5f21dc574226a06c76aae7060642a30eb74",
            "0x0000000000000000000000001649883be9b0d4d83092cdb430c42e6d5c1b7cab"
          ],
          "data": "0xffffffffffffffffffffffffffffffffffffffffffffffffffffffffffffffff",
          "blockHash": "0x78eea6a63693594da9acade1f5596733605333a848dbddd1d259bfc852455a33",
          "blockNumber": "0x6406229",
          "transactionHash": "0xb5538ad2dafe5bc10fbf7d93e3d49328dcf8fc1be02820ec60d0b40f9a6f517b",
          "transactionIndex": "0x1",
          "logIndex": "0x0",
          "removed": false
        }
      ],
      "logsBloom": "0x00000000000000000000000000000000000000000000000000000000000000000000000000020000000000000000000000000000000000000000000000200000000000000000000000000000000000000000000000000040000000000000000000000000000000000000000400000000000000000000000000000000000000000000000000000000000000040000000000000000000000000008000000000000020000000000000000000000000000000000000008000400000000000000000000000000000800000000000000000000000000000000000000000000040000000010000000000000000000000000000000000000000000000000000000000000",
      "type": "0x2",
      "transactionHash": "0xb5538ad2dafe5bc10fbf7d93e3d49328dcf8fc1be02820ec60d0b40f9a6f517b",
      "transactionIndex": "0x1",
      "blockHash": "0x78eea6a63693594da9acade1f5596733605333a848dbddd1d259bfc852455a33",
      "blockNumber": "0x6406229",
      "gasUsed": "0x6bd8",
      "effectiveGasPrice": "0x5f5e100",
      "from": "0x000ef5f21dc574226a06c76aae7060642a30eb74",
      "to": "0xf21b5d9574d84ef4c253132691d76f62fee4daab",
      "contractAddress": null,
      "gasUsedForL1": "0x326",
      "l1BlockNumber": "0x6e7530"
    },
    {
      "status": "0x1",
      "cumulativeGasUsed": "0x1f36c",
      "logs": [
        {
          "address": "0x313adf3fa3479f6bf5aedbc7949ee5e1213f20b7",
          "topics": [
            "0xddf252ad1be2c89b69c2b068fc378daa952ba7f163c4a11628f55a4df523b3ef",
            "0x0000000000000000000000000000000000000000000000000000000000000000",
            "0x000000000000000000000000000ef5f21dc574226a06c76aae7060642a30eb74"
          ],
          "data": "0x000000000000000000000000000000000000314dc6448d9338c15b0a00000000",
          "blockHash": "0x939ff0c5aad3e6b6628e8a5ec379e76add27077eabe3240c810bbd1e1f01783a",
          "blockNumber": "0x640625e",
          "transactionHash": "0x2663d2b158f1d0d1398ecb833e261cbe543d3da7fdd11ebfbd5e9c90712f35b5",
          "transactionIndex": "0x2",
          "logIndex": "0x2",
          "removed": false
        }
      ],
      "logsBloom": "0x00000000000000000000000000000000000000000000000000000000000000000000000000020000000000000000000000000000000000000000000000000000000000000000000000000008000000000000000000000000000000000000000000000000020000000000000400000800000000000000000000000012000000000000000000000000000000000000000000000000000000000000000000004000000000000000000000000000000000000000000000000000000000000000000000000002000000000000000000000000000000000000000000000000040020000000000000000000000000000000000000000000000000000000000000080000",
      "type": "0x2",
      "transactionHash": "0x2663d2b158f1d0d1398ecb833e261cbe543d3da7fdd11ebfbd5e9c90712f35b5",
      "transactionIndex": "0x2",
      "blockHash": "0x939ff0c5aad3e6b6628e8a5ec379e76add27077eabe3240c810bbd1e1f01783a",
      "blockNumber": "0x640625e",
      "gasUsed": "0x8905",
      "effectiveGasPrice": "0x5f5e100",
      "from": "0x000ef5f21dc574226a06c76aae7060642a30eb74",
      "to": "0x313adf3fa3479f6bf5aedbc7949ee5e1213f20b7",
      "contractAddress": null,
      "gasUsedForL1": "0x322",
      "l1BlockNumber": "0x6e7530"
    },
    {
      "status": "0x1",
      "cumulativeGasUsed": "0x1d911c",
      "logs": [
        {
          "address": "0xf21b5d9574d84ef4c253132691d76f62fee4daab",
          "topics": [
            "0xddf252ad1be2c89b69c2b068fc378daa952ba7f163c4a11628f55a4df523b3ef",
            "0x0000000000000000000000000000000000000000000000000000000000000000",
            "0x000000000000000000000000000ef5f21dc574226a06c76aae7060642a30eb74"
          ],
          "data": "0x000000000000000000000000000000000000314dc6448d9338c15b0a00000000",
          "blockHash": "0x7db3e7e9837a51a59a539796d6c31642caee2dcc457c4b81986f613494a5c026",
          "blockNumber": "0x6406278",
          "transactionHash": "0xdefa4d97744c8367c2211a963ccfac4d327bee9fcb1c5142db838a1131e49f05",
          "transactionIndex": "0x3",
          "logIndex": "0xa",
          "removed": false
        }
      ],
      "logsBloom": "0x00000000000000000000000000000000000000000000000000000000000000000000000000020000000000000000000000000000000000000000000000000000000000000000000000000008000000000000000000000040000000000000000000000000020000000000000400000800000000000000000000000010000000000000000000000000000000040000000000000000000000000000000000000000000000000000000000000000000000000000000008000000000000000000000000000002000000000000000000000000000000000000000000000000040020000000000000000000000000000000000000000000000000000000000000000000",
      "type": "0x2",
      "transactionHash": "0xdefa4d97744c8367c2211a963ccfac4d327bee9fcb1c5142db838a1131e49f05",
      "transactionIndex": "0x3",
      "blockHash": "0x7db3e7e9837a51a59a539796d6c31642caee2dcc457c4b81986f613494a5c026",
      "blockNumber": "0x6406278",
      "gasUsed": "0x8909",
      "effectiveGasPrice": "0x5f5e100",
      "from": "0x000ef5f21dc574226a06c76aae7060642a30eb74",
      "to": "0xf21b5d9574d84ef4c253132691d76f62fee4daab",
      "contractAddress": null,
      "gasUsedForL1": "0x326",
      "l1BlockNumber": "0x6e7531"
    },
    {
      "status": "0x1",
      "cumulativeGasUsed": "0xde03d",
      "logs": [],
      "logsBloom": "0x00000000000000000000000000000000000000000000000000000000000000000000000000000000000000000000000000000000000000000000000000000000000000000000000000000000000000000000000000000000000000000000000000000000000000000000000000000000000000000000000000000000000000000000000000000000000000000000000000000000000000000000000000000000000000000000000000000000000000000000000000000000000000000000000000000000000000000000000000000000000000000000000000000000000000000000000000000000000000000000000000000000000000000000000000000000",
      "type": "0x2",
      "transactionHash": "0xf7aa2cf9eec5765b0538a9fe8552088df670da00818557edd3ad30836fd884ad",
      "transactionIndex": "0x1",
      "blockHash": "0x9c276a975d40e2b8aa845b0aac134325ef06e4184620347d011ab2c5bbd48917",
      "blockNumber": "0x64062a0",
      "gasUsed": "0xde03d",
      "effectiveGasPrice": "0x5f5e100",
      "from": "0x000ef5f21dc574226a06c76aae7060642a30eb74",
      "to": "0x4e59b44847b379578588920ca78fbf26c0b4956c",
      "contractAddress": null,
      "gasUsedForL1": "0x2e5b",
      "l1BlockNumber": "0x6e7532"
    },
    {
      "status": "0x1",
      "cumulativeGasUsed": "0x337f4",
      "logs": [
        {
          "address": "0xc420c3a3f81f2a059ff56d45c0a82d1f9af38dcc",
          "topics": [
            "0xdd466e674ea557f56295e2d0218a125ea4b4f0f6f3307b95f85e6110838d6438",
            "0xa4e1335be0008a8e27ffefcce338b79146754ddd95822e377cae6a028ae59c32",
            "0x000000000000000000000000313adf3fa3479f6bf5aedbc7949ee5e1213f20b7",
            "0x000000000000000000000000f21b5d9574d84ef4c253132691d76f62fee4daab"
          ],
          "data": "0x0000000000000000000000000000000000000000000000000000000000000bb800000000000000000000000000000000000000000000000000000000000000780000000000000000000000008b2a59d25eb2c1679ac8c12d25f049a7d1ba808800000000000000000000000000000000000000010000000000000000000000000000000000000000000000000000000000000000000000000000000000000000",
          "blockHash": "0x3679c1e106ae365d4fdf7f36475b2649a6e895549f4ccbc33f71173c058cf380",
          "blockNumber": "0x64062be",
          "transactionHash": "0x5c586bd9cb42dcd1fe2eec937d8477d34091ecc4b5dea897b303adcc39b38ba2",
          "transactionIndex": "0x3",
          "logIndex": "0xe",
          "removed": false
        }
      ],
      "logsBloom": "0x00000000000000000000000000000000040000000000000001000000000000000000000000080000000000000000000000000000000000000000000000000800400000000000000000000000000000000000000000000000000000000000001000000000000000000000000001000000000000000000000000000000000000000000000000000008000000000000000000000001001000000000000000200000000000000000000020000040000000000000000000000000000000000000000000000000000000000000000000004000000000000000000010000000000000000000000000000000000000000000000000000000000000000000000000000000",
      "type": "0x2",
      "transactionHash": "0x5c586bd9cb42dcd1fe2eec937d8477d34091ecc4b5dea897b303adcc39b38ba2",
      "transactionIndex": "0x3",
      "blockHash": "0x3679c1e106ae365d4fdf7f36475b2649a6e895549f4ccbc33f71173c058cf380",
      "blockNumber": "0x64062be",
      "gasUsed": "0xd348",
      "effectiveGasPrice": "0x5f5e100",
      "from": "0x000ef5f21dc574226a06c76aae7060642a30eb74",
      "to": "0xc420c3a3f81f2a059ff56d45c0a82d1f9af38dcc",
      "contractAddress": null,
      "gasUsedForL1": "0x549",
      "l1BlockNumber": "0x6e7532"
    },
    {
      "status": "0x1",
      "cumulativeGasUsed": "0x410ed",
      "logs": [
        {
          "address": "0xc420c3a3f81f2a059ff56d45c0a82d1f9af38dcc",
          "topics": [
            "0xf208f4912782fd25c7f114ca3723a2d5dd6f3bcc3ac8db5af63baa85f711d5ec",
            "0xa4e1335be0008a8e27ffefcce338b79146754ddd95822e377cae6a028ae59c32",
            "0x0000000000000000000000002298870db1fa24f3f6cc1fa0b2760ab7c1803bc1"
          ],
          "data": "0xffffffffffffffffffffffffffffffffffffffffffffffffffffffffffffff88000000000000000000000000000000000000000000000000000000000000007800000000000000000000000000000000000000000000021e19e0c9bab24000000000000000000000000000000000000000000000000000000000000000000000",
          "blockHash": "0xc498ea8cd653064eda7086de798d74672923f3fbeedebe8487012a517c137fe9",
          "blockNumber": "0x64062c9",
          "transactionHash": "0xb9478b8a4e9b6cfe27081d9034eb5a0c64e5323562ef0f8fdfa155ced0661624",
          "transactionIndex": "0x1",
          "logIndex": "0x0",
          "removed": false
        },
        {
          "address": "0x313adf3fa3479f6bf5aedbc7949ee5e1213f20b7",
          "topics": [
            "0xddf252ad1be2c89b69c2b068fc378daa952ba7f163c4a11628f55a4df523b3ef",
            "0x000000000000000000000000000ef5f21dc574226a06c76aae7060642a30eb74",
            "0x000000000000000000000000c420c3a3f81f2a059ff56d45c0a82d1f9af38dcc"
          ],
          "data": "0x0000000000000000000000000000000000000000000000033e2204017b30d746",
          "blockHash": "0xc498ea8cd653064eda7086de798d74672923f3fbeedebe8487012a517c137fe9",
          "blockNumber": "0x64062c9",
          "transactionHash": "0xb9478b8a4e9b6cfe27081d9034eb5a0c64e5323562ef0f8fdfa155ced0661624",
          "transactionIndex": "0x1",
          "logIndex": "0x1",
          "removed": false
        },
        {
          "address": "0xf21b5d9574d84ef4c253132691d76f62fee4daab",
          "topics": [
            "0xddf252ad1be2c89b69c2b068fc378daa952ba7f163c4a11628f55a4df523b3ef",
            "0x000000000000000000000000000ef5f21dc574226a06c76aae7060642a30eb74",
            "0x000000000000000000000000c420c3a3f81f2a059ff56d45c0a82d1f9af38dcc"
          ],
          "data": "0x0000000000000000000000000000000000000000000000033e2204017b30d746",
          "blockHash": "0xc498ea8cd653064eda7086de798d74672923f3fbeedebe8487012a517c137fe9",
          "blockNumber": "0x64062c9",
          "transactionHash": "0xb9478b8a4e9b6cfe27081d9034eb5a0c64e5323562ef0f8fdfa155ced0661624",
          "transactionIndex": "0x1",
          "logIndex": "0x2",
          "removed": false
        }
      ],
      "logsBloom": "0x000000000000000000000000000000000400000000000000010000000000000000000000000a0000000000000000000000000000000000000000000000000000000000000000000000000008000000000000000000000040000000000000001000000000000000000000000401000000100000000000000000000012000000000000000801000000000000040000000000000000000000000000040000004000000004000800000000000040000000000000000008000000000000000000000000000002000000000000000000000000000000000000000000000000040000000000000000000000000000000000000004000000000100000000004000080000",
      "type": "0x2",
      "transactionHash": "0xb9478b8a4e9b6cfe27081d9034eb5a0c64e5323562ef0f8fdfa155ced0661624",
      "transactionIndex": "0x1",
      "blockHash": "0xc498ea8cd653064eda7086de798d74672923f3fbeedebe8487012a517c137fe9",
      "blockNumber": "0x64062c9",
      "gasUsed": "0x410ed",
      "effectiveGasPrice": "0x5f5e100",
      "from": "0x000ef5f21dc574226a06c76aae7060642a30eb74",
      "to": "0x2298870db1fa24f3f6cc1fa0b2760ab7c1803bc1",
      "contractAddress": null,
      "gasUsedForL1": "0x5b7",
      "l1BlockNumber": "0x6e7532"
    }
  ],
  "libraries": [],
  "pending": [],
  "returns": {},
  "timestamp": 1733689478,
  "chain": 421614,
  "commit": "8476dd6"
}