{
  "transactions": [
    {
      "hash": "0x9927dd58581fbf9889f3fac3a9630528e6a82b56e52feb0fc28604b4107c6da7",
      "transactionType": "CALL",
      "contractName": null,
      "contractAddress": "0x313adf3fa3479f6bf5aedbc7949ee5e1213f20b7",
      "function": "approve(address,uint256)",
      "arguments": [
        "0x2298870DB1Fa24F3F6cc1fa0B2760AB7c1803bC1",
        "115792089237316195423570985008687907853269984665640564039457584007913129639935"
      ],
      "transaction": {
        "from": "0x000ef5f21dc574226a06c76aae7060642a30eb74",
        "to": "0x313adf3fa3479f6bf5aedbc7949ee5e1213f20b7",
        "gas": "0xf5ac",
        "value": "0x0",
        "input": "0x095ea7b30000000000000000000000002298870db1fa24f3f6cc1fa0b2760ab7c1803bc1ffffffffffffffffffffffffffffffffffffffffffffffffffffffffffffffff",
        "nonce": "0x11f",
        "chainId": "0x66eee"
      },
      "additionalContracts": [],
      "isFixedGasLimit": false
    },
    {
      "hash": "0x22343aebe5eb000239e4f8311d42f61302a2ff3059a91fdd9f4b354eae39c615",
      "transactionType": "CALL",
      "contractName": null,
      "contractAddress": "0xf21b5d9574d84ef4c253132691d76f62fee4daab",
      "function": "approve(address,uint256)",
      "arguments": [
        "0x2298870DB1Fa24F3F6cc1fa0B2760AB7c1803bC1",
        "115792089237316195423570985008687907853269984665640564039457584007913129639935"
      ],
      "transaction": {
        "from": "0x000ef5f21dc574226a06c76aae7060642a30eb74",
        "to": "0xf21b5d9574d84ef4c253132691d76f62fee4daab",
        "gas": "0xf5ac",
        "value": "0x0",
        "input": "0x095ea7b30000000000000000000000002298870db1fa24f3f6cc1fa0b2760ab7c1803bc1ffffffffffffffffffffffffffffffffffffffffffffffffffffffffffffffff",
        "nonce": "0x120",
        "chainId": "0x66eee"
      },
      "additionalContracts": [],
      "isFixedGasLimit": false
    },
    {
      "hash": "0x8e1b79596af99618ed2bec78edded6d83305b729a2995b1197f9cb46c6faf24b",
      "transactionType": "CALL",
      "contractName": null,
      "contractAddress": "0x313adf3fa3479f6bf5aedbc7949ee5e1213f20b7",
      "function": "approve(address,uint256)",
      "arguments": [
        "0x1649883be9b0d4D83092CDB430c42E6d5C1B7cAB",
        "115792089237316195423570985008687907853269984665640564039457584007913129639935"
      ],
      "transaction": {
        "from": "0x000ef5f21dc574226a06c76aae7060642a30eb74",
        "to": "0x313adf3fa3479f6bf5aedbc7949ee5e1213f20b7",
        "gas": "0xf5ac",
        "value": "0x0",
        "input": "0x095ea7b30000000000000000000000001649883be9b0d4d83092cdb430c42e6d5c1b7cabffffffffffffffffffffffffffffffffffffffffffffffffffffffffffffffff",
        "nonce": "0x121",
        "chainId": "0x66eee"
      },
      "additionalContracts": [],
      "isFixedGasLimit": false
    },
    {
      "hash": "0xc33134b8fb2f71a5338170189364c3d5b524cf378c4c4a5fb556402d6f010c55",
      "transactionType": "CALL",
      "contractName": null,
      "contractAddress": "0xf21b5d9574d84ef4c253132691d76f62fee4daab",
      "function": "approve(address,uint256)",
      "arguments": [
        "0x1649883be9b0d4D83092CDB430c42E6d5C1B7cAB",
        "115792089237316195423570985008687907853269984665640564039457584007913129639935"
      ],
      "transaction": {
        "from": "0x000ef5f21dc574226a06c76aae7060642a30eb74",
        "to": "0xf21b5d9574d84ef4c253132691d76f62fee4daab",
        "gas": "0xf5ac",
        "value": "0x0",
        "input": "0x095ea7b30000000000000000000000001649883be9b0d4d83092cdb430c42e6d5c1b7cabffffffffffffffffffffffffffffffffffffffffffffffffffffffffffffffff",
        "nonce": "0x122",
        "chainId": "0x66eee"
      },
      "additionalContracts": [],
      "isFixedGasLimit": false
    },
    {
      "hash": "0x62c5d6863e79d20c9f3882025c20d336cc2614a7d71011d3fb41c2f0f38db269",
      "transactionType": "CALL",
      "contractName": null,
      "contractAddress": "0x313adf3fa3479f6bf5aedbc7949ee5e1213f20b7",
      "function": "mint(address,uint256)",
      "arguments": [
        "0x000ef5F21dC574226A06C76AAE7060642A30eB74",
        "1000000000000000000000000000000000"
      ],
      "transaction": {
        "from": "0x000ef5f21dc574226a06c76aae7060642a30eb74",
        "to": "0x313adf3fa3479f6bf5aedbc7949ee5e1213f20b7",
        "gas": "0xb671",
        "value": "0x0",
        "input": "0x40c10f19000000000000000000000000000ef5f21dc574226a06c76aae7060642a30eb74000000000000000000000000000000000000314dc6448d9338c15b0a00000000",
        "nonce": "0x123",
        "chainId": "0x66eee"
      },
      "additionalContracts": [],
      "isFixedGasLimit": false
    },
    {
      "hash": "0xed7f9ce25aba06c7eff744b8436f2bb9e2403520393469f86b388792239454c5",
      "transactionType": "CALL",
      "contractName": null,
      "contractAddress": "0xf21b5d9574d84ef4c253132691d76f62fee4daab",
      "function": "mint(address,uint256)",
      "arguments": [
        "0x000ef5F21dC574226A06C76AAE7060642A30eB74",
        "1000000000000000000000000000000000"
      ],
      "transaction": {
        "from": "0x000ef5f21dc574226a06c76aae7060642a30eb74",
        "to": "0xf21b5d9574d84ef4c253132691d76f62fee4daab",
        "gas": "0xb671",
        "value": "0x0",
        "input": "0x40c10f19000000000000000000000000000ef5f21dc574226a06c76aae7060642a30eb74000000000000000000000000000000000000314dc6448d9338c15b0a00000000",
        "nonce": "0x124",
        "chainId": "0x66eee"
      },
      "additionalContracts": [],
      "isFixedGasLimit": false
    },
    {
      "hash": "0x8c4a5b26b43e45ab5a36c7d94076b4794a7ba99cbf8e33e623939513b335a6d9",
      "transactionType": "CREATE2",
      "contractName": "RiskManagerHook",
      "contractAddress": "0xd2ff9d917c3ef592425c9fc478af5bda2aedc040",
      "function": null,
      "arguments": [
        "0xc420C3A3F81f2A059fF56D45c0A82D1F9aF38dCc",
        "0x7f6359E8EE0E8eAe486908C1c9B839E0c141444a"
      ],
      "transaction": {
        "from": "0x000ef5f21dc574226a06c76aae7060642a30eb74",
        "to": "0x4e59b44847b379578588920ca78fbf26c0b4956c",
        "gas": "0xfe008",
        "value": "0x0",
        "input": "0x0000000000000000000000000000000000000000000000000000000000000eca60a060405234801561000f575f80fd5b50604051610f76380380610f7683398101604081905261002e916102d7565b6001600160a01b038216608052816100453061006b565b505f80546001600160a01b0319166001600160a01b03929092169190911790555061030f565b61015b81610156604080516101c0810182525f80825260208201819052918101829052606081018290526080810182905260a0810182905260c0810182905260e08101829052610100810182905261012081018290526101408101829052610160810182905261018081018290526101a081019190915250604080516101c0810182525f80825260208201819052918101829052606081018290526080810182905260a0810182905260c08101829052600160e0820152610100810182905261012081018290526101408101829052610160810182905261018081018290526101a081019190915290565b61015e565b50565b80511515612000831615151415806101825750602081015115156110008316151514155b806101995750604081015115156108008316151514155b806101b05750606081015115156104008316151514155b806101c75750608081015115156102008316151514155b806101de575060a081015115156101008316151514155b806101f4575060c0810151151560808316151514155b8061020a575060e0810151151560408316151514155b806102215750610100810151151560208316151514155b806102385750610120810151151560108316151514155b8061024f5750610140810151151560088316151514155b806102665750610160810151151560048316151514155b8061027d5750610180810151151560028316151514155b8061029457506101a0810151151560018316151514155b156102aa576102aa630732d7b560e51b836102ae565b5050565b815f526001600160a01b03811660045260245ffd5b6001600160a01b038116811461015b575f80fd5b5f80604083850312156102e8575f80fd5b82516102f3816102c3565b6020840151909250610304816102c3565b809150509250929050565b608051610c4861032e5f395f818161032001526103ae0152610c485ff3fe608060405234801561000f575f80fd5b50600436106100e5575f3560e01c80639f063efc11610088578063c4e833ce11610063578063c4e833ce14610227578063dc4c90d31461031b578063dc98354e14610342578063e1b4af6914610219575f80fd5b80639f063efc14610182578063b47b2fb1146101e3578063b6a8b0fa14610219575f80fd5b8063575e24b4116100c3578063575e24b4146101445780636c2bbe7e146101825780636fe7e6eb146101b557806391dd7346146101c3575f80fd5b806321d0ee70146100e9578063259982e5146100e9578063478426631461011a575b5f80fd5b6100fc6100f73660046106f2565b610350565b6040516001600160e01b031990911681526020015b60405180910390f35b5f5461012c906001600160a01b031681565b6040516001600160a01b039091168152602001610111565b610157610152366004610779565b61036a565b604080516001600160e01b03199094168452602084019290925262ffffff1690820152606001610111565b6101956101903660046107d3565b610386565b604080516001600160e01b03199093168352602083019190915201610111565b6100fc6100f736600461085e565b6101d66101d13660046108bd565b6103a1565b60405161011191906108fc565b6101f66101f1366004610931565b6103ff565b604080516001600160e01b03199093168352600f9190910b602083015201610111565b6100fc6100f73660046109b2565b61030e604080516101c0810182525f80825260208201819052918101829052606081018290526080810182905260a0810182905260c0810182905260e08101829052610100810182905261012081018290526101408101829052610160810182905261018081018290526101a081019190915250604080516101c0810182525f80825260208201819052918101829052606081018290526080810182905260a0810182905260c08101829052600160e0820152610100810182905261012081018290526101408101829052610160810182905261018081018290526101a081019190915290565b6040516101119190610a0c565b61012c7f000000000000000000000000000000000000000000000000000000000000000081565b6100fc6100f7366004610b2d565b5f604051630a85dc2960e01b815260040160405180910390fd5b5f805f604051630a85dc2960e01b815260040160405180910390fd5b5f80604051630a85dc2960e01b815260040160405180910390fd5b6060336001600160a01b037f000000000000000000000000000000000000000000000000000000000000000016146103ec5760405163570c108560e11b815260040160405180910390fd5b6103f683836105d7565b90505b92915050565b5f808061040f6020880188610b81565b610428576104236040890160208a01610ba3565b610435565b6104356020890189610ba3565b90505f6104456020890189610b81565b61045b5761045660208a018a610ba3565b61046b565b61046b60408a0160208b01610ba3565b90505f61047b60208a018a610b81565b6104915761048988600f0b90565b600f0b610497565b88602001355b90505f6104a760208b018b610b81565b6104b55789602001356104c3565b6104bf8960801d90565b600f0b5b90505f806104d3898b018b610bbe565b5f54604051635ddb109d60e11b81526001600160a01b038085166004830152602482018490528a8116604483015260648201899052898116608483015260a48201889052939550919350919091169063bbb6213a9060c401602060405180830381865afa158015610546573d5f803e3d5ffd5b505050506040513d601f19601f8201168201806040525081019061056a9190610be8565b6105bb576040516305012d8d60e41b81526001600160a01b038084166004830152602482018390528088166044830152606482018690528616608482015260a4810184905260c40160405180910390fd5b5063b47b2fb160e01b9d5f9d509b505050505050505050505050565b60605f80306001600160a01b031685856040516105f5929190610c03565b5f604051808303815f865af19150503d805f811461062e576040519150601f19603f3d011682016040523d82523d5f602084013e610633565b606091505b509150915081156106475791506103f99050565b80515f03610668576040516314815f4760e31b815260040160405180910390fd5b805160208201fd5b6001600160a01b0381168114610684575f80fd5b50565b5f60a08284031215610697575f80fd5b50919050565b5f60808284031215610697575f80fd5b5f8083601f8401126106bd575f80fd5b50813567ffffffffffffffff8111156106d4575f80fd5b6020830191508360208285010111156106eb575f80fd5b9250929050565b5f805f805f6101608688031215610707575f80fd5b853561071281610670565b94506107218760208801610687565b93506107308760c0880161069d565b925061014086013567ffffffffffffffff81111561074c575f80fd5b610758888289016106ad565b969995985093965092949392505050565b5f60608284031215610697575f80fd5b5f805f805f610140868803121561078e575f80fd5b853561079981610670565b94506107a88760208801610687565b93506107b78760c08801610769565b925061012086013567ffffffffffffffff81111561074c575f80fd5b5f805f805f805f6101a0888a0312156107ea575f80fd5b87356107f581610670565b96506108048960208a01610687565b95506108138960c08a0161069d565b94506101408801359350610160880135925061018088013567ffffffffffffffff81111561083f575f80fd5b61084b8a828b016106ad565b989b979a50959850939692959293505050565b5f805f806101008587031215610872575f80fd5b843561087d81610670565b935061088c8660208701610687565b925060c085013561089c81610670565b915060e0850135600281900b81146108b2575f80fd5b939692955090935050565b5f80602083850312156108ce575f80fd5b823567ffffffffffffffff8111156108e4575f80fd5b6108f0858286016106ad565b90969095509350505050565b602081525f82518060208401528060208501604085015e5f604082850101526040601f19601f83011684010191505092915050565b5f805f805f806101608789031215610947575f80fd5b863561095281610670565b95506109618860208901610687565b94506109708860c08901610769565b9350610120870135925061014087013567ffffffffffffffff811115610994575f80fd5b6109a089828a016106ad565b979a9699509497509295939492505050565b5f805f805f8061012087890312156109c8575f80fd5b86356109d381610670565b95506109e28860208901610687565b945060c0870135935060e0870135925061010087013567ffffffffffffffff811115610994575f80fd5b8151151581526101c081016020830151610a2a602084018215159052565b506040830151610a3e604084018215159052565b506060830151610a52606084018215159052565b506080830151610a66608084018215159052565b5060a0830151610a7a60a084018215159052565b5060c0830151610a8e60c084018215159052565b5060e0830151610aa260e084018215159052565b50610100830151610ab861010084018215159052565b50610120830151610ace61012084018215159052565b50610140830151610ae461014084018215159052565b50610160830151610afa61016084018215159052565b50610180830151610b1061018084018215159052565b506101a0830151610b266101a084018215159052565b5092915050565b5f805f60e08486031215610b3f575f80fd5b8335610b4a81610670565b9250610b598560208601610687565b915060c0840135610b6981610670565b809150509250925092565b8015158114610684575f80fd5b5f60208284031215610b91575f80fd5b8135610b9c81610b74565b9392505050565b5f60208284031215610bb3575f80fd5b8135610b9c81610670565b5f8060408385031215610bcf575f80fd5b8235610bda81610670565b946020939093013593505050565b5f60208284031215610bf8575f80fd5b8151610b9c81610b74565b818382375f910190815291905056fea264697066735822122063133d2e6d855f7c4e9217fbda0dbc99f11eec30c4e0a4e0f6fb3cb8fbfe3ca064736f6c634300081a0033000000000000000000000000c420c3a3f81f2a059ff56d45c0a82d1f9af38dcc0000000000000000000000007f6359e8ee0e8eae486908c1c9b839e0c141444a",
        "nonce": "0x125",
        "chainId": "0x66eee"
      },
      "additionalContracts": [],
      "isFixedGasLimit": false
    },
    {
      "hash": "0xd54e3f1b4f1332dc896b77e279d8f55afa7dc0b53c116dff8271493c9d3fe75c",
      "transactionType": "CALL",
      "contractName": null,
      "contractAddress": "0xc420c3a3f81f2a059ff56d45c0a82d1f9af38dcc",
      "function": "initialize((address,address,uint24,int24,address),uint160)",
      "arguments": [
        "(0x313Adf3Fa3479F6Bf5aedBc7949EE5e1213F20B7, 0xf21B5d9574d84eF4c253132691D76F62FEE4Daab, 3000, 120, 0xd2fF9D917c3EF592425c9fc478AF5Bda2Aedc040)",
        "79228162514264337593543950336"
      ],
      "transaction": {
        "from": "0x000ef5f21dc574226a06c76aae7060642a30eb74",
        "to": "0xc420c3a3f81f2a059ff56d45c0a82d1f9af38dcc",
        "gas": "0x11a55",
        "value": "0x0",
        "input": "0x6276cbbe000000000000000000000000313adf3fa3479f6bf5aedbc7949ee5e1213f20b7000000000000000000000000f21b5d9574d84ef4c253132691d76f62fee4daab0000000000000000000000000000000000000000000000000000000000000bb80000000000000000000000000000000000000000000000000000000000000078000000000000000000000000d2ff9d917c3ef592425c9fc478af5bda2aedc0400000000000000000000000000000000000000001000000000000000000000000",
        "nonce": "0x126",
        "chainId": "0x66eee"
      },
      "additionalContracts": [],
      "isFixedGasLimit": false
    },
    {
      "hash": "0xffc030a570b3f17c85c098bdf8089a43041d2f9e220ba916fcd97936e0ce8088",
      "transactionType": "CALL",
      "contractName": null,
      "contractAddress": "0x2298870db1fa24f3f6cc1fa0b2760ab7c1803bc1",
      "function": "modifyLiquidity((address,address,uint24,int24,address),(int24,int24,int256,bytes32),bytes)",
      "arguments": [
        "(0x313Adf3Fa3479F6Bf5aedBc7949EE5e1213F20B7, 0xf21B5d9574d84eF4c253132691D76F62FEE4Daab, 3000, 120, 0xd2fF9D917c3EF592425c9fc478AF5Bda2Aedc040)",
        "(-120, 120, 10000000000000000000000, 0x0000000000000000000000000000000000000000000000000000000000000000)",
        "0x"
      ],
      "transaction": {
        "from": "0x000ef5f21dc574226a06c76aae7060642a30eb74",
        "to": "0x2298870db1fa24f3f6cc1fa0b2760ab7c1803bc1",
        "gas": "0x64e68",
        "value": "0x0",
        "input": "0x5a6bcfda000000000000000000000000313adf3fa3479f6bf5aedbc7949ee5e1213f20b7000000000000000000000000f21b5d9574d84ef4c253132691d76f62fee4daab0000000000000000000000000000000000000000000000000000000000000bb80000000000000000000000000000000000000000000000000000000000000078000000000000000000000000d2ff9d917c3ef592425c9fc478af5bda2aedc040ffffffffffffffffffffffffffffffffffffffffffffffffffffffffffffff88000000000000000000000000000000000000000000000000000000000000007800000000000000000000000000000000000000000000021e19e0c9bab2400000000000000000000000000000000000000000000000000000000000000000000000000000000000000000000000000000000000000000000000000000000001400000000000000000000000000000000000000000000000000000000000000000",
        "nonce": "0x127",
        "chainId": "0x66eee"
      },
      "additionalContracts": [],
      "isFixedGasLimit": false
    }
  ],
  "receipts": [
    {
      "status": "0x1",
      "cumulativeGasUsed": "0x23ee70",
      "logs": [
        {
          "address": "0x313adf3fa3479f6bf5aedbc7949ee5e1213f20b7",
          "topics": [
            "0x8c5be1e5ebec7d5bd14f71427d1e84f3dd0314c0f7b2291e5b200ac8c7c3b925",
            "0x000000000000000000000000000ef5f21dc574226a06c76aae7060642a30eb74",
            "0x0000000000000000000000002298870db1fa24f3f6cc1fa0b2760ab7c1803bc1"
          ],
          "data": "0xffffffffffffffffffffffffffffffffffffffffffffffffffffffffffffffff",
          "blockHash": "0x7f91e7fb54b04df115df2b773bcce5e6d107b66fa1e58a46ad22795435ba0a84",
          "blockNumber": "0x63f80f2",
          "transactionHash": "0x9927dd58581fbf9889f3fac3a9630528e6a82b56e52feb0fc28604b4107c6da7",
          "transactionIndex": "0x2",
          "logIndex": "0x18",
          "removed": false
        }
      ],
      "logsBloom": "0x00000000000000000000000000000000000000000000000000000000000000000000000000020000000000000000000000000000000000000000000000200000000000000000000000000000000000000000000000000000000000000000000000000000000000000000000400000000100000000000000000000002000000000000000000000000000000000000000000000000000000000000000000004000020000000800000000000000000000000000000000000000000000000000000000000000000000000000000000000000000000000000000000000000040000000010000000000000000000000000000000000000000100000000000000080000",
      "type": "0x2",
      "transactionHash": "0x9927dd58581fbf9889f3fac3a9630528e6a82b56e52feb0fc28604b4107c6da7",
      "transactionIndex": "0x2",
      "blockHash": "0x7f91e7fb54b04df115df2b773bcce5e6d107b66fa1e58a46ad22795435ba0a84",
      "blockNumber": "0x63f80f2",
      "gasUsed": "0xba5e",
      "effectiveGasPrice": "0x5f5e100",
      "from": "0x000ef5f21dc574226a06c76aae7060642a30eb74",
      "to": "0x313adf3fa3479f6bf5aedbc7949ee5e1213f20b7",
      "contractAddress": null,
      "gasUsedForL1": "0x3f0",
      "l1BlockNumber": "0x6e70a7"
    },
    {
      "status": "0x1",
      "cumulativeGasUsed": "0x5c413",
      "logs": [
        {
          "address": "0xf21b5d9574d84ef4c253132691d76f62fee4daab",
          "topics": [
            "0x8c5be1e5ebec7d5bd14f71427d1e84f3dd0314c0f7b2291e5b200ac8c7c3b925",
            "0x000000000000000000000000000ef5f21dc574226a06c76aae7060642a30eb74",
            "0x0000000000000000000000002298870db1fa24f3f6cc1fa0b2760ab7c1803bc1"
          ],
          "data": "0xffffffffffffffffffffffffffffffffffffffffffffffffffffffffffffffff",
          "blockHash": "0xa28b4af2fd765cb19da13307a20da1c979869ac2b5258f6cd6c571be52f185f6",
          "blockNumber": "0x63f8101",
          "transactionHash": "0x22343aebe5eb000239e4f8311d42f61302a2ff3059a91fdd9f4b354eae39c615",
          "transactionIndex": "0x5",
          "logIndex": "0x5",
          "removed": false
        }
      ],
      "logsBloom": "0x00000000000000000000000000000000000000000000000000000000000000000000000000020000000000000000000000000000000000000000000000200000000000000000000000000000000000000000000000000040000000000000000000000000000000000000000400000000100000000000000000000000000000000000000000000000000000040000000000000000000000000000000000000000020000000800000000000000000000000000000008000000000000000000000000000000000000000000000000000000000000000000000000000000040000000010000000000000000000000000000000000000000100000000000000000000",
      "type": "0x2",
      "transactionHash": "0x22343aebe5eb000239e4f8311d42f61302a2ff3059a91fdd9f4b354eae39c615",
      "transactionIndex": "0x5",
      "blockHash": "0xa28b4af2fd765cb19da13307a20da1c979869ac2b5258f6cd6c571be52f185f6",
      "blockNumber": "0x63f8101",
      "gasUsed": "0xba5e",
      "effectiveGasPrice": "0x5f5e100",
      "from": "0x000ef5f21dc574226a06c76aae7060642a30eb74",
      "to": "0xf21b5d9574d84ef4c253132691d76f62fee4daab",
      "contractAddress": null,
      "gasUsedForL1": "0x3f0",
      "l1BlockNumber": "0x6e70a8"
    },
    {
      "status": "0x1",
      "cumulativeGasUsed": "0x2836a",
      "logs": [
        {
          "address": "0x313adf3fa3479f6bf5aedbc7949ee5e1213f20b7",
          "topics": [
            "0x8c5be1e5ebec7d5bd14f71427d1e84f3dd0314c0f7b2291e5b200ac8c7c3b925",
            "0x000000000000000000000000000ef5f21dc574226a06c76aae7060642a30eb74",
            "0x0000000000000000000000001649883be9b0d4d83092cdb430c42e6d5c1b7cab"
          ],
          "data": "0xffffffffffffffffffffffffffffffffffffffffffffffffffffffffffffffff",
          "blockHash": "0x30d30efbe3af0fccef6ca882fc3546d275062abb5af9b4c34ed7c9ba5392a8ea",
          "blockNumber": "0x63f8118",
          "transactionHash": "0x8e1b79596af99618ed2bec78edded6d83305b729a2995b1197f9cb46c6faf24b",
          "transactionIndex": "0x2",
          "logIndex": "0x1",
          "removed": false
        }
      ],
      "logsBloom": "0x00000000000000000000000000000000000000000000000000000000000000000000000000020000000000000000000000000000000000000000000000200000000000000000000000000000000000000000000000000000000000000000000000000000000000000000000400000000000000000000000000000002000000000000000000000000000000000000000000000000000000000008000000004000020000000000000000000000000000000000000000000400000000000000000000000000000800000000000000000000000000000000000000000000040000000010000000000000000000000000000000000000000000000000000000080000",
      "type": "0x2",
      "transactionHash": "0x8e1b79596af99618ed2bec78edded6d83305b729a2995b1197f9cb46c6faf24b",
      "transactionIndex": "0x2",
      "blockHash": "0x30d30efbe3af0fccef6ca882fc3546d275062abb5af9b4c34ed7c9ba5392a8ea",
      "blockNumber": "0x63f8118",
      "gasUsed": "0xba5e",
      "effectiveGasPrice": "0x5f5e100",
      "from": "0x000ef5f21dc574226a06c76aae7060642a30eb74",
      "to": "0x313adf3fa3479f6bf5aedbc7949ee5e1213f20b7",
      "contractAddress": null,
      "gasUsedForL1": "0x3f0",
      "l1BlockNumber": "0x6e70a8"
    },
    {
      "status": "0x1",
      "cumulativeGasUsed": "0xba5e",
      "logs": [
        {
          "address": "0xf21b5d9574d84ef4c253132691d76f62fee4daab",
          "topics": [
            "0x8c5be1e5ebec7d5bd14f71427d1e84f3dd0314c0f7b2291e5b200ac8c7c3b925",
            "0x000000000000000000000000000ef5f21dc574226a06c76aae7060642a30eb74",
            "0x0000000000000000000000001649883be9b0d4d83092cdb430c42e6d5c1b7cab"
          ],
          "data": "0xffffffffffffffffffffffffffffffffffffffffffffffffffffffffffffffff",
          "blockHash": "0xc7db7e648569cd1d4e9e71897befc46292110f2cf6eb8f0893addaf0632b1be6",
          "blockNumber": "0x63f8124",
          "transactionHash": "0xc33134b8fb2f71a5338170189364c3d5b524cf378c4c4a5fb556402d6f010c55",
          "transactionIndex": "0x1",
          "logIndex": "0x0",
          "removed": false
        }
      ],
      "logsBloom": "0x00000000000000000000000000000000000000000000000000000000000000000000000000020000000000000000000000000000000000000000000000200000000000000000000000000000000000000000000000000040000000000000000000000000000000000000000400000000000000000000000000000000000000000000000000000000000000040000000000000000000000000008000000000000020000000000000000000000000000000000000008000400000000000000000000000000000800000000000000000000000000000000000000000000040000000010000000000000000000000000000000000000000000000000000000000000",
      "type": "0x2",
      "transactionHash": "0xc33134b8fb2f71a5338170189364c3d5b524cf378c4c4a5fb556402d6f010c55",
      "transactionIndex": "0x1",
      "blockHash": "0xc7db7e648569cd1d4e9e71897befc46292110f2cf6eb8f0893addaf0632b1be6",
      "blockNumber": "0x63f8124",
      "gasUsed": "0xba5e",
      "effectiveGasPrice": "0x5f5e100",
      "from": "0x000ef5f21dc574226a06c76aae7060642a30eb74",
      "to": "0xf21b5d9574d84ef4c253132691d76f62fee4daab",
      "contractAddress": null,
      "gasUsedForL1": "0x3f0",
      "l1BlockNumber": "0x6e70a8"
    },
    {
      "status": "0x1",
      "cumulativeGasUsed": "0x89d3",
      "logs": [
        {
          "address": "0x313adf3fa3479f6bf5aedbc7949ee5e1213f20b7",
          "topics": [
            "0xddf252ad1be2c89b69c2b068fc378daa952ba7f163c4a11628f55a4df523b3ef",
            "0x0000000000000000000000000000000000000000000000000000000000000000",
            "0x000000000000000000000000000ef5f21dc574226a06c76aae7060642a30eb74"
          ],
          "data": "0x000000000000000000000000000000000000314dc6448d9338c15b0a00000000",
          "blockHash": "0x80a327c2c0ad310edb36b52767568262eab08367c51e130153dcba01436a72a1",
          "blockNumber": "0x63f8136",
          "transactionHash": "0x62c5d6863e79d20c9f3882025c20d336cc2614a7d71011d3fb41c2f0f38db269",
          "transactionIndex": "0x1",
          "logIndex": "0x0",
          "removed": false
        }
      ],
      "logsBloom": "0x00000000000000000000000000000000000000000000000000000000000000000000000000020000000000000000000000000000000000000000000000000000000000000000000000000008000000000000000000000000000000000000000000000000020000000000000400000800000000000000000000000012000000000000000000000000000000000000000000000000000000000000000000004000000000000000000000000000000000000000000000000000000000000000000000000002000000000000000000000000000000000000000000000000040020000000000000000000000000000000000000000000000000000000000000080000",
      "type": "0x2",
      "transactionHash": "0x62c5d6863e79d20c9f3882025c20d336cc2614a7d71011d3fb41c2f0f38db269",
      "transactionIndex": "0x1",
      "blockHash": "0x80a327c2c0ad310edb36b52767568262eab08367c51e130153dcba01436a72a1",
      "blockNumber": "0x63f8136",
      "gasUsed": "0x89d3",
      "effectiveGasPrice": "0x5f5e100",
      "from": "0x000ef5f21dc574226a06c76aae7060642a30eb74",
      "to": "0x313adf3fa3479f6bf5aedbc7949ee5e1213f20b7",
      "contractAddress": null,
      "gasUsedForL1": "0x3f0",
      "l1BlockNumber": "0x6e70a9"
    },
    {
      "status": "0x1",
      "cumulativeGasUsed": "0x89d3",
      "logs": [
        {
          "address": "0xf21b5d9574d84ef4c253132691d76f62fee4daab",
          "topics": [
            "0xddf252ad1be2c89b69c2b068fc378daa952ba7f163c4a11628f55a4df523b3ef",
            "0x0000000000000000000000000000000000000000000000000000000000000000",
            "0x000000000000000000000000000ef5f21dc574226a06c76aae7060642a30eb74"
          ],
          "data": "0x000000000000000000000000000000000000314dc6448d9338c15b0a00000000",
          "blockHash": "0x0b66e685dd7c3d4be6b6545a53db1197e0443a59ab56554f6537e3e9df77641c",
          "blockNumber": "0x63f8148",
          "transactionHash": "0xed7f9ce25aba06c7eff744b8436f2bb9e2403520393469f86b388792239454c5",
          "transactionIndex": "0x1",
          "logIndex": "0x0",
          "removed": false
        }
      ],
      "logsBloom": "0x00000000000000000000000000000000000000000000000000000000000000000000000000020000000000000000000000000000000000000000000000000000000000000000000000000008000000000000000000000040000000000000000000000000020000000000000400000800000000000000000000000010000000000000000000000000000000040000000000000000000000000000000000000000000000000000000000000000000000000000000008000000000000000000000000000002000000000000000000000000000000000000000000000000040020000000000000000000000000000000000000000000000000000000000000000000",
      "type": "0x2",
      "transactionHash": "0xed7f9ce25aba06c7eff744b8436f2bb9e2403520393469f86b388792239454c5",
      "transactionIndex": "0x1",
      "blockHash": "0x0b66e685dd7c3d4be6b6545a53db1197e0443a59ab56554f6537e3e9df77641c",
      "blockNumber": "0x63f8148",
      "gasUsed": "0x89d3",
      "effectiveGasPrice": "0x5f5e100",
      "from": "0x000ef5f21dc574226a06c76aae7060642a30eb74",
      "to": "0xf21b5d9574d84ef4c253132691d76f62fee4daab",
      "contractAddress": null,
      "gasUsedForL1": "0x3f0",
      "l1BlockNumber": "0x6e70a9"
    },
    {
      "status": "0x1",
      "cumulativeGasUsed": "0xbf638",
      "logs": [],
      "logsBloom": "0x00000000000000000000000000000000000000000000000000000000000000000000000000000000000000000000000000000000000000000000000000000000000000000000000000000000000000000000000000000000000000000000000000000000000000000000000000000000000000000000000000000000000000000000000000000000000000000000000000000000000000000000000000000000000000000000000000000000000000000000000000000000000000000000000000000000000000000000000000000000000000000000000000000000000000000000000000000000000000000000000000000000000000000000000000000000",
      "type": "0x2",
      "transactionHash": "0x8c4a5b26b43e45ab5a36c7d94076b4794a7ba99cbf8e33e623939513b335a6d9",
      "transactionIndex": "0x1",
      "blockHash": "0x9afa4417be3769296b52f0cd4844202ec84c946cae00d56ab4b73dd186c21701",
      "blockNumber": "0x63f8157",
      "gasUsed": "0xbf638",
      "effectiveGasPrice": "0x5f5e100",
      "from": "0x000ef5f21dc574226a06c76aae7060642a30eb74",
      "to": "0x4e59b44847b379578588920ca78fbf26c0b4956c",
      "contractAddress": null,
      "gasUsedForL1": "0x313c",
      "l1BlockNumber": "0x6e70a9"
    },
    {
      "status": "0x1",
      "cumulativeGasUsed": "0x1efa4",
      "logs": [
        {
          "address": "0xc420c3a3f81f2a059ff56d45c0a82d1f9af38dcc",
          "topics": [
            "0xdd466e674ea557f56295e2d0218a125ea4b4f0f6f3307b95f85e6110838d6438",
            "0xf86c06ad6968205f3e1235a120cd17539a3b05784cbf22eb33e484c907f7d683",
            "0x000000000000000000000000313adf3fa3479f6bf5aedbc7949ee5e1213f20b7",
            "0x000000000000000000000000f21b5d9574d84ef4c253132691d76f62fee4daab"
          ],
          "data": "0x0000000000000000000000000000000000000000000000000000000000000bb80000000000000000000000000000000000000000000000000000000000000078000000000000000000000000d2ff9d917c3ef592425c9fc478af5bda2aedc04000000000000000000000000000000000000000010000000000000000000000000000000000000000000000000000000000000000000000000000000000000000",
          "blockHash": "0xa4752ae7cf478f3b3a151064ca55f5b14436631d49313429a05a2bd3350b3778",
          "blockNumber": "0x63f8166",
          "transactionHash": "0xd54e3f1b4f1332dc896b77e279d8f55afa7dc0b53c116dff8271493c9d3fe75c",
          "transactionIndex": "0x2",
          "logIndex": "0x1",
          "removed": false
        }
      ],
      "logsBloom": "0x00000000000000000000000000000000000000000000000001000000000000000000000000000000000000002000000000000000000000000000000000000800400000000000000000000000000000000000000000000000000000000000000000000000000000000000000001000000000000000000000000000000000000000000000000000008000000000000000000000001001000000000000000200000000000000000400020000040000000000000000000000000000000000000000000000000000000000000000000004000000010000000000010000000000000000000000000000000000000000000000000000000000000000000000000000000",
      "type": "0x2",
      "transactionHash": "0xd54e3f1b4f1332dc896b77e279d8f55afa7dc0b53c116dff8271493c9d3fe75c",
      "transactionIndex": "0x2",
      "blockHash": "0xa4752ae7cf478f3b3a151064ca55f5b14436631d49313429a05a2bd3350b3778",
      "blockNumber": "0x63f8166",
      "gasUsed": "0xd49a",
      "effectiveGasPrice": "0x5f5e100",
      "from": "0x000ef5f21dc574226a06c76aae7060642a30eb74",
      "to": "0xc420c3a3f81f2a059ff56d45c0a82d1f9af38dcc",
      "contractAddress": null,
      "gasUsedForL1": "0x69b",
      "l1BlockNumber": "0x6e70a9"
    },
    {
      "status": "0x1",
      "cumulativeGasUsed": "0x5f69c",
      "logs": [
        {
          "address": "0xc420c3a3f81f2a059ff56d45c0a82d1f9af38dcc",
          "topics": [
            "0xf208f4912782fd25c7f114ca3723a2d5dd6f3bcc3ac8db5af63baa85f711d5ec",
            "0xf86c06ad6968205f3e1235a120cd17539a3b05784cbf22eb33e484c907f7d683",
            "0x0000000000000000000000002298870db1fa24f3f6cc1fa0b2760ab7c1803bc1"
          ],
          "data": "0xffffffffffffffffffffffffffffffffffffffffffffffffffffffffffffff88000000000000000000000000000000000000000000000000000000000000007800000000000000000000000000000000000000000000021e19e0c9bab24000000000000000000000000000000000000000000000000000000000000000000000",
          "blockHash": "0x3e8af7c99e48b0b967943596c57c67d0db69562f30bdfa773a50964fe958fe93",
          "blockNumber": "0x63f8179",
          "transactionHash": "0xffc030a570b3f17c85c098bdf8089a43041d2f9e220ba916fcd97936e0ce8088",
          "transactionIndex": "0x2",
          "logIndex": "0x2",
          "removed": false
        },
        {
          "address": "0x313adf3fa3479f6bf5aedbc7949ee5e1213f20b7",
          "topics": [
            "0xddf252ad1be2c89b69c2b068fc378daa952ba7f163c4a11628f55a4df523b3ef",
            "0x000000000000000000000000000ef5f21dc574226a06c76aae7060642a30eb74",
            "0x000000000000000000000000c420c3a3f81f2a059ff56d45c0a82d1f9af38dcc"
          ],
          "data": "0x0000000000000000000000000000000000000000000000033e2204017b30d746",
          "blockHash": "0x3e8af7c99e48b0b967943596c57c67d0db69562f30bdfa773a50964fe958fe93",
          "blockNumber": "0x63f8179",
          "transactionHash": "0xffc030a570b3f17c85c098bdf8089a43041d2f9e220ba916fcd97936e0ce8088",
          "transactionIndex": "0x2",
          "logIndex": "0x3",
          "removed": false
        },
        {
          "address": "0xf21b5d9574d84ef4c253132691d76f62fee4daab",
          "topics": [
            "0xddf252ad1be2c89b69c2b068fc378daa952ba7f163c4a11628f55a4df523b3ef",
            "0x000000000000000000000000000ef5f21dc574226a06c76aae7060642a30eb74",
            "0x000000000000000000000000c420c3a3f81f2a059ff56d45c0a82d1f9af38dcc"
          ],
          "data": "0x0000000000000000000000000000000000000000000000033e2204017b30d746",
          "blockHash": "0x3e8af7c99e48b0b967943596c57c67d0db69562f30bdfa773a50964fe958fe93",
          "blockNumber": "0x63f8179",
          "transactionHash": "0xffc030a570b3f17c85c098bdf8089a43041d2f9e220ba916fcd97936e0ce8088",
          "transactionIndex": "0x2",
          "logIndex": "0x4",
          "removed": false
        }
      ],
      "logsBloom": "0x00000000000000000000000000000000000000000000000001000000000000000000000000020000000000002000000000000000000000000000000000000000000000000000000000000008000000000000000000000040000000000000000000000000000000000000000401000000100000000000000000000012000000000000000801000000000000040000000000000000000000000000040000004000000004000800400000000040000000000000000008000000000000000000000000000002000000000000000000000000000010000000000000000000040000000000000000000000000000000000000004000000000100000000004000080000",
      "type": "0x2",
      "transactionHash": "0xffc030a570b3f17c85c098bdf8089a43041d2f9e220ba916fcd97936e0ce8088",
      "transactionIndex": "0x2",
      "blockHash": "0x3e8af7c99e48b0b967943596c57c67d0db69562f30bdfa773a50964fe958fe93",
      "blockNumber": "0x63f8179",
      "gasUsed": "0x49804",
      "effectiveGasPrice": "0x5f5e100",
      "from": "0x000ef5f21dc574226a06c76aae7060642a30eb74",
      "to": "0x2298870db1fa24f3f6cc1fa0b2760ab7c1803bc1",
      "contractAddress": null,
      "gasUsedForL1": "0x736",
      "l1BlockNumber": "0x6e70aa"
    }
  ],
  "libraries": [],
  "pending": [],
  "returns": {},
  "timestamp": 1733674871,
  "chain": 421614,
  "commit": "8476dd6"
}